{
	"extension/Multicall.sol": {
		"Multicall": {
			"abi": [
				{
					"inputs": [
						{
							"internalType": "bytes[]",
							"name": "data",
							"type": "bytes[]"
						}
					],
					"name": "multicall",
					"outputs": [
						{
							"internalType": "bytes[]",
							"name": "results",
							"type": "bytes[]"
						}
					],
					"stateMutability": "nonpayable",
					"type": "function"
				}
			],
			"devdoc": {
				"details": "Provides a function to batch together multiple calls in a single external call. _Available since v4.1._",
				"kind": "dev",
				"methods": {
					"multicall(bytes[])": {
						"details": "Receives and executes a batch of function calls on this contract.",
						"params": {
							"data": "The bytes data that makes up the batch of function calls to execute."
						},
						"returns": {
							"results": "The bytes data that makes up the result of the batch of function calls executed."
						}
					}
				},
				"version": 1
			},
			"evm": {
				"assembly": "    /* \"extension/Multicall.sol\":261:999  contract Multicall is IMulticall {... */\n  mstore(0x40, 0x80)\n  callvalue\n  dup1\n  iszero\n  tag_1\n  jumpi\n  0x00\n  dup1\n  revert\ntag_1:\n  pop\n  dataSize(sub_0)\n  dup1\n  dataOffset(sub_0)\n  0x00\n  codecopy\n  0x00\n  return\nstop\n\nsub_0: assembly {\n        /* \"extension/Multicall.sol\":261:999  contract Multicall is IMulticall {... */\n      mstore(0x40, 0x80)\n      callvalue\n      dup1\n      iszero\n      tag_1\n      jumpi\n      0x00\n      dup1\n      revert\n    tag_1:\n      pop\n      jumpi(tag_2, lt(calldatasize, 0x04))\n      shr(0xe0, calldataload(0x00))\n      dup1\n      0xac9650d8\n      eq\n      tag_3\n      jumpi\n    tag_2:\n      0x00\n      dup1\n      revert\n        /* \"extension/Multicall.sol\":678:997  function multicall(bytes[] calldata data) external virtual override returns (bytes[] memory results) {... */\n    tag_3:\n      tag_4\n      tag_5\n      calldatasize\n      0x04\n      tag_6\n      jump\t// in\n    tag_5:\n      tag_7\n      jump\t// in\n    tag_4:\n      mload(0x40)\n      tag_8\n      swap2\n      swap1\n      tag_9\n      jump\t// in\n    tag_8:\n      mload(0x40)\n      dup1\n      swap2\n      sub\n      swap1\n      return\n    tag_7:\n        /* \"extension/Multicall.sol\":755:777  bytes[] memory results */\n      0x60\n        /* \"extension/Multicall.sol\":811:815  data */\n      dup2\n        /* \"extension/Multicall.sol\":799:823  new bytes[](data.length) */\n      0xffffffffffffffff\n      dup2\n      gt\n      iszero\n      tag_12\n      jumpi\n      tag_12\n      tag_13\n      jump\t// in\n    tag_12:\n      mload(0x40)\n      swap1\n      dup1\n      dup3\n      mstore\n      dup1\n      0x20\n      mul\n      0x20\n      add\n      dup3\n      add\n      0x40\n      mstore\n      dup1\n      iszero\n      tag_14\n      jumpi\n      dup2\n      0x20\n      add\n    tag_15:\n      0x60\n      dup2\n      mstore\n      0x20\n      add\n      swap1\n      0x01\n      swap1\n      sub\n      swap1\n      dup2\n      tag_15\n      jumpi\n      swap1\n      pop\n    tag_14:\n      pop\n        /* \"extension/Multicall.sol\":789:823  results = new bytes[](data.length) */\n      swap1\n      pop\n        /* \"extension/Multicall.sol\":838:847  uint256 i */\n      0x00\n        /* \"extension/Multicall.sol\":833:967  for (uint256 i = 0; i < data.length; i++) {... */\n    tag_16:\n        /* \"extension/Multicall.sol\":853:868  i < data.length */\n      dup3\n      dup2\n      lt\n        /* \"extension/Multicall.sol\":833:967  for (uint256 i = 0; i < data.length; i++) {... */\n      iszero\n      tag_17\n      jumpi\n        /* \"extension/Multicall.sol\":902:956  TWAddress.functionDelegateCall(address(this), data[i]) */\n      tag_19\n        /* \"extension/Multicall.sol\":941:945  this */\n      address\n        /* \"extension/Multicall.sol\":948:952  data */\n      dup6\n      dup6\n        /* \"extension/Multicall.sol\":953:954  i */\n      dup5\n        /* \"extension/Multicall.sol\":948:955  data[i] */\n      dup2\n      dup2\n      lt\n      tag_21\n      jumpi\n      tag_21\n      tag_22\n      jump\t// in\n    tag_21:\n      swap1\n      pop\n      0x20\n      mul\n      dup2\n      add\n      swap1\n      tag_23\n      swap2\n      swap1\n      tag_24\n      jump\t// in\n    tag_23:\n        /* \"extension/Multicall.sol\":902:956  TWAddress.functionDelegateCall(address(this), data[i]) */\n      dup1\n      dup1\n      0x1f\n      add\n      0x20\n      dup1\n      swap2\n      div\n      mul\n      0x20\n      add\n      mload(0x40)\n      swap1\n      dup2\n      add\n      0x40\n      mstore\n      dup1\n      swap4\n      swap3\n      swap2\n      swap1\n      dup2\n      dup2\n      mstore\n      0x20\n      add\n      dup4\n      dup4\n      dup1\n      dup3\n      dup5\n      calldatacopy\n      0x00\n      swap3\n      add\n      swap2\n      swap1\n      swap2\n      mstore\n      pop\n        /* \"extension/Multicall.sol\":902:932  TWAddress.functionDelegateCall */\n      tag_25\n      swap3\n      pop\n      pop\n      pop\n        /* \"extension/Multicall.sol\":902:956  TWAddress.functionDelegateCall(address(this), data[i]) */\n      jump\t// in\n    tag_19:\n        /* \"extension/Multicall.sol\":889:896  results */\n      dup3\n        /* \"extension/Multicall.sol\":897:898  i */\n      dup3\n        /* \"extension/Multicall.sol\":889:899  results[i] */\n      dup2\n      mload\n      dup2\n      lt\n      tag_27\n      jumpi\n      tag_27\n      tag_22\n      jump\t// in\n    tag_27:\n      0x20\n      mul\n      0x20\n      add\n      add\n        /* \"extension/Multicall.sol\":889:956  results[i] = TWAddress.functionDelegateCall(address(this), data[i]) */\n      dup2\n      swap1\n      mstore\n      pop\n        /* \"extension/Multicall.sol\":870:873  i++ */\n      dup1\n      dup1\n      tag_28\n      swap1\n      tag_29\n      jump\t// in\n    tag_28:\n      swap2\n      pop\n      pop\n        /* \"extension/Multicall.sol\":833:967  for (uint256 i = 0; i < data.length; i++) {... */\n      jump(tag_16)\n    tag_17:\n      pop\n        /* \"extension/Multicall.sol\":678:997  function multicall(bytes[] calldata data) external virtual override returns (bytes[] memory results) {... */\n      swap3\n      swap2\n      pop\n      pop\n      jump\t// out\n        /* \"lib/TWAddress.sol\":6518:6716  function functionDelegateCall(address target, bytes memory data) internal returns (bytes memory) {... */\n    tag_25:\n        /* \"lib/TWAddress.sol\":6601:6613  bytes memory */\n      0x60\n        /* \"lib/TWAddress.sol\":6632:6709  functionDelegateCall(target, data, \"Address: low-level delegate call failed\") */\n      tag_31\n        /* \"lib/TWAddress.sol\":6653:6659  target */\n      dup4\n        /* \"lib/TWAddress.sol\":6661:6665  data */\n      dup4\n        /* \"lib/TWAddress.sol\":6632:6709  functionDelegateCall(target, data, \"Address: low-level delegate call failed\") */\n      mload(0x40)\n      dup1\n      0x60\n      add\n      0x40\n      mstore\n      dup1\n      0x27\n      dup2\n      mstore\n      0x20\n      add\n      data_9fdcd12e4b726339b32a442b0a448365d5d85c96b2d2cff917b4f66c63110398\n      0x27\n      swap2\n      codecopy\n        /* \"lib/TWAddress.sol\":6632:6652  functionDelegateCall */\n      tag_32\n        /* \"lib/TWAddress.sol\":6632:6709  functionDelegateCall(target, data, \"Address: low-level delegate call failed\") */\n      jump\t// in\n    tag_31:\n        /* \"lib/TWAddress.sol\":6625:6709  return functionDelegateCall(target, data, \"Address: low-level delegate call failed\") */\n      swap4\n        /* \"lib/TWAddress.sol\":6518:6716  function functionDelegateCall(address target, bytes memory data) internal returns (bytes memory) {... */\n      swap3\n      pop\n      pop\n      pop\n      jump\t// out\n        /* \"lib/TWAddress.sol\":6902:7289  function functionDelegateCall(... */\n    tag_32:\n        /* \"lib/TWAddress.sol\":7043:7055  bytes memory */\n      0x60\n      sub(shl(0xa0, 0x01), 0x01)\n        /* \"lib/TWAddress.sol\":1407:1426  account.code.length */\n      dup5\n      and\n      extcodesize\n        /* \"lib/TWAddress.sol\":7067:7136  require(isContract(target), \"Address: delegate call to non-contract\") */\n      tag_36\n      jumpi\n      mload(0x40)\n      shl(0xe5, 0x461bcd)\n      dup2\n      mstore\n        /* \"#utility.yul\":3204:3206   */\n      0x20\n        /* \"lib/TWAddress.sol\":7067:7136  require(isContract(target), \"Address: delegate call to non-contract\") */\n      0x04\n      dup3\n      add\n        /* \"#utility.yul\":3186:3207   */\n      mstore\n        /* \"#utility.yul\":3243:3245   */\n      0x26\n        /* \"#utility.yul\":3223:3241   */\n      0x24\n      dup3\n      add\n        /* \"#utility.yul\":3216:3246   */\n      mstore\n        /* \"#utility.yul\":3282:3316   */\n      0x416464726573733a2064656c65676174652063616c6c20746f206e6f6e2d636f\n        /* \"#utility.yul\":3262:3280   */\n      0x44\n      dup3\n      add\n        /* \"#utility.yul\":3255:3317   */\n      mstore\n      shl(0xd2, 0x1b9d1c9858dd)\n        /* \"#utility.yul\":3333:3351   */\n      0x64\n      dup3\n      add\n        /* \"#utility.yul\":3326:3362   */\n      mstore\n        /* \"#utility.yul\":3379:3398   */\n      0x84\n      add\n        /* \"lib/TWAddress.sol\":7067:7136  require(isContract(target), \"Address: delegate call to non-contract\") */\n    tag_37:\n      mload(0x40)\n      dup1\n      swap2\n      sub\n      swap1\n      revert\n    tag_36:\n        /* \"lib/TWAddress.sol\":7148:7160  bool success */\n      0x00\n        /* \"lib/TWAddress.sol\":7162:7185  bytes memory returndata */\n      dup1\n        /* \"lib/TWAddress.sol\":7189:7195  target */\n      dup6\n      sub(shl(0xa0, 0x01), 0x01)\n        /* \"lib/TWAddress.sol\":7189:7208  target.delegatecall */\n      and\n        /* \"lib/TWAddress.sol\":7209:7213  data */\n      dup6\n        /* \"lib/TWAddress.sol\":7189:7214  target.delegatecall(data) */\n      mload(0x40)\n      tag_39\n      swap2\n      swap1\n      tag_40\n      jump\t// in\n    tag_39:\n      0x00\n      mload(0x40)\n      dup1\n      dup4\n      sub\n      dup2\n      dup6\n      gas\n      delegatecall\n      swap2\n      pop\n      pop\n      returndatasize\n      dup1\n      0x00\n      dup2\n      eq\n      tag_43\n      jumpi\n      mload(0x40)\n      swap2\n      pop\n      and(add(returndatasize, 0x3f), not(0x1f))\n      dup3\n      add\n      0x40\n      mstore\n      returndatasize\n      dup3\n      mstore\n      returndatasize\n      0x00\n      0x20\n      dup5\n      add\n      returndatacopy\n      jump(tag_42)\n    tag_43:\n      0x60\n      swap2\n      pop\n    tag_42:\n      pop\n        /* \"lib/TWAddress.sol\":7147:7214  (bool success, bytes memory returndata) = target.delegatecall(data) */\n      swap2\n      pop\n      swap2\n      pop\n        /* \"lib/TWAddress.sol\":7231:7282  verifyCallResult(success, returndata, errorMessage) */\n      tag_44\n        /* \"lib/TWAddress.sol\":7248:7255  success */\n      dup3\n        /* \"lib/TWAddress.sol\":7257:7267  returndata */\n      dup3\n        /* \"lib/TWAddress.sol\":7269:7281  errorMessage */\n      dup7\n        /* \"lib/TWAddress.sol\":7231:7247  verifyCallResult */\n      tag_45\n        /* \"lib/TWAddress.sol\":7231:7282  verifyCallResult(success, returndata, errorMessage) */\n      jump\t// in\n    tag_44:\n        /* \"lib/TWAddress.sol\":7224:7282  return verifyCallResult(success, returndata, errorMessage) */\n      swap7\n        /* \"lib/TWAddress.sol\":6902:7289  function functionDelegateCall(... */\n      swap6\n      pop\n      pop\n      pop\n      pop\n      pop\n      pop\n      jump\t// out\n        /* \"lib/TWAddress.sol\":7509:8201  function verifyCallResult(... */\n    tag_45:\n        /* \"lib/TWAddress.sol\":7655:7667  bytes memory */\n      0x60\n        /* \"lib/TWAddress.sol\":7683:7690  success */\n      dup4\n        /* \"lib/TWAddress.sol\":7679:8195  if (success) {... */\n      iszero\n      tag_48\n      jumpi\n      pop\n        /* \"lib/TWAddress.sol\":7713:7723  returndata */\n      dup2\n        /* \"lib/TWAddress.sol\":7706:7723  return returndata */\n      jump(tag_31)\n        /* \"lib/TWAddress.sol\":7679:8195  if (success) {... */\n    tag_48:\n        /* \"lib/TWAddress.sol\":7824:7841  returndata.length */\n      dup3\n      mload\n        /* \"lib/TWAddress.sol\":7824:7845  returndata.length > 0 */\n      iszero\n        /* \"lib/TWAddress.sol\":7820:8185  if (returndata.length > 0) {... */\n      tag_50\n      jumpi\n        /* \"lib/TWAddress.sol\":8018:8028  returndata */\n      dup3\n        /* \"lib/TWAddress.sol\":8012:8029  mload(returndata) */\n      mload\n        /* \"lib/TWAddress.sol\":8078:8093  returndata_size */\n      dup1\n        /* \"lib/TWAddress.sol\":8065:8075  returndata */\n      dup5\n        /* \"lib/TWAddress.sol\":8061:8063  32 */\n      0x20\n        /* \"lib/TWAddress.sol\":8057:8076  add(32, returndata) */\n      add\n        /* \"lib/TWAddress.sol\":8050:8094  revert(add(32, returndata), returndata_size) */\n      revert\n        /* \"lib/TWAddress.sol\":7820:8185  if (returndata.length > 0) {... */\n    tag_50:\n        /* \"lib/TWAddress.sol\":8157:8169  errorMessage */\n      dup2\n        /* \"lib/TWAddress.sol\":8150:8170  revert(errorMessage) */\n      mload(0x40)\n      shl(0xe5, 0x461bcd)\n      dup2\n      mstore\n      0x04\n      add\n      tag_37\n      swap2\n      swap1\n      tag_53\n      jump\t// in\n        /* \"#utility.yul\":14:640   */\n    tag_6:\n        /* \"#utility.yul\":111:117   */\n      0x00\n        /* \"#utility.yul\":119:125   */\n      dup1\n        /* \"#utility.yul\":172:174   */\n      0x20\n        /* \"#utility.yul\":160:169   */\n      dup4\n        /* \"#utility.yul\":151:158   */\n      dup6\n        /* \"#utility.yul\":147:170   */\n      sub\n        /* \"#utility.yul\":143:175   */\n      slt\n        /* \"#utility.yul\":140:192   */\n      iszero\n      tag_58\n      jumpi\n        /* \"#utility.yul\":188:189   */\n      0x00\n        /* \"#utility.yul\":185:186   */\n      dup1\n        /* \"#utility.yul\":178:190   */\n      revert\n        /* \"#utility.yul\":140:192   */\n    tag_58:\n        /* \"#utility.yul\":228:237   */\n      dup3\n        /* \"#utility.yul\":215:238   */\n      calldataload\n        /* \"#utility.yul\":257:275   */\n      0xffffffffffffffff\n        /* \"#utility.yul\":298:300   */\n      dup1\n        /* \"#utility.yul\":290:296   */\n      dup3\n        /* \"#utility.yul\":287:301   */\n      gt\n        /* \"#utility.yul\":284:318   */\n      iszero\n      tag_59\n      jumpi\n        /* \"#utility.yul\":314:315   */\n      0x00\n        /* \"#utility.yul\":311:312   */\n      dup1\n        /* \"#utility.yul\":304:316   */\n      revert\n        /* \"#utility.yul\":284:318   */\n    tag_59:\n        /* \"#utility.yul\":352:358   */\n      dup2\n        /* \"#utility.yul\":341:350   */\n      dup6\n        /* \"#utility.yul\":337:359   */\n      add\n        /* \"#utility.yul\":327:359   */\n      swap2\n      pop\n        /* \"#utility.yul\":397:404   */\n      dup6\n        /* \"#utility.yul\":390:394   */\n      0x1f\n        /* \"#utility.yul\":386:388   */\n      dup4\n        /* \"#utility.yul\":382:395   */\n      add\n        /* \"#utility.yul\":378:405   */\n      slt\n        /* \"#utility.yul\":368:423   */\n      tag_60\n      jumpi\n        /* \"#utility.yul\":419:420   */\n      0x00\n        /* \"#utility.yul\":416:417   */\n      dup1\n        /* \"#utility.yul\":409:421   */\n      revert\n        /* \"#utility.yul\":368:423   */\n    tag_60:\n        /* \"#utility.yul\":459:461   */\n      dup2\n        /* \"#utility.yul\":446:462   */\n      calldataload\n        /* \"#utility.yul\":485:487   */\n      dup2\n        /* \"#utility.yul\":477:483   */\n      dup2\n        /* \"#utility.yul\":474:488   */\n      gt\n        /* \"#utility.yul\":471:505   */\n      iszero\n      tag_61\n      jumpi\n        /* \"#utility.yul\":501:502   */\n      0x00\n        /* \"#utility.yul\":498:499   */\n      dup1\n        /* \"#utility.yul\":491:503   */\n      revert\n        /* \"#utility.yul\":471:505   */\n    tag_61:\n        /* \"#utility.yul\":554:561   */\n      dup7\n        /* \"#utility.yul\":549:551   */\n      0x20\n        /* \"#utility.yul\":539:545   */\n      dup3\n        /* \"#utility.yul\":536:537   */\n      0x05\n        /* \"#utility.yul\":532:546   */\n      shl\n        /* \"#utility.yul\":528:530   */\n      dup6\n        /* \"#utility.yul\":524:547   */\n      add\n        /* \"#utility.yul\":520:552   */\n      add\n        /* \"#utility.yul\":517:562   */\n      gt\n        /* \"#utility.yul\":514:579   */\n      iszero\n      tag_62\n      jumpi\n        /* \"#utility.yul\":575:576   */\n      0x00\n        /* \"#utility.yul\":572:573   */\n      dup1\n        /* \"#utility.yul\":565:577   */\n      revert\n        /* \"#utility.yul\":514:579   */\n    tag_62:\n        /* \"#utility.yul\":606:608   */\n      0x20\n        /* \"#utility.yul\":598:609   */\n      swap3\n      swap1\n      swap3\n      add\n      swap7\n        /* \"#utility.yul\":628:634   */\n      swap2\n      swap6\n      pop\n        /* \"#utility.yul\":14:640   */\n      swap1\n      swap4\n      pop\n      pop\n      pop\n      pop\n      jump\t// out\n        /* \"#utility.yul\":645:903   */\n    tag_54:\n        /* \"#utility.yul\":717:718   */\n      0x00\n        /* \"#utility.yul\":727:840   */\n    tag_64:\n        /* \"#utility.yul\":741:747   */\n      dup4\n        /* \"#utility.yul\":738:739   */\n      dup2\n        /* \"#utility.yul\":735:748   */\n      lt\n        /* \"#utility.yul\":727:840   */\n      iszero\n      tag_66\n      jumpi\n        /* \"#utility.yul\":817:828   */\n      dup2\n      dup2\n      add\n        /* \"#utility.yul\":811:829   */\n      mload\n        /* \"#utility.yul\":798:809   */\n      dup4\n      dup3\n      add\n        /* \"#utility.yul\":791:830   */\n      mstore\n        /* \"#utility.yul\":763:765   */\n      0x20\n        /* \"#utility.yul\":756:766   */\n      add\n        /* \"#utility.yul\":727:840   */\n      jump(tag_64)\n    tag_66:\n        /* \"#utility.yul\":858:864   */\n      dup4\n        /* \"#utility.yul\":855:856   */\n      dup2\n        /* \"#utility.yul\":852:865   */\n      gt\n        /* \"#utility.yul\":849:897   */\n      iszero\n      tag_67\n      jumpi\n        /* \"#utility.yul\":893:894   */\n      0x00\n        /* \"#utility.yul\":884:890   */\n      dup5\n        /* \"#utility.yul\":879:882   */\n      dup5\n        /* \"#utility.yul\":875:891   */\n      add\n        /* \"#utility.yul\":868:895   */\n      mstore\n        /* \"#utility.yul\":849:897   */\n    tag_67:\n      pop\n        /* \"#utility.yul\":645:903   */\n      pop\n      pop\n      pop\n      jump\t// out\n        /* \"#utility.yul\":908:1165   */\n    tag_55:\n        /* \"#utility.yul\":949:952   */\n      0x00\n        /* \"#utility.yul\":987:992   */\n      dup2\n        /* \"#utility.yul\":981:993   */\n      mload\n        /* \"#utility.yul\":1014:1020   */\n      dup1\n        /* \"#utility.yul\":1009:1012   */\n      dup5\n        /* \"#utility.yul\":1002:1021   */\n      mstore\n        /* \"#utility.yul\":1030:1093   */\n      tag_69\n        /* \"#utility.yul\":1086:1092   */\n      dup2\n        /* \"#utility.yul\":1079:1083   */\n      0x20\n        /* \"#utility.yul\":1074:1077   */\n      dup7\n        /* \"#utility.yul\":1070:1084   */\n      add\n        /* \"#utility.yul\":1063:1067   */\n      0x20\n        /* \"#utility.yul\":1056:1061   */\n      dup7\n        /* \"#utility.yul\":1052:1068   */\n      add\n        /* \"#utility.yul\":1030:1093   */\n      tag_54\n      jump\t// in\n    tag_69:\n        /* \"#utility.yul\":1147:1149   */\n      0x1f\n        /* \"#utility.yul\":1126:1141   */\n      add\n      not(0x1f)\n        /* \"#utility.yul\":1122:1151   */\n      and\n        /* \"#utility.yul\":1113:1152   */\n      swap3\n      swap1\n      swap3\n      add\n        /* \"#utility.yul\":1154:1158   */\n      0x20\n        /* \"#utility.yul\":1109:1159   */\n      add\n      swap3\n        /* \"#utility.yul\":908:1165   */\n      swap2\n      pop\n      pop\n      jump\t// out\n        /* \"#utility.yul\":1170:1970   */\n    tag_9:\n        /* \"#utility.yul\":1330:1334   */\n      0x00\n        /* \"#utility.yul\":1359:1361   */\n      0x20\n        /* \"#utility.yul\":1399:1401   */\n      dup1\n        /* \"#utility.yul\":1388:1397   */\n      dup4\n        /* \"#utility.yul\":1384:1402   */\n      add\n        /* \"#utility.yul\":1429:1431   */\n      dup2\n        /* \"#utility.yul\":1418:1427   */\n      dup5\n        /* \"#utility.yul\":1411:1432   */\n      mstore\n        /* \"#utility.yul\":1452:1458   */\n      dup1\n        /* \"#utility.yul\":1487:1493   */\n      dup6\n        /* \"#utility.yul\":1481:1494   */\n      mload\n        /* \"#utility.yul\":1518:1524   */\n      dup1\n        /* \"#utility.yul\":1510:1516   */\n      dup4\n        /* \"#utility.yul\":1503:1525   */\n      mstore\n        /* \"#utility.yul\":1556:1558   */\n      0x40\n        /* \"#utility.yul\":1545:1554   */\n      dup7\n        /* \"#utility.yul\":1541:1559   */\n      add\n        /* \"#utility.yul\":1534:1559   */\n      swap2\n      pop\n        /* \"#utility.yul\":1618:1620   */\n      0x40\n        /* \"#utility.yul\":1608:1614   */\n      dup2\n        /* \"#utility.yul\":1605:1606   */\n      0x05\n        /* \"#utility.yul\":1601:1615   */\n      shl\n        /* \"#utility.yul\":1590:1599   */\n      dup8\n        /* \"#utility.yul\":1586:1616   */\n      add\n        /* \"#utility.yul\":1582:1621   */\n      add\n        /* \"#utility.yul\":1568:1621   */\n      swap3\n      pop\n        /* \"#utility.yul\":1656:1658   */\n      dup4\n        /* \"#utility.yul\":1648:1654   */\n      dup8\n        /* \"#utility.yul\":1644:1659   */\n      add\n        /* \"#utility.yul\":1677:1678   */\n      0x00\n        /* \"#utility.yul\":1687:1941   */\n    tag_71:\n        /* \"#utility.yul\":1701:1707   */\n      dup3\n        /* \"#utility.yul\":1698:1699   */\n      dup2\n        /* \"#utility.yul\":1695:1708   */\n      lt\n        /* \"#utility.yul\":1687:1941   */\n      iszero\n      tag_73\n      jumpi\n        /* \"#utility.yul\":1794:1796   */\n      0x3f\n        /* \"#utility.yul\":1790:1797   */\n      not\n        /* \"#utility.yul\":1778:1787   */\n      dup9\n        /* \"#utility.yul\":1770:1776   */\n      dup7\n        /* \"#utility.yul\":1766:1788   */\n      sub\n        /* \"#utility.yul\":1762:1798   */\n      add\n        /* \"#utility.yul\":1757:1760   */\n      dup5\n        /* \"#utility.yul\":1750:1799   */\n      mstore\n        /* \"#utility.yul\":1822:1861   */\n      tag_74\n        /* \"#utility.yul\":1854:1860   */\n      dup6\n        /* \"#utility.yul\":1845:1851   */\n      dup4\n        /* \"#utility.yul\":1839:1852   */\n      mload\n        /* \"#utility.yul\":1822:1861   */\n      tag_55\n      jump\t// in\n    tag_74:\n        /* \"#utility.yul\":1812:1861   */\n      swap5\n      pop\n        /* \"#utility.yul\":1919:1931   */\n      swap3\n      dup6\n      add\n      swap3\n        /* \"#utility.yul\":1884:1899   */\n      swap1\n      dup6\n      add\n      swap1\n        /* \"#utility.yul\":1723:1724   */\n      0x01\n        /* \"#utility.yul\":1716:1725   */\n      add\n        /* \"#utility.yul\":1687:1941   */\n      jump(tag_71)\n    tag_73:\n      pop\n        /* \"#utility.yul\":1958:1964   */\n      swap3\n      swap8\n        /* \"#utility.yul\":1170:1970   */\n      swap7\n      pop\n      pop\n      pop\n      pop\n      pop\n      pop\n      pop\n      jump\t// out\n        /* \"#utility.yul\":1975:2102   */\n    tag_13:\n        /* \"#utility.yul\":2036:2046   */\n      0x4e487b71\n        /* \"#utility.yul\":2031:2034   */\n      0xe0\n        /* \"#utility.yul\":2027:2047   */\n      shl\n        /* \"#utility.yul\":2024:2025   */\n      0x00\n        /* \"#utility.yul\":2017:2048   */\n      mstore\n        /* \"#utility.yul\":2067:2071   */\n      0x41\n        /* \"#utility.yul\":2064:2065   */\n      0x04\n        /* \"#utility.yul\":2057:2072   */\n      mstore\n        /* \"#utility.yul\":2091:2095   */\n      0x24\n        /* \"#utility.yul\":2088:2089   */\n      0x00\n        /* \"#utility.yul\":2081:2096   */\n      revert\n        /* \"#utility.yul\":2107:2234   */\n    tag_22:\n        /* \"#utility.yul\":2168:2178   */\n      0x4e487b71\n        /* \"#utility.yul\":2163:2166   */\n      0xe0\n        /* \"#utility.yul\":2159:2179   */\n      shl\n        /* \"#utility.yul\":2156:2157   */\n      0x00\n        /* \"#utility.yul\":2149:2180   */\n      mstore\n        /* \"#utility.yul\":2199:2203   */\n      0x32\n        /* \"#utility.yul\":2196:2197   */\n      0x04\n        /* \"#utility.yul\":2189:2204   */\n      mstore\n        /* \"#utility.yul\":2223:2227   */\n      0x24\n        /* \"#utility.yul\":2220:2221   */\n      0x00\n        /* \"#utility.yul\":2213:2228   */\n      revert\n        /* \"#utility.yul\":2239:2760   */\n    tag_24:\n        /* \"#utility.yul\":2316:2320   */\n      0x00\n        /* \"#utility.yul\":2322:2328   */\n      dup1\n        /* \"#utility.yul\":2382:2393   */\n      dup4\n        /* \"#utility.yul\":2369:2394   */\n      calldataload\n        /* \"#utility.yul\":2476:2478   */\n      0x1e\n        /* \"#utility.yul\":2472:2479   */\n      not\n        /* \"#utility.yul\":2461:2469   */\n      dup5\n        /* \"#utility.yul\":2445:2459   */\n      calldatasize\n        /* \"#utility.yul\":2441:2470   */\n      sub\n        /* \"#utility.yul\":2437:2480   */\n      add\n        /* \"#utility.yul\":2417:2435   */\n      dup2\n        /* \"#utility.yul\":2413:2481   */\n      slt\n        /* \"#utility.yul\":2403:2499   */\n      tag_78\n      jumpi\n        /* \"#utility.yul\":2495:2496   */\n      0x00\n        /* \"#utility.yul\":2492:2493   */\n      dup1\n        /* \"#utility.yul\":2485:2497   */\n      revert\n        /* \"#utility.yul\":2403:2499   */\n    tag_78:\n        /* \"#utility.yul\":2522:2555   */\n      dup4\n      add\n        /* \"#utility.yul\":2574:2594   */\n      dup1\n      calldataload\n      swap2\n      pop\n        /* \"#utility.yul\":2617:2635   */\n      0xffffffffffffffff\n        /* \"#utility.yul\":2606:2636   */\n      dup3\n      gt\n        /* \"#utility.yul\":2603:2653   */\n      iszero\n      tag_79\n      jumpi\n        /* \"#utility.yul\":2649:2650   */\n      0x00\n        /* \"#utility.yul\":2646:2647   */\n      dup1\n        /* \"#utility.yul\":2639:2651   */\n      revert\n        /* \"#utility.yul\":2603:2653   */\n    tag_79:\n        /* \"#utility.yul\":2682:2686   */\n      0x20\n        /* \"#utility.yul\":2670:2687   */\n      add\n      swap2\n      pop\n        /* \"#utility.yul\":2713:2727   */\n      calldatasize\n        /* \"#utility.yul\":2709:2736   */\n      dup2\n      swap1\n      sub\n        /* \"#utility.yul\":2699:2737   */\n      dup3\n      sgt\n        /* \"#utility.yul\":2696:2754   */\n      iszero\n      tag_80\n      jumpi\n        /* \"#utility.yul\":2750:2751   */\n      0x00\n        /* \"#utility.yul\":2747:2748   */\n      dup1\n        /* \"#utility.yul\":2740:2752   */\n      revert\n        /* \"#utility.yul\":2696:2754   */\n    tag_80:\n        /* \"#utility.yul\":2239:2760   */\n      swap3\n      pop\n      swap3\n      swap1\n      pop\n      jump\t// out\n        /* \"#utility.yul\":2765:2997   */\n    tag_29:\n        /* \"#utility.yul\":2804:2807   */\n      0x00\n      not(0x00)\n        /* \"#utility.yul\":2825:2842   */\n      dup3\n      eq\n        /* \"#utility.yul\":2822:2962   */\n      iszero\n      tag_82\n      jumpi\n        /* \"#utility.yul\":2884:2894   */\n      0x4e487b71\n        /* \"#utility.yul\":2879:2882   */\n      0xe0\n        /* \"#utility.yul\":2875:2895   */\n      shl\n        /* \"#utility.yul\":2872:2873   */\n      0x00\n        /* \"#utility.yul\":2865:2896   */\n      mstore\n        /* \"#utility.yul\":2919:2923   */\n      0x11\n        /* \"#utility.yul\":2916:2917   */\n      0x04\n        /* \"#utility.yul\":2909:2924   */\n      mstore\n        /* \"#utility.yul\":2947:2951   */\n      0x24\n        /* \"#utility.yul\":2944:2945   */\n      0x00\n        /* \"#utility.yul\":2937:2952   */\n      revert\n        /* \"#utility.yul\":2822:2962   */\n    tag_82:\n      pop\n        /* \"#utility.yul\":2989:2990   */\n      0x01\n        /* \"#utility.yul\":2978:2991   */\n      add\n      swap1\n        /* \"#utility.yul\":2765:2997   */\n      jump\t// out\n        /* \"#utility.yul\":3409:3683   */\n    tag_40:\n        /* \"#utility.yul\":3538:3541   */\n      0x00\n        /* \"#utility.yul\":3576:3582   */\n      dup3\n        /* \"#utility.yul\":3570:3583   */\n      mload\n        /* \"#utility.yul\":3592:3645   */\n      tag_85\n        /* \"#utility.yul\":3638:3644   */\n      dup2\n        /* \"#utility.yul\":3633:3636   */\n      dup5\n        /* \"#utility.yul\":3626:3630   */\n      0x20\n        /* \"#utility.yul\":3618:3624   */\n      dup8\n        /* \"#utility.yul\":3614:3631   */\n      add\n        /* \"#utility.yul\":3592:3645   */\n      tag_54\n      jump\t// in\n    tag_85:\n        /* \"#utility.yul\":3661:3677   */\n      swap2\n      swap1\n      swap2\n      add\n      swap3\n        /* \"#utility.yul\":3409:3683   */\n      swap2\n      pop\n      pop\n      jump\t// out\n        /* \"#utility.yul\":3688:3907   */\n    tag_53:\n        /* \"#utility.yul\":3837:3839   */\n      0x20\n        /* \"#utility.yul\":3826:3835   */\n      dup2\n        /* \"#utility.yul\":3819:3840   */\n      mstore\n        /* \"#utility.yul\":3800:3804   */\n      0x00\n        /* \"#utility.yul\":3857:3901   */\n      tag_31\n        /* \"#utility.yul\":3897:3899   */\n      0x20\n        /* \"#utility.yul\":3886:3895   */\n      dup4\n        /* \"#utility.yul\":3882:3900   */\n      add\n        /* \"#utility.yul\":3874:3880   */\n      dup5\n        /* \"#utility.yul\":3857:3901   */\n      tag_55\n      jump\t// in\n    stop\n    data_9fdcd12e4b726339b32a442b0a448365d5d85c96b2d2cff917b4f66c63110398 416464726573733a206c6f772d6c6576656c2064656c65676174652063616c6c206661696c6564\n\n    auxdata: 0xa264697066735822122081522307a49f495ce59744dd95b8bea4d9386d2cd47a271cfc2824f9736d24fe64736f6c634300080b0033\n}\n",
				"bytecode": {
					"linkReferences": {},
					"object": "608060405234801561001057600080fd5b506104f7806100206000396000f3fe608060405234801561001057600080fd5b506004361061002b5760003560e01c8063ac9650d814610030575b600080fd5b61004361003e366004610295565b610059565b6040516100509190610366565b60405180910390f35b60608167ffffffffffffffff811115610074576100746103c8565b6040519080825280602002602001820160405280156100a757816020015b60608152602001906001900390816100925790505b50905060005b8281101561014757610117308585848181106100cb576100cb6103de565b90506020028101906100dd91906103f4565b8080601f01602080910402602001604051908101604052809392919081815260200183838082843760009201919091525061014e92505050565b828281518110610129576101296103de565b6020026020010181905250808061013f90610442565b9150506100ad565b5092915050565b6060610173838360405180606001604052806027815260200161049b6027913961017a565b9392505050565b60606001600160a01b0384163b6101e75760405162461bcd60e51b815260206004820152602660248201527f416464726573733a2064656c65676174652063616c6c20746f206e6f6e2d636f6044820152651b9d1c9858dd60d21b60648201526084015b60405180910390fd5b600080856001600160a01b031685604051610202919061046b565b600060405180830381855af49150503d806000811461023d576040519150601f19603f3d011682016040523d82523d6000602084013e610242565b606091505b509150915061025282828661025c565b9695505050505050565b6060831561026b575081610173565b82511561027b5782518084602001fd5b8160405162461bcd60e51b81526004016101de9190610487565b600080602083850312156102a857600080fd5b823567ffffffffffffffff808211156102c057600080fd5b818501915085601f8301126102d457600080fd5b8135818111156102e357600080fd5b8660208260051b85010111156102f857600080fd5b60209290920196919550909350505050565b60005b8381101561032557818101518382015260200161030d565b83811115610334576000848401525b50505050565b6000815180845261035281602086016020860161030a565b601f01601f19169290920160200192915050565b6000602080830181845280855180835260408601915060408160051b870101925083870160005b828110156103bb57603f198886030184526103a985835161033a565b9450928501929085019060010161038d565b5092979650505050505050565b634e487b7160e01b600052604160045260246000fd5b634e487b7160e01b600052603260045260246000fd5b6000808335601e1984360301811261040b57600080fd5b83018035915067ffffffffffffffff82111561042657600080fd5b60200191503681900382131561043b57600080fd5b9250929050565b600060001982141561046457634e487b7160e01b600052601160045260246000fd5b5060010190565b6000825161047d81846020870161030a565b9190910192915050565b602081526000610173602083018461033a56fe416464726573733a206c6f772d6c6576656c2064656c65676174652063616c6c206661696c6564a264697066735822122081522307a49f495ce59744dd95b8bea4d9386d2cd47a271cfc2824f9736d24fe64736f6c634300080b0033",
					"opcodes": "PUSH1 0x80 PUSH1 0x40 MSTORE CALLVALUE DUP1 ISZERO PUSH2 0x10 JUMPI PUSH1 0x0 DUP1 REVERT JUMPDEST POP PUSH2 0x4F7 DUP1 PUSH2 0x20 PUSH1 0x0 CODECOPY PUSH1 0x0 RETURN INVALID PUSH1 0x80 PUSH1 0x40 MSTORE CALLVALUE DUP1 ISZERO PUSH2 0x10 JUMPI PUSH1 0x0 DUP1 REVERT JUMPDEST POP PUSH1 0x4 CALLDATASIZE LT PUSH2 0x2B JUMPI PUSH1 0x0 CALLDATALOAD PUSH1 0xE0 SHR DUP1 PUSH4 0xAC9650D8 EQ PUSH2 0x30 JUMPI JUMPDEST PUSH1 0x0 DUP1 REVERT JUMPDEST PUSH2 0x43 PUSH2 0x3E CALLDATASIZE PUSH1 0x4 PUSH2 0x295 JUMP JUMPDEST PUSH2 0x59 JUMP JUMPDEST PUSH1 0x40 MLOAD PUSH2 0x50 SWAP2 SWAP1 PUSH2 0x366 JUMP JUMPDEST PUSH1 0x40 MLOAD DUP1 SWAP2 SUB SWAP1 RETURN JUMPDEST PUSH1 0x60 DUP2 PUSH8 0xFFFFFFFFFFFFFFFF DUP2 GT ISZERO PUSH2 0x74 JUMPI PUSH2 0x74 PUSH2 0x3C8 JUMP JUMPDEST PUSH1 0x40 MLOAD SWAP1 DUP1 DUP3 MSTORE DUP1 PUSH1 0x20 MUL PUSH1 0x20 ADD DUP3 ADD PUSH1 0x40 MSTORE DUP1 ISZERO PUSH2 0xA7 JUMPI DUP2 PUSH1 0x20 ADD JUMPDEST PUSH1 0x60 DUP2 MSTORE PUSH1 0x20 ADD SWAP1 PUSH1 0x1 SWAP1 SUB SWAP1 DUP2 PUSH2 0x92 JUMPI SWAP1 POP JUMPDEST POP SWAP1 POP PUSH1 0x0 JUMPDEST DUP3 DUP2 LT ISZERO PUSH2 0x147 JUMPI PUSH2 0x117 ADDRESS DUP6 DUP6 DUP5 DUP2 DUP2 LT PUSH2 0xCB JUMPI PUSH2 0xCB PUSH2 0x3DE JUMP JUMPDEST SWAP1 POP PUSH1 0x20 MUL DUP2 ADD SWAP1 PUSH2 0xDD SWAP2 SWAP1 PUSH2 0x3F4 JUMP JUMPDEST DUP1 DUP1 PUSH1 0x1F ADD PUSH1 0x20 DUP1 SWAP2 DIV MUL PUSH1 0x20 ADD PUSH1 0x40 MLOAD SWAP1 DUP2 ADD PUSH1 0x40 MSTORE DUP1 SWAP4 SWAP3 SWAP2 SWAP1 DUP2 DUP2 MSTORE PUSH1 0x20 ADD DUP4 DUP4 DUP1 DUP3 DUP5 CALLDATACOPY PUSH1 0x0 SWAP3 ADD SWAP2 SWAP1 SWAP2 MSTORE POP PUSH2 0x14E SWAP3 POP POP POP JUMP JUMPDEST DUP3 DUP3 DUP2 MLOAD DUP2 LT PUSH2 0x129 JUMPI PUSH2 0x129 PUSH2 0x3DE JUMP JUMPDEST PUSH1 0x20 MUL PUSH1 0x20 ADD ADD DUP2 SWAP1 MSTORE POP DUP1 DUP1 PUSH2 0x13F SWAP1 PUSH2 0x442 JUMP JUMPDEST SWAP2 POP POP PUSH2 0xAD JUMP JUMPDEST POP SWAP3 SWAP2 POP POP JUMP JUMPDEST PUSH1 0x60 PUSH2 0x173 DUP4 DUP4 PUSH1 0x40 MLOAD DUP1 PUSH1 0x60 ADD PUSH1 0x40 MSTORE DUP1 PUSH1 0x27 DUP2 MSTORE PUSH1 0x20 ADD PUSH2 0x49B PUSH1 0x27 SWAP2 CODECOPY PUSH2 0x17A JUMP JUMPDEST SWAP4 SWAP3 POP POP POP JUMP JUMPDEST PUSH1 0x60 PUSH1 0x1 PUSH1 0x1 PUSH1 0xA0 SHL SUB DUP5 AND EXTCODESIZE PUSH2 0x1E7 JUMPI PUSH1 0x40 MLOAD PUSH3 0x461BCD PUSH1 0xE5 SHL DUP2 MSTORE PUSH1 0x20 PUSH1 0x4 DUP3 ADD MSTORE PUSH1 0x26 PUSH1 0x24 DUP3 ADD MSTORE PUSH32 0x416464726573733A2064656C65676174652063616C6C20746F206E6F6E2D636F PUSH1 0x44 DUP3 ADD MSTORE PUSH6 0x1B9D1C9858DD PUSH1 0xD2 SHL PUSH1 0x64 DUP3 ADD MSTORE PUSH1 0x84 ADD JUMPDEST PUSH1 0x40 MLOAD DUP1 SWAP2 SUB SWAP1 REVERT JUMPDEST PUSH1 0x0 DUP1 DUP6 PUSH1 0x1 PUSH1 0x1 PUSH1 0xA0 SHL SUB AND DUP6 PUSH1 0x40 MLOAD PUSH2 0x202 SWAP2 SWAP1 PUSH2 0x46B JUMP JUMPDEST PUSH1 0x0 PUSH1 0x40 MLOAD DUP1 DUP4 SUB DUP2 DUP6 GAS DELEGATECALL SWAP2 POP POP RETURNDATASIZE DUP1 PUSH1 0x0 DUP2 EQ PUSH2 0x23D JUMPI PUSH1 0x40 MLOAD SWAP2 POP PUSH1 0x1F NOT PUSH1 0x3F RETURNDATASIZE ADD AND DUP3 ADD PUSH1 0x40 MSTORE RETURNDATASIZE DUP3 MSTORE RETURNDATASIZE PUSH1 0x0 PUSH1 0x20 DUP5 ADD RETURNDATACOPY PUSH2 0x242 JUMP JUMPDEST PUSH1 0x60 SWAP2 POP JUMPDEST POP SWAP2 POP SWAP2 POP PUSH2 0x252 DUP3 DUP3 DUP7 PUSH2 0x25C JUMP JUMPDEST SWAP7 SWAP6 POP POP POP POP POP POP JUMP JUMPDEST PUSH1 0x60 DUP4 ISZERO PUSH2 0x26B JUMPI POP DUP2 PUSH2 0x173 JUMP JUMPDEST DUP3 MLOAD ISZERO PUSH2 0x27B JUMPI DUP3 MLOAD DUP1 DUP5 PUSH1 0x20 ADD REVERT JUMPDEST DUP2 PUSH1 0x40 MLOAD PUSH3 0x461BCD PUSH1 0xE5 SHL DUP2 MSTORE PUSH1 0x4 ADD PUSH2 0x1DE SWAP2 SWAP1 PUSH2 0x487 JUMP JUMPDEST PUSH1 0x0 DUP1 PUSH1 0x20 DUP4 DUP6 SUB SLT ISZERO PUSH2 0x2A8 JUMPI PUSH1 0x0 DUP1 REVERT JUMPDEST DUP3 CALLDATALOAD PUSH8 0xFFFFFFFFFFFFFFFF DUP1 DUP3 GT ISZERO PUSH2 0x2C0 JUMPI PUSH1 0x0 DUP1 REVERT JUMPDEST DUP2 DUP6 ADD SWAP2 POP DUP6 PUSH1 0x1F DUP4 ADD SLT PUSH2 0x2D4 JUMPI PUSH1 0x0 DUP1 REVERT JUMPDEST DUP2 CALLDATALOAD DUP2 DUP2 GT ISZERO PUSH2 0x2E3 JUMPI PUSH1 0x0 DUP1 REVERT JUMPDEST DUP7 PUSH1 0x20 DUP3 PUSH1 0x5 SHL DUP6 ADD ADD GT ISZERO PUSH2 0x2F8 JUMPI PUSH1 0x0 DUP1 REVERT JUMPDEST PUSH1 0x20 SWAP3 SWAP1 SWAP3 ADD SWAP7 SWAP2 SWAP6 POP SWAP1 SWAP4 POP POP POP POP JUMP JUMPDEST PUSH1 0x0 JUMPDEST DUP4 DUP2 LT ISZERO PUSH2 0x325 JUMPI DUP2 DUP2 ADD MLOAD DUP4 DUP3 ADD MSTORE PUSH1 0x20 ADD PUSH2 0x30D JUMP JUMPDEST DUP4 DUP2 GT ISZERO PUSH2 0x334 JUMPI PUSH1 0x0 DUP5 DUP5 ADD MSTORE JUMPDEST POP POP POP POP JUMP JUMPDEST PUSH1 0x0 DUP2 MLOAD DUP1 DUP5 MSTORE PUSH2 0x352 DUP2 PUSH1 0x20 DUP7 ADD PUSH1 0x20 DUP7 ADD PUSH2 0x30A JUMP JUMPDEST PUSH1 0x1F ADD PUSH1 0x1F NOT AND SWAP3 SWAP1 SWAP3 ADD PUSH1 0x20 ADD SWAP3 SWAP2 POP POP JUMP JUMPDEST PUSH1 0x0 PUSH1 0x20 DUP1 DUP4 ADD DUP2 DUP5 MSTORE DUP1 DUP6 MLOAD DUP1 DUP4 MSTORE PUSH1 0x40 DUP7 ADD SWAP2 POP PUSH1 0x40 DUP2 PUSH1 0x5 SHL DUP8 ADD ADD SWAP3 POP DUP4 DUP8 ADD PUSH1 0x0 JUMPDEST DUP3 DUP2 LT ISZERO PUSH2 0x3BB JUMPI PUSH1 0x3F NOT DUP9 DUP7 SUB ADD DUP5 MSTORE PUSH2 0x3A9 DUP6 DUP4 MLOAD PUSH2 0x33A JUMP JUMPDEST SWAP5 POP SWAP3 DUP6 ADD SWAP3 SWAP1 DUP6 ADD SWAP1 PUSH1 0x1 ADD PUSH2 0x38D JUMP JUMPDEST POP SWAP3 SWAP8 SWAP7 POP POP POP POP POP POP POP JUMP JUMPDEST PUSH4 0x4E487B71 PUSH1 0xE0 SHL PUSH1 0x0 MSTORE PUSH1 0x41 PUSH1 0x4 MSTORE PUSH1 0x24 PUSH1 0x0 REVERT JUMPDEST PUSH4 0x4E487B71 PUSH1 0xE0 SHL PUSH1 0x0 MSTORE PUSH1 0x32 PUSH1 0x4 MSTORE PUSH1 0x24 PUSH1 0x0 REVERT JUMPDEST PUSH1 0x0 DUP1 DUP4 CALLDATALOAD PUSH1 0x1E NOT DUP5 CALLDATASIZE SUB ADD DUP2 SLT PUSH2 0x40B JUMPI PUSH1 0x0 DUP1 REVERT JUMPDEST DUP4 ADD DUP1 CALLDATALOAD SWAP2 POP PUSH8 0xFFFFFFFFFFFFFFFF DUP3 GT ISZERO PUSH2 0x426 JUMPI PUSH1 0x0 DUP1 REVERT JUMPDEST PUSH1 0x20 ADD SWAP2 POP CALLDATASIZE DUP2 SWAP1 SUB DUP3 SGT ISZERO PUSH2 0x43B JUMPI PUSH1 0x0 DUP1 REVERT JUMPDEST SWAP3 POP SWAP3 SWAP1 POP JUMP JUMPDEST PUSH1 0x0 PUSH1 0x0 NOT DUP3 EQ ISZERO PUSH2 0x464 JUMPI PUSH4 0x4E487B71 PUSH1 0xE0 SHL PUSH1 0x0 MSTORE PUSH1 0x11 PUSH1 0x4 MSTORE PUSH1 0x24 PUSH1 0x0 REVERT JUMPDEST POP PUSH1 0x1 ADD SWAP1 JUMP JUMPDEST PUSH1 0x0 DUP3 MLOAD PUSH2 0x47D DUP2 DUP5 PUSH1 0x20 DUP8 ADD PUSH2 0x30A JUMP JUMPDEST SWAP2 SWAP1 SWAP2 ADD SWAP3 SWAP2 POP POP JUMP JUMPDEST PUSH1 0x20 DUP2 MSTORE PUSH1 0x0 PUSH2 0x173 PUSH1 0x20 DUP4 ADD DUP5 PUSH2 0x33A JUMP INVALID COINBASE PUSH5 0x6472657373 GASPRICE KECCAK256 PUSH13 0x6F772D6C6576656C2064656C65 PUSH8 0x6174652063616C6C KECCAK256 PUSH7 0x61696C6564A264 PUSH10 0x70667358221220815223 SMOD LOG4 SWAP16 0x49 0x5C 0xE5 SWAP8 DIFFICULTY 0xDD SWAP6 0xB8 0xBE LOG4 0xD9 CODESIZE PUSH14 0x2CD47A271CFC2824F9736D24FE64 PUSH20 0x6F6C634300080B00330000000000000000000000 "
				},
				"gasEstimates": {
					"creation": {
						"codeDepositCost": "254200",
						"executionCost": "294",
						"totalCost": "254494"
					},
					"external": {
						"multicall(bytes[])": "infinite"
					}
				},
				"methodIdentifiers": {
					"multicall(bytes[])": "ac9650d8"
				}
			},
			"storageLayout": {
				"storage": [],
				"types": null
			},
			"userdoc": {
				"kind": "user",
				"methods": {
					"multicall(bytes[])": {
						"notice": "Receives and executes a batch of function calls on this contract."
					}
				},
				"version": 1
			}
		}
	}
}