{
	"base/ERC20Base.sol": {
		"ERC20Base": {
			"abi": [
				{
					"inputs": [
						{
							"internalType": "string",
							"name": "_name",
							"type": "string"
						},
						{
							"internalType": "string",
							"name": "_symbol",
							"type": "string"
						}
					],
					"stateMutability": "nonpayable",
					"type": "constructor"
				},
				{
					"anonymous": false,
					"inputs": [
						{
							"indexed": true,
							"internalType": "address",
							"name": "owner",
							"type": "address"
						},
						{
							"indexed": true,
							"internalType": "address",
							"name": "spender",
							"type": "address"
						},
						{
							"indexed": false,
							"internalType": "uint256",
							"name": "value",
							"type": "uint256"
						}
					],
					"name": "Approval",
					"type": "event"
				},
				{
					"anonymous": false,
					"inputs": [
						{
							"indexed": false,
							"internalType": "string",
							"name": "prevURI",
							"type": "string"
						},
						{
							"indexed": false,
							"internalType": "string",
							"name": "newURI",
							"type": "string"
						}
					],
					"name": "ContractURIUpdated",
					"type": "event"
				},
				{
					"anonymous": false,
					"inputs": [
						{
							"indexed": true,
							"internalType": "address",
							"name": "prevOwner",
							"type": "address"
						},
						{
							"indexed": true,
							"internalType": "address",
							"name": "newOwner",
							"type": "address"
						}
					],
					"name": "OwnerUpdated",
					"type": "event"
				},
				{
					"anonymous": false,
					"inputs": [
						{
							"indexed": true,
							"internalType": "address",
							"name": "from",
							"type": "address"
						},
						{
							"indexed": true,
							"internalType": "address",
							"name": "to",
							"type": "address"
						},
						{
							"indexed": false,
							"internalType": "uint256",
							"name": "value",
							"type": "uint256"
						}
					],
					"name": "Transfer",
					"type": "event"
				},
				{
					"inputs": [],
					"name": "DOMAIN_SEPARATOR",
					"outputs": [
						{
							"internalType": "bytes32",
							"name": "",
							"type": "bytes32"
						}
					],
					"stateMutability": "view",
					"type": "function"
				},
				{
					"inputs": [
						{
							"internalType": "address",
							"name": "owner",
							"type": "address"
						},
						{
							"internalType": "address",
							"name": "spender",
							"type": "address"
						}
					],
					"name": "allowance",
					"outputs": [
						{
							"internalType": "uint256",
							"name": "",
							"type": "uint256"
						}
					],
					"stateMutability": "view",
					"type": "function"
				},
				{
					"inputs": [
						{
							"internalType": "address",
							"name": "spender",
							"type": "address"
						},
						{
							"internalType": "uint256",
							"name": "amount",
							"type": "uint256"
						}
					],
					"name": "approve",
					"outputs": [
						{
							"internalType": "bool",
							"name": "",
							"type": "bool"
						}
					],
					"stateMutability": "nonpayable",
					"type": "function"
				},
				{
					"inputs": [
						{
							"internalType": "address",
							"name": "account",
							"type": "address"
						}
					],
					"name": "balanceOf",
					"outputs": [
						{
							"internalType": "uint256",
							"name": "",
							"type": "uint256"
						}
					],
					"stateMutability": "view",
					"type": "function"
				},
				{
					"inputs": [
						{
							"internalType": "uint256",
							"name": "_amount",
							"type": "uint256"
						}
					],
					"name": "burn",
					"outputs": [],
					"stateMutability": "nonpayable",
					"type": "function"
				},
				{
					"inputs": [],
					"name": "contractURI",
					"outputs": [
						{
							"internalType": "string",
							"name": "",
							"type": "string"
						}
					],
					"stateMutability": "view",
					"type": "function"
				},
				{
					"inputs": [],
					"name": "decimals",
					"outputs": [
						{
							"internalType": "uint8",
							"name": "",
							"type": "uint8"
						}
					],
					"stateMutability": "view",
					"type": "function"
				},
				{
					"inputs": [
						{
							"internalType": "address",
							"name": "spender",
							"type": "address"
						},
						{
							"internalType": "uint256",
							"name": "subtractedValue",
							"type": "uint256"
						}
					],
					"name": "decreaseAllowance",
					"outputs": [
						{
							"internalType": "bool",
							"name": "",
							"type": "bool"
						}
					],
					"stateMutability": "nonpayable",
					"type": "function"
				},
				{
					"inputs": [
						{
							"internalType": "address",
							"name": "spender",
							"type": "address"
						},
						{
							"internalType": "uint256",
							"name": "addedValue",
							"type": "uint256"
						}
					],
					"name": "increaseAllowance",
					"outputs": [
						{
							"internalType": "bool",
							"name": "",
							"type": "bool"
						}
					],
					"stateMutability": "nonpayable",
					"type": "function"
				},
				{
					"inputs": [
						{
							"internalType": "address",
							"name": "_to",
							"type": "address"
						},
						{
							"internalType": "uint256",
							"name": "_amount",
							"type": "uint256"
						}
					],
					"name": "mintTo",
					"outputs": [],
					"stateMutability": "nonpayable",
					"type": "function"
				},
				{
					"inputs": [
						{
							"internalType": "bytes[]",
							"name": "data",
							"type": "bytes[]"
						}
					],
					"name": "multicall",
					"outputs": [
						{
							"internalType": "bytes[]",
							"name": "results",
							"type": "bytes[]"
						}
					],
					"stateMutability": "nonpayable",
					"type": "function"
				},
				{
					"inputs": [],
					"name": "name",
					"outputs": [
						{
							"internalType": "string",
							"name": "",
							"type": "string"
						}
					],
					"stateMutability": "view",
					"type": "function"
				},
				{
					"inputs": [
						{
							"internalType": "address",
							"name": "owner",
							"type": "address"
						}
					],
					"name": "nonces",
					"outputs": [
						{
							"internalType": "uint256",
							"name": "",
							"type": "uint256"
						}
					],
					"stateMutability": "view",
					"type": "function"
				},
				{
					"inputs": [],
					"name": "owner",
					"outputs": [
						{
							"internalType": "address",
							"name": "",
							"type": "address"
						}
					],
					"stateMutability": "view",
					"type": "function"
				},
				{
					"inputs": [
						{
							"internalType": "address",
							"name": "owner",
							"type": "address"
						},
						{
							"internalType": "address",
							"name": "spender",
							"type": "address"
						},
						{
							"internalType": "uint256",
							"name": "value",
							"type": "uint256"
						},
						{
							"internalType": "uint256",
							"name": "deadline",
							"type": "uint256"
						},
						{
							"internalType": "uint8",
							"name": "v",
							"type": "uint8"
						},
						{
							"internalType": "bytes32",
							"name": "r",
							"type": "bytes32"
						},
						{
							"internalType": "bytes32",
							"name": "s",
							"type": "bytes32"
						}
					],
					"name": "permit",
					"outputs": [],
					"stateMutability": "nonpayable",
					"type": "function"
				},
				{
					"inputs": [
						{
							"internalType": "string",
							"name": "_uri",
							"type": "string"
						}
					],
					"name": "setContractURI",
					"outputs": [],
					"stateMutability": "nonpayable",
					"type": "function"
				},
				{
					"inputs": [
						{
							"internalType": "address",
							"name": "_newOwner",
							"type": "address"
						}
					],
					"name": "setOwner",
					"outputs": [],
					"stateMutability": "nonpayable",
					"type": "function"
				},
				{
					"inputs": [],
					"name": "symbol",
					"outputs": [
						{
							"internalType": "string",
							"name": "",
							"type": "string"
						}
					],
					"stateMutability": "view",
					"type": "function"
				},
				{
					"inputs": [],
					"name": "totalSupply",
					"outputs": [
						{
							"internalType": "uint256",
							"name": "",
							"type": "uint256"
						}
					],
					"stateMutability": "view",
					"type": "function"
				},
				{
					"inputs": [
						{
							"internalType": "address",
							"name": "to",
							"type": "address"
						},
						{
							"internalType": "uint256",
							"name": "amount",
							"type": "uint256"
						}
					],
					"name": "transfer",
					"outputs": [
						{
							"internalType": "bool",
							"name": "",
							"type": "bool"
						}
					],
					"stateMutability": "nonpayable",
					"type": "function"
				},
				{
					"inputs": [
						{
							"internalType": "address",
							"name": "from",
							"type": "address"
						},
						{
							"internalType": "address",
							"name": "to",
							"type": "address"
						},
						{
							"internalType": "uint256",
							"name": "amount",
							"type": "uint256"
						}
					],
					"name": "transferFrom",
					"outputs": [
						{
							"internalType": "bool",
							"name": "",
							"type": "bool"
						}
					],
					"stateMutability": "nonpayable",
					"type": "function"
				}
			],
			"devdoc": {
				"kind": "dev",
				"methods": {
					"DOMAIN_SEPARATOR()": {
						"details": "See {IERC20Permit-DOMAIN_SEPARATOR}."
					},
					"allowance(address,address)": {
						"details": "See {IERC20-allowance}."
					},
					"approve(address,uint256)": {
						"details": "See {IERC20-approve}. NOTE: If `amount` is the maximum `uint256`, the allowance is not updated on `transferFrom`. This is semantically equivalent to an infinite approval. Requirements: - `spender` cannot be the zero address."
					},
					"balanceOf(address)": {
						"details": "See {IERC20-balanceOf}."
					},
					"burn(uint256)": {
						"details": "Caller should own the `_amount` of tokens.",
						"params": {
							"_amount": "The number of tokens to burn."
						}
					},
					"decimals()": {
						"details": "Returns the number of decimals used to get its user representation. For example, if `decimals` equals `2`, a balance of `505` tokens should be displayed to a user as `5.05` (`505 / 10 ** 2`). Tokens usually opt for a value of 18, imitating the relationship between Ether and Wei. This is the value {ERC20} uses, unless this function is overridden; NOTE: This information is only used for _display_ purposes: it in no way affects any of the arithmetic of the contract, including {IERC20-balanceOf} and {IERC20-transfer}."
					},
					"decreaseAllowance(address,uint256)": {
						"details": "Atomically decreases the allowance granted to `spender` by the caller. This is an alternative to {approve} that can be used as a mitigation for problems described in {IERC20-approve}. Emits an {Approval} event indicating the updated allowance. Requirements: - `spender` cannot be the zero address. - `spender` must have allowance for the caller of at least `subtractedValue`."
					},
					"increaseAllowance(address,uint256)": {
						"details": "Atomically increases the allowance granted to `spender` by the caller. This is an alternative to {approve} that can be used as a mitigation for problems described in {IERC20-approve}. Emits an {Approval} event indicating the updated allowance. Requirements: - `spender` cannot be the zero address."
					},
					"mintTo(address,uint256)": {
						"details": "The logic in the `_canMint` function determines whether the caller is authorized to mint tokens.",
						"params": {
							"_amount": "Quantity of tokens to mint.",
							"_to": "The recipient of the tokens to mint."
						}
					},
					"multicall(bytes[])": {
						"details": "Receives and executes a batch of function calls on this contract.",
						"params": {
							"data": "The bytes data that makes up the batch of function calls to execute."
						},
						"returns": {
							"results": "The bytes data that makes up the result of the batch of function calls executed."
						}
					},
					"name()": {
						"details": "Returns the name of the token."
					},
					"nonces(address)": {
						"details": "See {IERC20Permit-nonces}."
					},
					"permit(address,address,uint256,uint256,uint8,bytes32,bytes32)": {
						"details": "See {IERC20Permit-permit}."
					},
					"setContractURI(string)": {
						"details": "Caller should be authorized to setup contractURI, e.g. contract admin.                  See {_canSetContractURI}.                  Emits {ContractURIUpdated Event}.",
						"params": {
							"_uri": "keccak256 hash of the role. e.g. keccak256(\"TRANSFER_ROLE\")"
						}
					},
					"setOwner(address)": {
						"params": {
							"_newOwner": "The address to set as the new owner of the contract."
						}
					},
					"symbol()": {
						"details": "Returns the symbol of the token, usually a shorter version of the name."
					},
					"totalSupply()": {
						"details": "See {IERC20-totalSupply}."
					},
					"transfer(address,uint256)": {
						"details": "See {IERC20-transfer}. Requirements: - `to` cannot be the zero address. - the caller must have a balance of at least `amount`."
					},
					"transferFrom(address,address,uint256)": {
						"details": "See {IERC20-transferFrom}. Emits an {Approval} event indicating the updated allowance. This is not required by the EIP. See the note at the beginning of {ERC20}. NOTE: Does not update the allowance if the current allowance is the maximum `uint256`. Requirements: - `from` and `to` cannot be the zero address. - `from` must have a balance of at least `amount`. - the caller must have allowance for ``from``'s tokens of at least `amount`."
					}
				},
				"version": 1
			},
			"evm": {
				"assembly": "    /* \"base/ERC20Base.sol\":893:3202  contract ERC20Base is ContractMetadata, Multicall, Ownable, ERC20Permit {... */\n  mstore(0x40, 0x0100)\n    /* \"openzeppelin-presets/token/ERC20/extensions/ERC20Permit.sol\":1440:1535  keccak256(\"Permit(address owner,address spender,uint256 value,uint256 nonce,uint256 deadline)\") */\n  0x6e71edae12b1b97f4d1f60370fef10105fa2faae0126114a169c64845d6126c9\n    /* \"openzeppelin-presets/token/ERC20/extensions/ERC20Permit.sol\":1387:1535  bytes32 private immutable _PERMIT_TYPEHASH =... */\n  0xe0\n  mstore\n    /* \"base/ERC20Base.sol\":1150:1274  constructor(string memory _name, string memory _symbol) ERC20Permit(_name, _symbol) {... */\n  callvalue\n  dup1\n  iszero\n  tag_1\n  jumpi\n  0x00\n  dup1\n  revert\ntag_1:\n  pop\n  mload(0x40)\n  sub(codesize, bytecodeSize)\n  dup1\n  bytecodeSize\n  dup4\n  codecopy\n  dup2\n  add\n  0x40\n  dup2\n  swap1\n  mstore\n  tag_2\n  swap2\n  tag_3\n  jump\t// in\ntag_2:\n    /* \"base/ERC20Base.sol\":1218:1223  _name */\n  dup2\n    /* \"base/ERC20Base.sol\":1225:1232  _symbol */\n  dup2\n    /* \"openzeppelin-presets/token/ERC20/extensions/ERC20Permit.sol\":1829:1834  name_ */\n  dup2\n    /* \"openzeppelin-presets/token/ERC20/extensions/ERC20Permit.sol\":1836:1843  symbol_ */\n  dup2\n    /* \"openzeppelin-presets/token/ERC20/ERC20.sol\":2083:2088  name_ */\n  dup2\n    /* \"openzeppelin-presets/token/ERC20/ERC20.sol\":2075:2080  _name */\n  0x05\n    /* \"openzeppelin-presets/token/ERC20/ERC20.sol\":2075:2088  _name = name_ */\n  swap1\n  dup1\n  mload\n  swap1\n  0x20\n  add\n  swap1\n  tag_8\n  swap3\n  swap2\n  swap1\n  tag_9\n  jump\t// in\ntag_8:\n  pop\n    /* \"openzeppelin-presets/token/ERC20/ERC20.sol\":2098:2115  _symbol = symbol_ */\n  dup1\n  mload\n  tag_10\n  swap1\n    /* \"openzeppelin-presets/token/ERC20/ERC20.sol\":2098:2105  _symbol */\n  0x06\n  swap1\n    /* \"openzeppelin-presets/token/ERC20/ERC20.sol\":2098:2115  _symbol = symbol_ */\n  0x20\n  dup5\n  add\n  swap1\n  tag_9\n  jump\t// in\ntag_10:\n  pop\n  pop\n    /* \"openzeppelin-presets/token/ERC20/extensions/ERC20Permit.sol\":1874:1887  block.chainid */\n  chainid\n    /* \"openzeppelin-presets/token/ERC20/extensions/ERC20Permit.sol\":1855:1887  _CACHED_CHAIN_ID = block.chainid */\n  0xa0\n  mstore\n  pop\n    /* \"openzeppelin-presets/token/ERC20/extensions/ERC20Permit.sol\":1920:1924  this */\n  address\n    /* \"openzeppelin-presets/token/ERC20/extensions/ERC20Permit.sol\":1897:1925  _CACHED_THIS = address(this) */\n  0xc0\n  mstore\n    /* \"openzeppelin-presets/token/ERC20/extensions/ERC20Permit.sol\":1962:1985  _buildDomainSeparator() */\n  tag_12\n    /* \"openzeppelin-presets/token/ERC20/extensions/ERC20Permit.sol\":1962:1983  _buildDomainSeparator */\n  tag_13\n    /* \"openzeppelin-presets/token/ERC20/extensions/ERC20Permit.sol\":1962:1985  _buildDomainSeparator() */\n  jump\t// in\ntag_12:\n    /* \"openzeppelin-presets/token/ERC20/extensions/ERC20Permit.sol\":1935:1985  _CACHED_DOMAIN_SEPARATOR = _buildDomainSeparator() */\n  0x80\n  mstore\n  pop\n    /* \"base/ERC20Base.sol\":1244:1267  _setupOwner(msg.sender) */\n  tag_15\n  swap1\n  pop\n    /* \"base/ERC20Base.sol\":1256:1266  msg.sender */\n  caller\n    /* \"base/ERC20Base.sol\":1244:1255  _setupOwner */\n  tag_16\n    /* \"base/ERC20Base.sol\":1244:1267  _setupOwner(msg.sender) */\n  jump\t// in\ntag_15:\n    /* \"base/ERC20Base.sol\":1150:1274  constructor(string memory _name, string memory _symbol) ERC20Permit(_name, _symbol) {... */\n  pop\n  pop\n    /* \"base/ERC20Base.sol\":893:3202  contract ERC20Base is ContractMetadata, Multicall, Ownable, ERC20Permit {... */\n  jump(tag_43)\n    /* \"openzeppelin-presets/token/ERC20/extensions/ERC20Permit.sol\":3293:3731  function _buildDomainSeparator() private view returns (bytes32) {... */\ntag_13:\n    /* \"openzeppelin-presets/token/ERC20/extensions/ERC20Permit.sol\":3348:3355  bytes32 */\n  0x00\n    /* \"openzeppelin-presets/token/ERC20/extensions/ERC20Permit.sol\":3445:3540  keccak256(\"EIP712Domain(string name,string version,uint256 chainId,address verifyingContract)\") */\n  0x8b73c3c69bb8fe3d512ecc4cf759cc79239f7b179b0ffacaa9a75d522b39400f\n    /* \"openzeppelin-presets/token/ERC20/extensions/ERC20Permit.sol\":3578:3584  name() */\n  tag_19\n    /* \"openzeppelin-presets/token/ERC20/extensions/ERC20Permit.sol\":3578:3582  name */\n  tag_20\n    /* \"openzeppelin-presets/token/ERC20/extensions/ERC20Permit.sol\":3578:3584  name() */\n  jump\t// in\ntag_19:\n    /* \"openzeppelin-presets/token/ERC20/extensions/ERC20Permit.sol\":3562:3586  keccak256(bytes(name())) */\n  dup1\n  mload\n  0x20\n  swap2\n  dup3\n  add\n  keccak256\n    /* \"openzeppelin-presets/token/ERC20/extensions/ERC20Permit.sol\":3413:3710  abi.encode(... */\n  0x40\n  dup1\n  mload\n  swap3\n  dup4\n  add\n    /* \"#utility.yul\":1862:1887   */\n  swap4\n  swap1\n  swap4\n  mstore\n    /* \"#utility.yul\":1903:1921   */\n  swap2\n  dup2\n  add\n    /* \"#utility.yul\":1896:1930   */\n  swap2\n  swap1\n  swap2\n  mstore\n    /* \"openzeppelin-presets/token/ERC20/extensions/ERC20Permit.sol\":3608:3622  keccak256(\"1\") */\n  0xc89efdaa54c0f20c7adf612882df0950f5a951637e0307cdcb4c672f298b8bc6\n    /* \"#utility.yul\":1946:1964   */\n  0x60\n  dup3\n  add\n    /* \"#utility.yul\":1939:1973   */\n  mstore\n    /* \"openzeppelin-presets/token/ERC20/extensions/ERC20Permit.sol\":3644:3657  block.chainid */\n  chainid\n    /* \"#utility.yul\":1989:2007   */\n  0x80\n  dup3\n  add\n    /* \"#utility.yul\":1982:2016   */\n  mstore\n    /* \"openzeppelin-presets/token/ERC20/extensions/ERC20Permit.sol\":3687:3691  this */\n  address\n    /* \"#utility.yul\":2032:2051   */\n  0xa0\n  dup3\n  add\n    /* \"#utility.yul\":2025:2086   */\n  mstore\n    /* \"#utility.yul\":1834:1853   */\n  0xc0\n  add\n    /* \"openzeppelin-presets/token/ERC20/extensions/ERC20Permit.sol\":3413:3710  abi.encode(... */\n  mload(0x40)\n  0x20\n  dup2\n  dup4\n  sub\n  sub\n  dup2\n  mstore\n  swap1\n  0x40\n  mstore\n    /* \"openzeppelin-presets/token/ERC20/extensions/ERC20Permit.sol\":3386:3724  keccak256(... */\n  dup1\n  mload\n  swap1\n  0x20\n  add\n  keccak256\n    /* \"openzeppelin-presets/token/ERC20/extensions/ERC20Permit.sol\":3367:3724  return... */\n  swap1\n  pop\n    /* \"openzeppelin-presets/token/ERC20/extensions/ERC20Permit.sol\":3293:3731  function _buildDomainSeparator() private view returns (bytes32) {... */\n  swap1\n  jump\t// out\n    /* \"extension/Ownable.sol\":1401:1573  function _setupOwner(address _newOwner) internal {... */\ntag_16:\n    /* \"extension/Ownable.sol\":1481:1487  _owner */\n  0x01\n  dup1\n  sload\n  sub(shl(0xa0, 0x01), 0x01)\n    /* \"extension/Ownable.sol\":1497:1515  _owner = _newOwner */\n  dup4\n  dup2\n  and\n  not(sub(shl(0xa0, 0x01), 0x01))\n  dup4\n  and\n  dup2\n  or\n  swap1\n  swap4\n  sstore\n    /* \"extension/Ownable.sol\":1531:1566  OwnerUpdated(_prevOwner, _newOwner) */\n  mload(0x40)\n    /* \"extension/Ownable.sol\":1481:1487  _owner */\n  swap2\n  and\n  swap2\n    /* \"extension/Ownable.sol\":1497:1515  _owner = _newOwner */\n  swap1\n    /* \"extension/Ownable.sol\":1481:1487  _owner */\n  dup3\n  swap1\n    /* \"extension/Ownable.sol\":1531:1566  OwnerUpdated(_prevOwner, _newOwner) */\n  0x8292fce18fa69edf4db7b94ea2e58241df0ae57f97e0a6c9b29067028bf92d76\n  swap1\n    /* \"extension/Ownable.sol\":1460:1478  address _prevOwner */\n  0x00\n  swap1\n    /* \"extension/Ownable.sol\":1531:1566  OwnerUpdated(_prevOwner, _newOwner) */\n  log3\n    /* \"extension/Ownable.sol\":1450:1573  {... */\n  pop\n    /* \"extension/Ownable.sol\":1401:1573  function _setupOwner(address _newOwner) internal {... */\n  pop\n  jump\t// out\n    /* \"openzeppelin-presets/token/ERC20/ERC20.sol\":2187:2285  function name() public view virtual override returns (string memory) {... */\ntag_20:\n    /* \"openzeppelin-presets/token/ERC20/ERC20.sol\":2241:2254  string memory */\n  0x60\n    /* \"openzeppelin-presets/token/ERC20/ERC20.sol\":2273:2278  _name */\n  0x05\n    /* \"openzeppelin-presets/token/ERC20/ERC20.sol\":2266:2278  return _name */\n  dup1\n  sload\n  tag_25\n  swap1\n  tag_26\n  jump\t// in\ntag_25:\n  dup1\n  0x1f\n  add\n  0x20\n  dup1\n  swap2\n  div\n  mul\n  0x20\n  add\n  mload(0x40)\n  swap1\n  dup2\n  add\n  0x40\n  mstore\n  dup1\n  swap3\n  swap2\n  swap1\n  dup2\n  dup2\n  mstore\n  0x20\n  add\n  dup3\n  dup1\n  sload\n  tag_27\n  swap1\n  tag_26\n  jump\t// in\ntag_27:\n  dup1\n  iszero\n  tag_28\n  jumpi\n  dup1\n  0x1f\n  lt\n  tag_29\n  jumpi\n  0x0100\n  dup1\n  dup4\n  sload\n  div\n  mul\n  dup4\n  mstore\n  swap2\n  0x20\n  add\n  swap2\n  jump(tag_28)\ntag_29:\n  dup3\n  add\n  swap2\n  swap1\n  0x00\n  mstore\n  keccak256(0x00, 0x20)\n  swap1\ntag_30:\n  dup2\n  sload\n  dup2\n  mstore\n  swap1\n  0x01\n  add\n  swap1\n  0x20\n  add\n  dup1\n  dup4\n  gt\n  tag_30\n  jumpi\n  dup3\n  swap1\n  sub\n  0x1f\n  and\n  dup3\n  add\n  swap2\ntag_28:\n  pop\n  pop\n  pop\n  pop\n  pop\n  swap1\n  pop\n    /* \"openzeppelin-presets/token/ERC20/ERC20.sol\":2187:2285  function name() public view virtual override returns (string memory) {... */\n  swap1\n  jump\t// out\n    /* \"base/ERC20Base.sol\":893:3202  contract ERC20Base is ContractMetadata, Multicall, Ownable, ERC20Permit {... */\ntag_9:\n  dup3\n  dup1\n  sload\n  tag_31\n  swap1\n  tag_26\n  jump\t// in\ntag_31:\n  swap1\n  0x00\n  mstore\n  keccak256(0x00, 0x20)\n  swap1\n  0x1f\n  add\n  0x20\n  swap1\n  div\n  dup2\n  add\n  swap3\n  dup3\n  tag_33\n  jumpi\n  0x00\n  dup6\n  sstore\n  jump(tag_36)\ntag_33:\n  dup3\n  0x1f\n  lt\n  tag_34\n  jumpi\n  dup1\n  mload\n  not(0xff)\n  and\n  dup4\n  dup1\n  add\n  or\n  dup6\n  sstore\n  jump(tag_36)\ntag_34:\n  dup3\n  dup1\n  add\n  0x01\n  add\n  dup6\n  sstore\n  dup3\n  iszero\n  tag_36\n  jumpi\n  swap2\n  dup3\n  add\ntag_35:\n  dup3\n  dup2\n  gt\n  iszero\n  tag_36\n  jumpi\n  dup3\n  mload\n  dup3\n  sstore\n  swap2\n  0x20\n  add\n  swap2\n  swap1\n  0x01\n  add\n  swap1\n  jump(tag_35)\ntag_36:\n  pop\n  tag_37\n  swap3\n  swap2\n  pop\n  tag_38\n  jump\t// in\ntag_37:\n  pop\n  swap1\n  jump\t// out\ntag_38:\ntag_39:\n  dup1\n  dup3\n  gt\n  iszero\n  tag_37\n  jumpi\n  0x00\n  dup2\n  sstore\n  0x01\n  add\n  jump(tag_39)\n    /* \"#utility.yul\":14:141   */\ntag_41:\n    /* \"#utility.yul\":75:85   */\n  0x4e487b71\n    /* \"#utility.yul\":70:73   */\n  0xe0\n    /* \"#utility.yul\":66:86   */\n  shl\n    /* \"#utility.yul\":63:64   */\n  0x00\n    /* \"#utility.yul\":56:87   */\n  mstore\n    /* \"#utility.yul\":106:110   */\n  0x41\n    /* \"#utility.yul\":103:104   */\n  0x04\n    /* \"#utility.yul\":96:111   */\n  mstore\n    /* \"#utility.yul\":130:134   */\n  0x24\n    /* \"#utility.yul\":127:128   */\n  0x00\n    /* \"#utility.yul\":120:135   */\n  revert\n    /* \"#utility.yul\":146:1031   */\ntag_42:\n    /* \"#utility.yul\":200:205   */\n  0x00\n    /* \"#utility.yul\":253:256   */\n  dup3\n    /* \"#utility.yul\":246:250   */\n  0x1f\n    /* \"#utility.yul\":238:244   */\n  dup4\n    /* \"#utility.yul\":234:251   */\n  add\n    /* \"#utility.yul\":230:257   */\n  slt\n    /* \"#utility.yul\":220:275   */\n  tag_46\n  jumpi\n    /* \"#utility.yul\":271:272   */\n  0x00\n    /* \"#utility.yul\":268:269   */\n  dup1\n    /* \"#utility.yul\":261:273   */\n  revert\n    /* \"#utility.yul\":220:275   */\ntag_46:\n    /* \"#utility.yul\":294:307   */\n  dup2\n  mload\n  sub(shl(0x40, 0x01), 0x01)\n    /* \"#utility.yul\":356:366   */\n  dup1\n  dup3\n  gt\n    /* \"#utility.yul\":353:389   */\n  iszero\n  tag_48\n  jumpi\n    /* \"#utility.yul\":369:387   */\n  tag_48\n  tag_41\n  jump\t// in\ntag_48:\n    /* \"#utility.yul\":444:446   */\n  0x40\n    /* \"#utility.yul\":438:447   */\n  mload\n    /* \"#utility.yul\":412:414   */\n  0x1f\n    /* \"#utility.yul\":498:511   */\n  dup4\n  add\n  not(0x1f)\n    /* \"#utility.yul\":494:516   */\n  swap1\n  dup2\n  and\n    /* \"#utility.yul\":518:520   */\n  0x3f\n    /* \"#utility.yul\":490:521   */\n  add\n    /* \"#utility.yul\":486:526   */\n  and\n    /* \"#utility.yul\":474:527   */\n  dup2\n  add\n  swap1\n    /* \"#utility.yul\":542:560   */\n  dup3\n  dup3\n  gt\n    /* \"#utility.yul\":562:584   */\n  dup2\n  dup4\n  lt\n    /* \"#utility.yul\":539:585   */\n  or\n    /* \"#utility.yul\":536:608   */\n  iszero\n  tag_50\n  jumpi\n    /* \"#utility.yul\":588:606   */\n  tag_50\n  tag_41\n  jump\t// in\ntag_50:\n    /* \"#utility.yul\":628:638   */\n  dup2\n    /* \"#utility.yul\":624:626   */\n  0x40\n    /* \"#utility.yul\":617:639   */\n  mstore\n    /* \"#utility.yul\":663:665   */\n  dup4\n    /* \"#utility.yul\":655:661   */\n  dup2\n    /* \"#utility.yul\":648:666   */\n  mstore\n    /* \"#utility.yul\":685:689   */\n  0x20\n    /* \"#utility.yul\":675:689   */\n  swap3\n  pop\n    /* \"#utility.yul\":730:733   */\n  dup7\n    /* \"#utility.yul\":725:727   */\n  dup4\n    /* \"#utility.yul\":720:722   */\n  dup6\n    /* \"#utility.yul\":712:718   */\n  dup9\n    /* \"#utility.yul\":708:723   */\n  add\n    /* \"#utility.yul\":704:728   */\n  add\n    /* \"#utility.yul\":701:734   */\n  gt\n    /* \"#utility.yul\":698:751   */\n  iszero\n  tag_51\n  jumpi\n    /* \"#utility.yul\":747:748   */\n  0x00\n    /* \"#utility.yul\":744:745   */\n  dup1\n    /* \"#utility.yul\":737:749   */\n  revert\n    /* \"#utility.yul\":698:751   */\ntag_51:\n    /* \"#utility.yul\":769:770   */\n  0x00\n    /* \"#utility.yul\":760:770   */\n  swap2\n  pop\n    /* \"#utility.yul\":779:912   */\ntag_52:\n    /* \"#utility.yul\":793:795   */\n  dup4\n    /* \"#utility.yul\":790:791   */\n  dup3\n    /* \"#utility.yul\":787:796   */\n  lt\n    /* \"#utility.yul\":779:912   */\n  iszero\n  tag_54\n  jumpi\n    /* \"#utility.yul\":881:895   */\n  dup6\n  dup3\n  add\n    /* \"#utility.yul\":877:900   */\n  dup4\n  add\n    /* \"#utility.yul\":871:901   */\n  mload\n    /* \"#utility.yul\":850:864   */\n  dup2\n  dup4\n  add\n    /* \"#utility.yul\":846:869   */\n  dup5\n  add\n    /* \"#utility.yul\":839:902   */\n  mstore\n    /* \"#utility.yul\":804:814   */\n  swap1\n  dup3\n  add\n  swap1\n    /* \"#utility.yul\":779:912   */\n  jump(tag_52)\ntag_54:\n    /* \"#utility.yul\":930:932   */\n  dup4\n    /* \"#utility.yul\":927:928   */\n  dup3\n    /* \"#utility.yul\":924:933   */\n  gt\n    /* \"#utility.yul\":921:1001   */\n  iszero\n  tag_55\n  jumpi\n    /* \"#utility.yul\":989:990   */\n  0x00\n    /* \"#utility.yul\":984:986   */\n  dup4\n    /* \"#utility.yul\":979:981   */\n  dup6\n    /* \"#utility.yul\":971:977   */\n  dup4\n    /* \"#utility.yul\":967:982   */\n  add\n    /* \"#utility.yul\":963:987   */\n  add\n    /* \"#utility.yul\":956:991   */\n  mstore\n    /* \"#utility.yul\":921:1001   */\ntag_55:\n    /* \"#utility.yul\":1019:1025   */\n  swap7\n    /* \"#utility.yul\":146:1031   */\n  swap6\n  pop\n  pop\n  pop\n  pop\n  pop\n  pop\n  jump\t// out\n    /* \"#utility.yul\":1036:1598   */\ntag_3:\n    /* \"#utility.yul\":1135:1141   */\n  0x00\n    /* \"#utility.yul\":1143:1149   */\n  dup1\n    /* \"#utility.yul\":1196:1198   */\n  0x40\n    /* \"#utility.yul\":1184:1193   */\n  dup4\n    /* \"#utility.yul\":1175:1182   */\n  dup6\n    /* \"#utility.yul\":1171:1194   */\n  sub\n    /* \"#utility.yul\":1167:1199   */\n  slt\n    /* \"#utility.yul\":1164:1216   */\n  iszero\n  tag_57\n  jumpi\n    /* \"#utility.yul\":1212:1213   */\n  0x00\n    /* \"#utility.yul\":1209:1210   */\n  dup1\n    /* \"#utility.yul\":1202:1214   */\n  revert\n    /* \"#utility.yul\":1164:1216   */\ntag_57:\n    /* \"#utility.yul\":1239:1255   */\n  dup3\n  mload\n  sub(shl(0x40, 0x01), 0x01)\n    /* \"#utility.yul\":1304:1318   */\n  dup1\n  dup3\n  gt\n    /* \"#utility.yul\":1301:1335   */\n  iszero\n  tag_58\n  jumpi\n    /* \"#utility.yul\":1331:1332   */\n  0x00\n    /* \"#utility.yul\":1328:1329   */\n  dup1\n    /* \"#utility.yul\":1321:1333   */\n  revert\n    /* \"#utility.yul\":1301:1335   */\ntag_58:\n    /* \"#utility.yul\":1354:1415   */\n  tag_59\n    /* \"#utility.yul\":1407:1414   */\n  dup7\n    /* \"#utility.yul\":1398:1404   */\n  dup4\n    /* \"#utility.yul\":1387:1396   */\n  dup8\n    /* \"#utility.yul\":1383:1405   */\n  add\n    /* \"#utility.yul\":1354:1415   */\n  tag_42\n  jump\t// in\ntag_59:\n    /* \"#utility.yul\":1344:1415   */\n  swap4\n  pop\n    /* \"#utility.yul\":1461:1463   */\n  0x20\n    /* \"#utility.yul\":1450:1459   */\n  dup6\n    /* \"#utility.yul\":1446:1464   */\n  add\n    /* \"#utility.yul\":1440:1465   */\n  mload\n    /* \"#utility.yul\":1424:1465   */\n  swap2\n  pop\n    /* \"#utility.yul\":1490:1492   */\n  dup1\n    /* \"#utility.yul\":1480:1488   */\n  dup3\n    /* \"#utility.yul\":1477:1493   */\n  gt\n    /* \"#utility.yul\":1474:1510   */\n  iszero\n  tag_60\n  jumpi\n    /* \"#utility.yul\":1506:1507   */\n  0x00\n    /* \"#utility.yul\":1503:1504   */\n  dup1\n    /* \"#utility.yul\":1496:1508   */\n  revert\n    /* \"#utility.yul\":1474:1510   */\ntag_60:\n  pop\n    /* \"#utility.yul\":1529:1592   */\n  tag_61\n    /* \"#utility.yul\":1584:1591   */\n  dup6\n    /* \"#utility.yul\":1573:1581   */\n  dup3\n    /* \"#utility.yul\":1562:1571   */\n  dup7\n    /* \"#utility.yul\":1558:1582   */\n  add\n    /* \"#utility.yul\":1529:1592   */\n  tag_42\n  jump\t// in\ntag_61:\n    /* \"#utility.yul\":1519:1592   */\n  swap2\n  pop\n  pop\n    /* \"#utility.yul\":1036:1598   */\n  swap3\n  pop\n  swap3\n  swap1\n  pop\n  jump\t// out\n    /* \"#utility.yul\":2097:2477   */\ntag_26:\n    /* \"#utility.yul\":2176:2177   */\n  0x01\n    /* \"#utility.yul\":2172:2184   */\n  dup2\n  dup2\n  shr\n  swap1\n    /* \"#utility.yul\":2219:2231   */\n  dup3\n  and\n  dup1\n    /* \"#utility.yul\":2240:2301   */\n  tag_64\n  jumpi\n    /* \"#utility.yul\":2294:2298   */\n  0x7f\n    /* \"#utility.yul\":2286:2292   */\n  dup3\n    /* \"#utility.yul\":2282:2299   */\n  and\n    /* \"#utility.yul\":2272:2299   */\n  swap2\n  pop\n    /* \"#utility.yul\":2240:2301   */\ntag_64:\n    /* \"#utility.yul\":2347:2349   */\n  0x20\n    /* \"#utility.yul\":2339:2345   */\n  dup3\n    /* \"#utility.yul\":2336:2350   */\n  lt\n    /* \"#utility.yul\":2316:2334   */\n  dup2\n    /* \"#utility.yul\":2313:2351   */\n  eq\n    /* \"#utility.yul\":2310:2471   */\n  iszero\n  tag_65\n  jumpi\n    /* \"#utility.yul\":2393:2403   */\n  0x4e487b71\n    /* \"#utility.yul\":2388:2391   */\n  0xe0\n    /* \"#utility.yul\":2384:2404   */\n  shl\n    /* \"#utility.yul\":2381:2382   */\n  0x00\n    /* \"#utility.yul\":2374:2405   */\n  mstore\n    /* \"#utility.yul\":2428:2432   */\n  0x22\n    /* \"#utility.yul\":2425:2426   */\n  0x04\n    /* \"#utility.yul\":2418:2433   */\n  mstore\n    /* \"#utility.yul\":2456:2460   */\n  0x24\n    /* \"#utility.yul\":2453:2454   */\n  0x00\n    /* \"#utility.yul\":2446:2461   */\n  revert\n    /* \"#utility.yul\":2310:2471   */\ntag_65:\n  pop\n    /* \"#utility.yul\":2097:2477   */\n  swap2\n  swap1\n  pop\n  jump\t// out\ntag_43:\n    /* \"base/ERC20Base.sol\":893:3202  contract ERC20Base is ContractMetadata, Multicall, Ownable, ERC20Permit {... */\n  mload(0x80)\n  mload(0xa0)\n  mload(0xc0)\n  mload(0xe0)\n  codecopy(0x00, dataOffset(sub_0), dataSize(sub_0))\n  0x00\n  assignImmutable(\"0xc58236ec45e1f9296d9864d0cbfeeff405313b06ac94d623c45a5b4f741b2b96\")\n  0x00\n  assignImmutable(\"0x3ab4fb69c8e122442af87ae588015f836e7cde3029bbb6dab1983bc840231d63\")\n  0x00\n  assignImmutable(\"0x4f4ac30ff8bfcef8cd1068d1427faf7fb52fa3a1610b1f430e1f69a91ebb9673\")\n  0x00\n  assignImmutable(\"0x029f4bc6ebbac7821b38f11e82c50ce2b63772f63b6ad2c35af4c148b2c4bad3\")\n  return(0x00, dataSize(sub_0))\nstop\n\nsub_0: assembly {\n        /* \"base/ERC20Base.sol\":893:3202  contract ERC20Base is ContractMetadata, Multicall, Ownable, ERC20Permit {... */\n      mstore(0x40, 0x80)\n      callvalue\n      dup1\n      iszero\n      tag_1\n      jumpi\n      0x00\n      dup1\n      revert\n    tag_1:\n      pop\n      jumpi(tag_2, lt(calldatasize, 0x04))\n      shr(0xe0, calldataload(0x00))\n      dup1\n      0x70a08231\n      gt\n      tag_24\n      jumpi\n      dup1\n      0xa457c2d7\n      gt\n      tag_25\n      jumpi\n      dup1\n      0xa457c2d7\n      eq\n      tag_18\n      jumpi\n      dup1\n      0xa9059cbb\n      eq\n      tag_19\n      jumpi\n      dup1\n      0xac9650d8\n      eq\n      tag_20\n      jumpi\n      dup1\n      0xd505accf\n      eq\n      tag_21\n      jumpi\n      dup1\n      0xdd62ed3e\n      eq\n      tag_22\n      jumpi\n      dup1\n      0xe8a3d485\n      eq\n      tag_23\n      jumpi\n      0x00\n      dup1\n      revert\n    tag_25:\n      dup1\n      0x70a08231\n      eq\n      tag_13\n      jumpi\n      dup1\n      0x7ecebe00\n      eq\n      tag_14\n      jumpi\n      dup1\n      0x8da5cb5b\n      eq\n      tag_15\n      jumpi\n      dup1\n      0x938e3d7b\n      eq\n      tag_16\n      jumpi\n      dup1\n      0x95d89b41\n      eq\n      tag_17\n      jumpi\n      0x00\n      dup1\n      revert\n    tag_24:\n      dup1\n      0x313ce567\n      gt\n      tag_26\n      jumpi\n      dup1\n      0x313ce567\n      eq\n      tag_8\n      jumpi\n      dup1\n      0x3644e515\n      eq\n      tag_9\n      jumpi\n      dup1\n      0x39509351\n      eq\n      tag_10\n      jumpi\n      dup1\n      0x42966c68\n      eq\n      tag_11\n      jumpi\n      dup1\n      0x449a52f8\n      eq\n      tag_12\n      jumpi\n      0x00\n      dup1\n      revert\n    tag_26:\n      dup1\n      0x06fdde03\n      eq\n      tag_3\n      jumpi\n      dup1\n      0x095ea7b3\n      eq\n      tag_4\n      jumpi\n      dup1\n      0x13af4035\n      eq\n      tag_5\n      jumpi\n      dup1\n      0x18160ddd\n      eq\n      tag_6\n      jumpi\n      dup1\n      0x23b872dd\n      eq\n      tag_7\n      jumpi\n    tag_2:\n      0x00\n      dup1\n      revert\n        /* \"openzeppelin-presets/token/ERC20/ERC20.sol\":2187:2285  function name() public view virtual override returns (string memory) {... */\n    tag_3:\n      tag_27\n      tag_28\n      jump\t// in\n    tag_27:\n      mload(0x40)\n      tag_29\n      swap2\n      swap1\n      tag_30\n      jump\t// in\n    tag_29:\n      mload(0x40)\n      dup1\n      swap2\n      sub\n      swap1\n      return\n        /* \"openzeppelin-presets/token/ERC20/ERC20.sol\":4464:4661  function approve(address spender, uint256 amount) public virtual override returns (bool) {... */\n    tag_4:\n      tag_31\n      tag_32\n      calldatasize\n      0x04\n      tag_33\n      jump\t// in\n    tag_32:\n      tag_34\n      jump\t// in\n    tag_31:\n      mload(0x40)\n        /* \"#utility.yul\":1367:1381   */\n      swap1\n      iszero\n        /* \"#utility.yul\":1360:1382   */\n      iszero\n        /* \"#utility.yul\":1342:1383   */\n      dup2\n      mstore\n        /* \"#utility.yul\":1330:1332   */\n      0x20\n        /* \"#utility.yul\":1315:1333   */\n      add\n        /* \"openzeppelin-presets/token/ERC20/ERC20.sol\":4464:4661  function approve(address spender, uint256 amount) public virtual override returns (bool) {... */\n      tag_29\n        /* \"#utility.yul\":1202:1389   */\n      jump\n        /* \"extension/Ownable.sol\":1113:1286  function setOwner(address _newOwner) external override {... */\n    tag_5:\n      tag_37\n      tag_38\n      calldatasize\n      0x04\n      tag_39\n      jump\t// in\n    tag_38:\n      tag_40\n      jump\t// in\n    tag_37:\n      stop\n        /* \"openzeppelin-presets/token/ERC20/ERC20.sol\":3275:3381  function totalSupply() public view virtual override returns (uint256) {... */\n    tag_6:\n        /* \"openzeppelin-presets/token/ERC20/ERC20.sol\":3362:3374  _totalSupply */\n      sload(0x04)\n        /* \"openzeppelin-presets/token/ERC20/ERC20.sol\":3275:3381  function totalSupply() public view virtual override returns (uint256) {... */\n    tag_41:\n      mload(0x40)\n        /* \"#utility.yul\":1731:1756   */\n      swap1\n      dup2\n      mstore\n        /* \"#utility.yul\":1719:1721   */\n      0x20\n        /* \"#utility.yul\":1704:1722   */\n      add\n        /* \"openzeppelin-presets/token/ERC20/ERC20.sol\":3275:3381  function totalSupply() public view virtual override returns (uint256) {... */\n      tag_29\n        /* \"#utility.yul\":1585:1762   */\n      jump\n        /* \"openzeppelin-presets/token/ERC20/ERC20.sol\":5223:5509  function transferFrom(... */\n    tag_7:\n      tag_31\n      tag_46\n      calldatasize\n      0x04\n      tag_47\n      jump\t// in\n    tag_46:\n      tag_48\n      jump\t// in\n        /* \"openzeppelin-presets/token/ERC20/ERC20.sol\":3124:3215  function decimals() public view virtual override returns (uint8) {... */\n    tag_8:\n      mload(0x40)\n        /* \"openzeppelin-presets/token/ERC20/ERC20.sol\":3206:3208  18 */\n      0x12\n        /* \"#utility.yul\":2242:2278   */\n      dup2\n      mstore\n        /* \"#utility.yul\":2230:2232   */\n      0x20\n        /* \"#utility.yul\":2215:2233   */\n      add\n        /* \"openzeppelin-presets/token/ERC20/ERC20.sol\":3124:3215  function decimals() public view virtual override returns (uint8) {... */\n      tag_29\n        /* \"#utility.yul\":2100:2284   */\n      jump\n        /* \"openzeppelin-presets/token/ERC20/extensions/ERC20Permit.sol\":3015:3287  function DOMAIN_SEPARATOR() public view override returns (bytes32) {... */\n    tag_9:\n      tag_41\n      tag_55\n      jump\t// in\n        /* \"openzeppelin-presets/token/ERC20/ERC20.sol\":5904:6140  function increaseAllowance(address spender, uint256 addedValue) public virtual returns (bool) {... */\n    tag_10:\n      tag_31\n      tag_59\n      calldatasize\n      0x04\n      tag_33\n      jump\t// in\n    tag_59:\n      tag_60\n      jump\t// in\n        /* \"base/ERC20Base.sol\":2233:2397  function burn(uint256 _amount) external virtual {... */\n    tag_11:\n      tag_37\n      tag_63\n      calldatasize\n      0x04\n      tag_64\n      jump\t// in\n    tag_63:\n      tag_65\n      jump\t// in\n        /* \"base/ERC20Base.sol\":1801:2010  function mintTo(address _to, uint256 _amount) public virtual {... */\n    tag_12:\n      tag_37\n      tag_67\n      calldatasize\n      0x04\n      tag_33\n      jump\t// in\n    tag_67:\n      tag_68\n      jump\t// in\n        /* \"openzeppelin-presets/token/ERC20/ERC20.sol\":3439:3564  function balanceOf(address account) public view virtual override returns (uint256) {... */\n    tag_13:\n      tag_41\n      tag_70\n      calldatasize\n      0x04\n      tag_39\n      jump\t// in\n    tag_70:\n      sub(shl(0xa0, 0x01), 0x01)\n        /* \"openzeppelin-presets/token/ERC20/ERC20.sol\":3539:3557  _balances[account] */\n      and\n        /* \"openzeppelin-presets/token/ERC20/ERC20.sol\":3513:3520  uint256 */\n      0x00\n        /* \"openzeppelin-presets/token/ERC20/ERC20.sol\":3539:3557  _balances[account] */\n      swap1\n      dup2\n      mstore\n        /* \"openzeppelin-presets/token/ERC20/ERC20.sol\":3539:3548  _balances */\n      0x02\n        /* \"openzeppelin-presets/token/ERC20/ERC20.sol\":3539:3557  _balances[account] */\n      0x20\n      mstore\n      0x40\n      swap1\n      keccak256\n      sload\n      swap1\n        /* \"openzeppelin-presets/token/ERC20/ERC20.sol\":3439:3564  function balanceOf(address account) public view virtual override returns (uint256) {... */\n      jump\n        /* \"openzeppelin-presets/token/ERC20/extensions/ERC20Permit.sol\":2765:2891  function nonces(address owner) public view virtual override returns (uint256) {... */\n    tag_14:\n      tag_41\n      tag_74\n      calldatasize\n      0x04\n      tag_39\n      jump\t// in\n    tag_74:\n      sub(shl(0xa0, 0x01), 0x01)\n        /* \"openzeppelin-presets/token/ERC20/extensions/ERC20Permit.sol\":2860:2874  _nonces[owner] */\n      and\n        /* \"openzeppelin-presets/token/ERC20/extensions/ERC20Permit.sol\":2834:2841  uint256 */\n      0x00\n        /* \"openzeppelin-presets/token/ERC20/extensions/ERC20Permit.sol\":2860:2874  _nonces[owner] */\n      swap1\n      dup2\n      mstore\n        /* \"openzeppelin-presets/token/ERC20/extensions/ERC20Permit.sol\":2860:2867  _nonces */\n      0x07\n        /* \"openzeppelin-presets/token/ERC20/extensions/ERC20Permit.sol\":2860:2874  _nonces[owner] */\n      0x20\n      mstore\n      0x40\n      swap1\n      keccak256\n        /* \"openzeppelin-presets/utils/Counters.sol\":918:932  counter._value */\n      sload\n      swap1\n        /* \"openzeppelin-presets/token/ERC20/extensions/ERC20Permit.sol\":2765:2891  function nonces(address owner) public view virtual override returns (uint256) {... */\n      jump\n        /* \"extension/Ownable.sol\":851:937  function owner() public view override returns (address) {... */\n    tag_15:\n        /* \"extension/Ownable.sol\":924:930  _owner */\n      sload(0x01)\n        /* \"extension/Ownable.sol\":851:937  function owner() public view override returns (address) {... */\n      mload(0x40)\n      sub(shl(0xa0, 0x01), 0x01)\n        /* \"extension/Ownable.sol\":924:930  _owner */\n      swap1\n      swap2\n      and\n        /* \"#utility.yul\":2802:2853   */\n      dup2\n      mstore\n        /* \"#utility.yul\":2790:2792   */\n      0x20\n        /* \"#utility.yul\":2775:2793   */\n      add\n        /* \"extension/Ownable.sol\":851:937  function owner() public view override returns (address) {... */\n      tag_29\n        /* \"#utility.yul\":2656:2859   */\n      jump\n        /* \"extension/ContractMetadata.sol\":983:1171  function setContractURI(string memory _uri) external override {... */\n    tag_16:\n      tag_37\n      tag_82\n      calldatasize\n      0x04\n      tag_83\n      jump\t// in\n    tag_82:\n      tag_84\n      jump\t// in\n        /* \"openzeppelin-presets/token/ERC20/ERC20.sol\":2398:2500  function symbol() public view virtual override returns (string memory) {... */\n    tag_17:\n      tag_27\n      tag_86\n      jump\t// in\n        /* \"openzeppelin-presets/token/ERC20/ERC20.sol\":6627:7056  function decreaseAllowance(address spender, uint256 subtractedValue) public virtual returns (bool) {... */\n    tag_18:\n      tag_31\n      tag_89\n      calldatasize\n      0x04\n      tag_33\n      jump\t// in\n    tag_89:\n      tag_90\n      jump\t// in\n        /* \"openzeppelin-presets/token/ERC20/ERC20.sol\":3760:3949  function transfer(address to, uint256 amount) public virtual override returns (bool) {... */\n    tag_19:\n      tag_31\n      tag_93\n      calldatasize\n      0x04\n      tag_33\n      jump\t// in\n    tag_93:\n      tag_94\n      jump\t// in\n        /* \"extension/Multicall.sol\":678:997  function multicall(bytes[] calldata data) external virtual override returns (bytes[] memory results) {... */\n    tag_20:\n      tag_96\n      tag_97\n      calldatasize\n      0x04\n      tag_98\n      jump\t// in\n    tag_97:\n      tag_99\n      jump\t// in\n    tag_96:\n      mload(0x40)\n      tag_29\n      swap2\n      swap1\n      tag_101\n      jump\t// in\n        /* \"openzeppelin-presets/token/ERC20/extensions/ERC20Permit.sol\":2053:2704  function permit(... */\n    tag_21:\n      tag_37\n      tag_103\n      calldatasize\n      0x04\n      tag_104\n      jump\t// in\n    tag_103:\n      tag_105\n      jump\t// in\n        /* \"openzeppelin-presets/token/ERC20/ERC20.sol\":4007:4156  function allowance(address owner, address spender) public view virtual override returns (uint256) {... */\n    tag_22:\n      tag_41\n      tag_107\n      calldatasize\n      0x04\n      tag_108\n      jump\t// in\n    tag_107:\n      sub(shl(0xa0, 0x01), 0x01)\n        /* \"openzeppelin-presets/token/ERC20/ERC20.sol\":4122:4140  _allowances[owner] */\n      swap2\n      dup3\n      and\n        /* \"openzeppelin-presets/token/ERC20/ERC20.sol\":4096:4103  uint256 */\n      0x00\n        /* \"openzeppelin-presets/token/ERC20/ERC20.sol\":4122:4140  _allowances[owner] */\n      swap1\n      dup2\n      mstore\n        /* \"openzeppelin-presets/token/ERC20/ERC20.sol\":4122:4133  _allowances */\n      0x03\n        /* \"openzeppelin-presets/token/ERC20/ERC20.sol\":4122:4140  _allowances[owner] */\n      0x20\n      swap1\n      dup2\n      mstore\n      0x40\n      dup1\n      dup4\n      keccak256\n        /* \"openzeppelin-presets/token/ERC20/ERC20.sol\":4122:4149  _allowances[owner][spender] */\n      swap4\n      swap1\n      swap5\n      and\n      dup3\n      mstore\n      swap2\n      swap1\n      swap2\n      mstore\n      keccak256\n      sload\n      swap1\n        /* \"openzeppelin-presets/token/ERC20/ERC20.sol\":4007:4156  function allowance(address owner, address spender) public view virtual override returns (uint256) {... */\n      jump\n        /* \"extension/ContractMetadata.sol\":545:579  string public override contractURI */\n    tag_23:\n      tag_27\n      tag_112\n      jump\t// in\n        /* \"openzeppelin-presets/token/ERC20/ERC20.sol\":2187:2285  function name() public view virtual override returns (string memory) {... */\n    tag_28:\n        /* \"openzeppelin-presets/token/ERC20/ERC20.sol\":2241:2254  string memory */\n      0x60\n        /* \"openzeppelin-presets/token/ERC20/ERC20.sol\":2273:2278  _name */\n      0x05\n        /* \"openzeppelin-presets/token/ERC20/ERC20.sol\":2266:2278  return _name */\n      dup1\n      sload\n      tag_115\n      swap1\n      tag_116\n      jump\t// in\n    tag_115:\n      dup1\n      0x1f\n      add\n      0x20\n      dup1\n      swap2\n      div\n      mul\n      0x20\n      add\n      mload(0x40)\n      swap1\n      dup2\n      add\n      0x40\n      mstore\n      dup1\n      swap3\n      swap2\n      swap1\n      dup2\n      dup2\n      mstore\n      0x20\n      add\n      dup3\n      dup1\n      sload\n      tag_117\n      swap1\n      tag_116\n      jump\t// in\n    tag_117:\n      dup1\n      iszero\n      tag_118\n      jumpi\n      dup1\n      0x1f\n      lt\n      tag_119\n      jumpi\n      0x0100\n      dup1\n      dup4\n      sload\n      div\n      mul\n      dup4\n      mstore\n      swap2\n      0x20\n      add\n      swap2\n      jump(tag_118)\n    tag_119:\n      dup3\n      add\n      swap2\n      swap1\n      0x00\n      mstore\n      keccak256(0x00, 0x20)\n      swap1\n    tag_120:\n      dup2\n      sload\n      dup2\n      mstore\n      swap1\n      0x01\n      add\n      swap1\n      0x20\n      add\n      dup1\n      dup4\n      gt\n      tag_120\n      jumpi\n      dup3\n      swap1\n      sub\n      0x1f\n      and\n      dup3\n      add\n      swap2\n    tag_118:\n      pop\n      pop\n      pop\n      pop\n      pop\n      swap1\n      pop\n        /* \"openzeppelin-presets/token/ERC20/ERC20.sol\":2187:2285  function name() public view virtual override returns (string memory) {... */\n      swap1\n      jump\t// out\n        /* \"openzeppelin-presets/token/ERC20/ERC20.sol\":4464:4661  function approve(address spender, uint256 amount) public virtual override returns (bool) {... */\n    tag_34:\n        /* \"openzeppelin-presets/token/ERC20/ERC20.sol\":4547:4551  bool */\n      0x00\n        /* \"openzeppelin-presets/utils/Context.sol\":719:729  msg.sender */\n      caller\n        /* \"openzeppelin-presets/token/ERC20/ERC20.sol\":4601:4633  _approve(owner, spender, amount) */\n      tag_124\n        /* \"openzeppelin-presets/utils/Context.sol\":719:729  msg.sender */\n      dup2\n        /* \"openzeppelin-presets/token/ERC20/ERC20.sol\":4617:4624  spender */\n      dup6\n        /* \"openzeppelin-presets/token/ERC20/ERC20.sol\":4626:4632  amount */\n      dup6\n        /* \"openzeppelin-presets/token/ERC20/ERC20.sol\":4601:4609  _approve */\n      tag_125\n        /* \"openzeppelin-presets/token/ERC20/ERC20.sol\":4601:4633  _approve(owner, spender, amount) */\n      jump\t// in\n    tag_124:\n      pop\n        /* \"openzeppelin-presets/token/ERC20/ERC20.sol\":4650:4654  true */\n      0x01\n      swap4\n        /* \"openzeppelin-presets/token/ERC20/ERC20.sol\":4464:4661  function approve(address spender, uint256 amount) public virtual override returns (bool) {... */\n      swap3\n      pop\n      pop\n      pop\n      jump\t// out\n        /* \"extension/Ownable.sol\":1113:1286  function setOwner(address _newOwner) external override {... */\n    tag_40:\n        /* \"extension/Ownable.sol\":1183:1197  _canSetOwner() */\n      tag_127\n        /* \"extension/Ownable.sol\":1183:1195  _canSetOwner */\n      tag_128\n        /* \"extension/Ownable.sol\":1183:1197  _canSetOwner() */\n      jump\t// in\n    tag_127:\n        /* \"extension/Ownable.sol\":1178:1248  if (!_canSetOwner()) {... */\n      tag_129\n      jumpi\n        /* \"extension/Ownable.sol\":1213:1237  revert(\"Not authorized\") */\n      mload(0x40)\n      shl(0xe5, 0x461bcd)\n      dup2\n      mstore\n        /* \"#utility.yul\":6910:6912   */\n      0x20\n        /* \"extension/Ownable.sol\":1213:1237  revert(\"Not authorized\") */\n      0x04\n      dup3\n      add\n        /* \"#utility.yul\":6892:6913   */\n      mstore\n        /* \"#utility.yul\":6949:6951   */\n      0x0e\n        /* \"#utility.yul\":6929:6947   */\n      0x24\n      dup3\n      add\n        /* \"#utility.yul\":6922:6952   */\n      mstore\n      shl(0x92, 0x139bdd08185d5d1a1bdc9a5e9959)\n        /* \"#utility.yul\":6968:6986   */\n      0x44\n      dup3\n      add\n        /* \"#utility.yul\":6961:7005   */\n      mstore\n        /* \"#utility.yul\":7022:7040   */\n      0x64\n      add\n        /* \"extension/Ownable.sol\":1213:1237  revert(\"Not authorized\") */\n    tag_130:\n      mload(0x40)\n      dup1\n      swap2\n      sub\n      swap1\n      revert\n        /* \"extension/Ownable.sol\":1178:1248  if (!_canSetOwner()) {... */\n    tag_129:\n        /* \"extension/Ownable.sol\":1257:1279  _setupOwner(_newOwner) */\n      tag_132\n        /* \"extension/Ownable.sol\":1269:1278  _newOwner */\n      dup2\n        /* \"extension/Ownable.sol\":1257:1268  _setupOwner */\n      tag_133\n        /* \"extension/Ownable.sol\":1257:1279  _setupOwner(_newOwner) */\n      jump\t// in\n    tag_132:\n        /* \"extension/Ownable.sol\":1113:1286  function setOwner(address _newOwner) external override {... */\n      pop\n      jump\t// out\n        /* \"openzeppelin-presets/token/ERC20/ERC20.sol\":5223:5509  function transferFrom(... */\n    tag_48:\n        /* \"openzeppelin-presets/token/ERC20/ERC20.sol\":5350:5354  bool */\n      0x00\n        /* \"openzeppelin-presets/utils/Context.sol\":719:729  msg.sender */\n      caller\n        /* \"openzeppelin-presets/token/ERC20/ERC20.sol\":5406:5444  _spendAllowance(from, spender, amount) */\n      tag_137\n        /* \"openzeppelin-presets/token/ERC20/ERC20.sol\":5422:5426  from */\n      dup6\n        /* \"openzeppelin-presets/utils/Context.sol\":719:729  msg.sender */\n      dup3\n        /* \"openzeppelin-presets/token/ERC20/ERC20.sol\":5437:5443  amount */\n      dup6\n        /* \"openzeppelin-presets/token/ERC20/ERC20.sol\":5406:5421  _spendAllowance */\n      tag_138\n        /* \"openzeppelin-presets/token/ERC20/ERC20.sol\":5406:5444  _spendAllowance(from, spender, amount) */\n      jump\t// in\n    tag_137:\n        /* \"openzeppelin-presets/token/ERC20/ERC20.sol\":5454:5481  _transfer(from, to, amount) */\n      tag_139\n        /* \"openzeppelin-presets/token/ERC20/ERC20.sol\":5464:5468  from */\n      dup6\n        /* \"openzeppelin-presets/token/ERC20/ERC20.sol\":5470:5472  to */\n      dup6\n        /* \"openzeppelin-presets/token/ERC20/ERC20.sol\":5474:5480  amount */\n      dup6\n        /* \"openzeppelin-presets/token/ERC20/ERC20.sol\":5454:5463  _transfer */\n      tag_140\n        /* \"openzeppelin-presets/token/ERC20/ERC20.sol\":5454:5481  _transfer(from, to, amount) */\n      jump\t// in\n    tag_139:\n        /* \"openzeppelin-presets/token/ERC20/ERC20.sol\":5498:5502  true */\n      0x01\n        /* \"openzeppelin-presets/token/ERC20/ERC20.sol\":5491:5502  return true */\n      swap2\n      pop\n      pop\n        /* \"openzeppelin-presets/token/ERC20/ERC20.sol\":5223:5509  function transferFrom(... */\n    tag_135:\n      swap4\n      swap3\n      pop\n      pop\n      pop\n      jump\t// out\n        /* \"openzeppelin-presets/token/ERC20/extensions/ERC20Permit.sol\":3015:3287  function DOMAIN_SEPARATOR() public view override returns (bytes32) {... */\n    tag_55:\n        /* \"openzeppelin-presets/token/ERC20/extensions/ERC20Permit.sol\":3073:3080  bytes32 */\n      0x00\n        /* \"openzeppelin-presets/token/ERC20/extensions/ERC20Permit.sol\":3104:3108  this */\n      address\n      sub(shl(0xa0, 0x01), 0x01)\n        /* \"openzeppelin-presets/token/ERC20/extensions/ERC20Permit.sol\":3113:3125  _CACHED_THIS */\n      immutable(\"0x3ab4fb69c8e122442af87ae588015f836e7cde3029bbb6dab1983bc840231d63\")\n        /* \"openzeppelin-presets/token/ERC20/extensions/ERC20Permit.sol\":3096:3125  address(this) == _CACHED_THIS */\n      and\n      eq\n        /* \"openzeppelin-presets/token/ERC20/extensions/ERC20Permit.sol\":3096:3162  address(this) == _CACHED_THIS && block.chainid == _CACHED_CHAIN_ID */\n      dup1\n      iszero\n      tag_143\n      jumpi\n      pop\n        /* \"openzeppelin-presets/token/ERC20/extensions/ERC20Permit.sol\":3146:3162  _CACHED_CHAIN_ID */\n      immutable(\"0x4f4ac30ff8bfcef8cd1068d1427faf7fb52fa3a1610b1f430e1f69a91ebb9673\")\n        /* \"openzeppelin-presets/token/ERC20/extensions/ERC20Permit.sol\":3129:3142  block.chainid */\n      chainid\n        /* \"openzeppelin-presets/token/ERC20/extensions/ERC20Permit.sol\":3129:3162  block.chainid == _CACHED_CHAIN_ID */\n      eq\n        /* \"openzeppelin-presets/token/ERC20/extensions/ERC20Permit.sol\":3096:3162  address(this) == _CACHED_THIS && block.chainid == _CACHED_CHAIN_ID */\n    tag_143:\n        /* \"openzeppelin-presets/token/ERC20/extensions/ERC20Permit.sol\":3092:3281  if (address(this) == _CACHED_THIS && block.chainid == _CACHED_CHAIN_ID) {... */\n      iszero\n      tag_144\n      jumpi\n      pop\n        /* \"openzeppelin-presets/token/ERC20/extensions/ERC20Permit.sol\":3185:3209  _CACHED_DOMAIN_SEPARATOR */\n      immutable(\"0x029f4bc6ebbac7821b38f11e82c50ce2b63772f63b6ad2c35af4c148b2c4bad3\")\n      swap1\n        /* \"openzeppelin-presets/token/ERC20/extensions/ERC20Permit.sol\":3015:3287  function DOMAIN_SEPARATOR() public view override returns (bytes32) {... */\n      jump\t// out\n        /* \"openzeppelin-presets/token/ERC20/extensions/ERC20Permit.sol\":3092:3281  if (address(this) == _CACHED_THIS && block.chainid == _CACHED_CHAIN_ID) {... */\n    tag_144:\n        /* \"openzeppelin-presets/token/ERC20/extensions/ERC20Permit.sol\":3247:3270  _buildDomainSeparator() */\n      tag_146\n        /* \"openzeppelin-presets/token/ERC20/extensions/ERC20Permit.sol\":3247:3268  _buildDomainSeparator */\n      tag_147\n        /* \"openzeppelin-presets/token/ERC20/extensions/ERC20Permit.sol\":3247:3270  _buildDomainSeparator() */\n      jump\t// in\n    tag_146:\n        /* \"openzeppelin-presets/token/ERC20/extensions/ERC20Permit.sol\":3240:3270  return _buildDomainSeparator() */\n      swap1\n      pop\n        /* \"openzeppelin-presets/token/ERC20/extensions/ERC20Permit.sol\":3015:3287  function DOMAIN_SEPARATOR() public view override returns (bytes32) {... */\n      swap1\n      jump\t// out\n        /* \"openzeppelin-presets/token/ERC20/ERC20.sol\":5904:6140  function increaseAllowance(address spender, uint256 addedValue) public virtual returns (bool) {... */\n    tag_60:\n        /* \"openzeppelin-presets/utils/Context.sol\":719:729  msg.sender */\n      caller\n        /* \"openzeppelin-presets/token/ERC20/ERC20.sol\":5992:5996  bool */\n      0x00\n        /* \"openzeppelin-presets/token/ERC20/ERC20.sol\":6071:6089  _allowances[owner] */\n      dup2\n      dup2\n      mstore\n        /* \"openzeppelin-presets/token/ERC20/ERC20.sol\":6071:6082  _allowances */\n      0x03\n        /* \"openzeppelin-presets/token/ERC20/ERC20.sol\":6071:6089  _allowances[owner] */\n      0x20\n      swap1\n      dup2\n      mstore\n      0x40\n      dup1\n      dup4\n      keccak256\n      sub(shl(0xa0, 0x01), 0x01)\n        /* \"openzeppelin-presets/token/ERC20/ERC20.sol\":6071:6098  _allowances[owner][spender] */\n      dup8\n      and\n      dup5\n      mstore\n      swap1\n      swap2\n      mstore\n      dup2\n      keccak256\n      sload\n        /* \"openzeppelin-presets/token/ERC20/ERC20.sol\":5992:5996  bool */\n      swap1\n      swap2\n        /* \"openzeppelin-presets/utils/Context.sol\":719:729  msg.sender */\n      swap1\n        /* \"openzeppelin-presets/token/ERC20/ERC20.sol\":6046:6112  _approve(owner, spender, _allowances[owner][spender] + addedValue) */\n      tag_124\n      swap1\n        /* \"openzeppelin-presets/utils/Context.sol\":719:729  msg.sender */\n      dup3\n      swap1\n        /* \"openzeppelin-presets/token/ERC20/ERC20.sol\":6071:6098  _allowances[owner][spender] */\n      dup7\n      swap1\n        /* \"openzeppelin-presets/token/ERC20/ERC20.sol\":6071:6111  _allowances[owner][spender] + addedValue */\n      tag_151\n      swap1\n        /* \"openzeppelin-presets/token/ERC20/ERC20.sol\":6101:6111  addedValue */\n      dup8\n      swap1\n        /* \"openzeppelin-presets/token/ERC20/ERC20.sol\":6071:6111  _allowances[owner][spender] + addedValue */\n      tag_152\n      jump\t// in\n    tag_151:\n        /* \"openzeppelin-presets/token/ERC20/ERC20.sol\":6046:6054  _approve */\n      tag_125\n        /* \"openzeppelin-presets/token/ERC20/ERC20.sol\":6046:6112  _approve(owner, spender, _allowances[owner][spender] + addedValue) */\n      jump\t// in\n        /* \"base/ERC20Base.sol\":2233:2397  function burn(uint256 _amount) external virtual {... */\n    tag_65:\n        /* \"base/ERC20Base.sol\":2309:2319  msg.sender */\n      caller\n        /* \"openzeppelin-presets/token/ERC20/ERC20.sol\":3513:3520  uint256 */\n      0x00\n        /* \"openzeppelin-presets/token/ERC20/ERC20.sol\":3539:3557  _balances[account] */\n      swap1\n      dup2\n      mstore\n        /* \"openzeppelin-presets/token/ERC20/ERC20.sol\":3539:3548  _balances */\n      0x02\n        /* \"openzeppelin-presets/token/ERC20/ERC20.sol\":3539:3557  _balances[account] */\n      0x20\n      mstore\n      0x40\n      swap1\n      keccak256\n      sload\n        /* \"base/ERC20Base.sol\":2324:2331  _amount */\n      dup2\n      gt\n        /* \"base/ERC20Base.sol\":2299:2331  balanceOf(msg.sender) >= _amount */\n      iszero\n        /* \"base/ERC20Base.sol\":2291:2354  require(balanceOf(msg.sender) >= _amount, \"not enough balance\") */\n      tag_155\n      jumpi\n      mload(0x40)\n      shl(0xe5, 0x461bcd)\n      dup2\n      mstore\n        /* \"#utility.yul\":7518:7520   */\n      0x20\n        /* \"base/ERC20Base.sol\":2291:2354  require(balanceOf(msg.sender) >= _amount, \"not enough balance\") */\n      0x04\n      dup3\n      add\n        /* \"#utility.yul\":7500:7521   */\n      mstore\n        /* \"#utility.yul\":7557:7559   */\n      0x12\n        /* \"#utility.yul\":7537:7555   */\n      0x24\n      dup3\n      add\n        /* \"#utility.yul\":7530:7560   */\n      mstore\n      shl(0x70, 0x6e6f7420656e6f7567682062616c616e6365)\n        /* \"#utility.yul\":7576:7594   */\n      0x44\n      dup3\n      add\n        /* \"#utility.yul\":7569:7617   */\n      mstore\n        /* \"#utility.yul\":7634:7652   */\n      0x64\n      add\n        /* \"base/ERC20Base.sol\":2291:2354  require(balanceOf(msg.sender) >= _amount, \"not enough balance\") */\n      tag_130\n        /* \"#utility.yul\":7316:7658   */\n      jump\n        /* \"base/ERC20Base.sol\":2291:2354  require(balanceOf(msg.sender) >= _amount, \"not enough balance\") */\n    tag_155:\n        /* \"base/ERC20Base.sol\":2364:2390  _burn(msg.sender, _amount) */\n      tag_132\n        /* \"base/ERC20Base.sol\":2370:2380  msg.sender */\n      caller\n        /* \"base/ERC20Base.sol\":2382:2389  _amount */\n      dup3\n        /* \"base/ERC20Base.sol\":2364:2369  _burn */\n      tag_159\n        /* \"base/ERC20Base.sol\":2364:2390  _burn(msg.sender, _amount) */\n      jump\t// in\n        /* \"base/ERC20Base.sol\":1801:2010  function mintTo(address _to, uint256 _amount) public virtual {... */\n    tag_68:\n        /* \"base/ERC20Base.sol\":1880:1890  _canMint() */\n      tag_161\n        /* \"base/ERC20Base.sol\":1880:1888  _canMint */\n      tag_128\n        /* \"base/ERC20Base.sol\":1880:1890  _canMint() */\n      jump\t// in\n    tag_161:\n        /* \"base/ERC20Base.sol\":1872:1918  require(_canMint(), \"Not authorized to mint.\") */\n      tag_163\n      jumpi\n      mload(0x40)\n      shl(0xe5, 0x461bcd)\n      dup2\n      mstore\n        /* \"#utility.yul\":7865:7867   */\n      0x20\n        /* \"base/ERC20Base.sol\":1872:1918  require(_canMint(), \"Not authorized to mint.\") */\n      0x04\n      dup3\n      add\n        /* \"#utility.yul\":7847:7868   */\n      mstore\n        /* \"#utility.yul\":7904:7906   */\n      0x17\n        /* \"#utility.yul\":7884:7902   */\n      0x24\n      dup3\n      add\n        /* \"#utility.yul\":7877:7907   */\n      mstore\n        /* \"#utility.yul\":7943:7968   */\n      0x4e6f7420617574686f72697a656420746f206d696e742e000000000000000000\n        /* \"#utility.yul\":7923:7941   */\n      0x44\n      dup3\n      add\n        /* \"#utility.yul\":7916:7969   */\n      mstore\n        /* \"#utility.yul\":7986:8004   */\n      0x64\n      add\n        /* \"base/ERC20Base.sol\":1872:1918  require(_canMint(), \"Not authorized to mint.\") */\n      tag_130\n        /* \"#utility.yul\":7663:8010   */\n      jump\n        /* \"base/ERC20Base.sol\":1872:1918  require(_canMint(), \"Not authorized to mint.\") */\n    tag_163:\n        /* \"base/ERC20Base.sol\":1936:1948  _amount != 0 */\n      dup1\n        /* \"base/ERC20Base.sol\":1928:1973  require(_amount != 0, \"Minting zero tokens.\") */\n      tag_166\n      jumpi\n      mload(0x40)\n      shl(0xe5, 0x461bcd)\n      dup2\n      mstore\n        /* \"#utility.yul\":8217:8219   */\n      0x20\n        /* \"base/ERC20Base.sol\":1928:1973  require(_amount != 0, \"Minting zero tokens.\") */\n      0x04\n      dup3\n      add\n        /* \"#utility.yul\":8199:8220   */\n      mstore\n        /* \"#utility.yul\":8256:8258   */\n      0x14\n        /* \"#utility.yul\":8236:8254   */\n      0x24\n      dup3\n      add\n        /* \"#utility.yul\":8229:8259   */\n      mstore\n      shl(0x61, 0x26b4b73a34b733903d32b937903a37b5b2b73997)\n        /* \"#utility.yul\":8275:8293   */\n      0x44\n      dup3\n      add\n        /* \"#utility.yul\":8268:8318   */\n      mstore\n        /* \"#utility.yul\":8335:8353   */\n      0x64\n      add\n        /* \"base/ERC20Base.sol\":1928:1973  require(_amount != 0, \"Minting zero tokens.\") */\n      tag_130\n        /* \"#utility.yul\":8015:8359   */\n      jump\n        /* \"base/ERC20Base.sol\":1928:1973  require(_amount != 0, \"Minting zero tokens.\") */\n    tag_166:\n        /* \"base/ERC20Base.sol\":1984:2003  _mint(_to, _amount) */\n      tag_169\n        /* \"base/ERC20Base.sol\":1990:1993  _to */\n      dup3\n        /* \"base/ERC20Base.sol\":1995:2002  _amount */\n      dup3\n        /* \"base/ERC20Base.sol\":1984:1989  _mint */\n      tag_170\n        /* \"base/ERC20Base.sol\":1984:2003  _mint(_to, _amount) */\n      jump\t// in\n    tag_169:\n        /* \"base/ERC20Base.sol\":1801:2010  function mintTo(address _to, uint256 _amount) public virtual {... */\n      pop\n      pop\n      jump\t// out\n        /* \"extension/ContractMetadata.sol\":983:1171  function setContractURI(string memory _uri) external override {... */\n    tag_84:\n        /* \"extension/ContractMetadata.sol\":1060:1080  _canSetContractURI() */\n      tag_177\n        /* \"extension/ContractMetadata.sol\":1060:1078  _canSetContractURI */\n      tag_128\n        /* \"extension/ContractMetadata.sol\":1060:1080  _canSetContractURI() */\n      jump\t// in\n    tag_177:\n        /* \"extension/ContractMetadata.sol\":1055:1131  if (!_canSetContractURI()) {... */\n      tag_179\n      jumpi\n        /* \"extension/ContractMetadata.sol\":1096:1120  revert(\"Not authorized\") */\n      mload(0x40)\n      shl(0xe5, 0x461bcd)\n      dup2\n      mstore\n        /* \"#utility.yul\":6910:6912   */\n      0x20\n        /* \"extension/ContractMetadata.sol\":1096:1120  revert(\"Not authorized\") */\n      0x04\n      dup3\n      add\n        /* \"#utility.yul\":6892:6913   */\n      mstore\n        /* \"#utility.yul\":6949:6951   */\n      0x0e\n        /* \"#utility.yul\":6929:6947   */\n      0x24\n      dup3\n      add\n        /* \"#utility.yul\":6922:6952   */\n      mstore\n      shl(0x92, 0x139bdd08185d5d1a1bdc9a5e9959)\n        /* \"#utility.yul\":6968:6986   */\n      0x44\n      dup3\n      add\n        /* \"#utility.yul\":6961:7005   */\n      mstore\n        /* \"#utility.yul\":7022:7040   */\n      0x64\n      add\n        /* \"extension/ContractMetadata.sol\":1096:1120  revert(\"Not authorized\") */\n      tag_130\n        /* \"#utility.yul\":6708:7046   */\n      jump\n        /* \"extension/ContractMetadata.sol\":1055:1131  if (!_canSetContractURI()) {... */\n    tag_179:\n        /* \"extension/ContractMetadata.sol\":1141:1164  _setupContractURI(_uri) */\n      tag_132\n        /* \"extension/ContractMetadata.sol\":1159:1163  _uri */\n      dup2\n        /* \"extension/ContractMetadata.sol\":1141:1158  _setupContractURI */\n      tag_182\n        /* \"extension/ContractMetadata.sol\":1141:1164  _setupContractURI(_uri) */\n      jump\t// in\n        /* \"openzeppelin-presets/token/ERC20/ERC20.sol\":2398:2500  function symbol() public view virtual override returns (string memory) {... */\n    tag_86:\n        /* \"openzeppelin-presets/token/ERC20/ERC20.sol\":2454:2467  string memory */\n      0x60\n        /* \"openzeppelin-presets/token/ERC20/ERC20.sol\":2486:2493  _symbol */\n      0x06\n        /* \"openzeppelin-presets/token/ERC20/ERC20.sol\":2479:2493  return _symbol */\n      dup1\n      sload\n      tag_115\n      swap1\n      tag_116\n      jump\t// in\n        /* \"openzeppelin-presets/token/ERC20/ERC20.sol\":6627:7056  function decreaseAllowance(address spender, uint256 subtractedValue) public virtual returns (bool) {... */\n    tag_90:\n        /* \"openzeppelin-presets/utils/Context.sol\":719:729  msg.sender */\n      caller\n        /* \"openzeppelin-presets/token/ERC20/ERC20.sol\":6720:6724  bool */\n      0x00\n        /* \"openzeppelin-presets/token/ERC20/ERC20.sol\":6801:6819  _allowances[owner] */\n      dup2\n      dup2\n      mstore\n        /* \"openzeppelin-presets/token/ERC20/ERC20.sol\":6801:6812  _allowances */\n      0x03\n        /* \"openzeppelin-presets/token/ERC20/ERC20.sol\":6801:6819  _allowances[owner] */\n      0x20\n      swap1\n      dup2\n      mstore\n      0x40\n      dup1\n      dup4\n      keccak256\n      sub(shl(0xa0, 0x01), 0x01)\n        /* \"openzeppelin-presets/token/ERC20/ERC20.sol\":6801:6828  _allowances[owner][spender] */\n      dup8\n      and\n      dup5\n      mstore\n      swap1\n      swap2\n      mstore\n      dup2\n      keccak256\n      sload\n        /* \"openzeppelin-presets/token/ERC20/ERC20.sol\":6720:6724  bool */\n      swap1\n      swap2\n        /* \"openzeppelin-presets/utils/Context.sol\":719:729  msg.sender */\n      swap1\n        /* \"openzeppelin-presets/token/ERC20/ERC20.sol\":6846:6881  currentAllowance >= subtractedValue */\n      dup4\n      dup2\n      lt\n      iszero\n        /* \"openzeppelin-presets/token/ERC20/ERC20.sol\":6838:6923  require(currentAllowance >= subtractedValue, \"ERC20: decreased allowance below zero\") */\n      tag_191\n      jumpi\n      mload(0x40)\n      shl(0xe5, 0x461bcd)\n      dup2\n      mstore\n        /* \"#utility.yul\":8566:8568   */\n      0x20\n        /* \"openzeppelin-presets/token/ERC20/ERC20.sol\":6838:6923  require(currentAllowance >= subtractedValue, \"ERC20: decreased allowance below zero\") */\n      0x04\n      dup3\n      add\n        /* \"#utility.yul\":8548:8569   */\n      mstore\n        /* \"#utility.yul\":8605:8607   */\n      0x25\n        /* \"#utility.yul\":8585:8603   */\n      0x24\n      dup3\n      add\n        /* \"#utility.yul\":8578:8608   */\n      mstore\n        /* \"#utility.yul\":8644:8678   */\n      0x45524332303a2064656372656173656420616c6c6f77616e63652062656c6f77\n        /* \"#utility.yul\":8624:8642   */\n      0x44\n      dup3\n      add\n        /* \"#utility.yul\":8617:8679   */\n      mstore\n      shl(0xd8, 0x207a65726f)\n        /* \"#utility.yul\":8695:8713   */\n      0x64\n      dup3\n      add\n        /* \"#utility.yul\":8688:8723   */\n      mstore\n        /* \"#utility.yul\":8740:8759   */\n      0x84\n      add\n        /* \"openzeppelin-presets/token/ERC20/ERC20.sol\":6838:6923  require(currentAllowance >= subtractedValue, \"ERC20: decreased allowance below zero\") */\n      tag_130\n        /* \"#utility.yul\":8364:8765   */\n      jump\n        /* \"openzeppelin-presets/token/ERC20/ERC20.sol\":6838:6923  require(currentAllowance >= subtractedValue, \"ERC20: decreased allowance below zero\") */\n    tag_191:\n        /* \"openzeppelin-presets/token/ERC20/ERC20.sol\":6957:7017  _approve(owner, spender, currentAllowance - subtractedValue) */\n      tag_194\n        /* \"openzeppelin-presets/token/ERC20/ERC20.sol\":6966:6971  owner */\n      dup3\n        /* \"openzeppelin-presets/token/ERC20/ERC20.sol\":6973:6980  spender */\n      dup7\n        /* \"openzeppelin-presets/token/ERC20/ERC20.sol\":7001:7016  subtractedValue */\n      dup7\n        /* \"openzeppelin-presets/token/ERC20/ERC20.sol\":6982:6998  currentAllowance */\n      dup5\n        /* \"openzeppelin-presets/token/ERC20/ERC20.sol\":6982:7016  currentAllowance - subtractedValue */\n      sub\n        /* \"openzeppelin-presets/token/ERC20/ERC20.sol\":6957:6965  _approve */\n      tag_125\n        /* \"openzeppelin-presets/token/ERC20/ERC20.sol\":6957:7017  _approve(owner, spender, currentAllowance - subtractedValue) */\n      jump\t// in\n    tag_194:\n      pop\n        /* \"openzeppelin-presets/token/ERC20/ERC20.sol\":7045:7049  true */\n      0x01\n      swap5\n        /* \"openzeppelin-presets/token/ERC20/ERC20.sol\":6627:7056  function decreaseAllowance(address spender, uint256 subtractedValue) public virtual returns (bool) {... */\n      swap4\n      pop\n      pop\n      pop\n      pop\n      jump\t// out\n        /* \"openzeppelin-presets/token/ERC20/ERC20.sol\":3760:3949  function transfer(address to, uint256 amount) public virtual override returns (bool) {... */\n    tag_94:\n        /* \"openzeppelin-presets/token/ERC20/ERC20.sol\":3839:3843  bool */\n      0x00\n        /* \"openzeppelin-presets/utils/Context.sol\":719:729  msg.sender */\n      caller\n        /* \"openzeppelin-presets/token/ERC20/ERC20.sol\":3893:3921  _transfer(owner, to, amount) */\n      tag_124\n        /* \"openzeppelin-presets/utils/Context.sol\":719:729  msg.sender */\n      dup2\n        /* \"openzeppelin-presets/token/ERC20/ERC20.sol\":3910:3912  to */\n      dup6\n        /* \"openzeppelin-presets/token/ERC20/ERC20.sol\":3914:3920  amount */\n      dup6\n        /* \"openzeppelin-presets/token/ERC20/ERC20.sol\":3893:3902  _transfer */\n      tag_140\n        /* \"openzeppelin-presets/token/ERC20/ERC20.sol\":3893:3921  _transfer(owner, to, amount) */\n      jump\t// in\n        /* \"extension/Multicall.sol\":678:997  function multicall(bytes[] calldata data) external virtual override returns (bytes[] memory results) {... */\n    tag_99:\n        /* \"extension/Multicall.sol\":755:777  bytes[] memory results */\n      0x60\n        /* \"extension/Multicall.sol\":811:815  data */\n      dup2\n        /* \"extension/Multicall.sol\":799:823  new bytes[](data.length) */\n      0xffffffffffffffff\n      dup2\n      gt\n      iszero\n      tag_200\n      jumpi\n      tag_200\n      tag_201\n      jump\t// in\n    tag_200:\n      mload(0x40)\n      swap1\n      dup1\n      dup3\n      mstore\n      dup1\n      0x20\n      mul\n      0x20\n      add\n      dup3\n      add\n      0x40\n      mstore\n      dup1\n      iszero\n      tag_202\n      jumpi\n      dup2\n      0x20\n      add\n    tag_203:\n      0x60\n      dup2\n      mstore\n      0x20\n      add\n      swap1\n      0x01\n      swap1\n      sub\n      swap1\n      dup2\n      tag_203\n      jumpi\n      swap1\n      pop\n    tag_202:\n      pop\n        /* \"extension/Multicall.sol\":789:823  results = new bytes[](data.length) */\n      swap1\n      pop\n        /* \"extension/Multicall.sol\":838:847  uint256 i */\n      0x00\n        /* \"extension/Multicall.sol\":833:967  for (uint256 i = 0; i < data.length; i++) {... */\n    tag_204:\n        /* \"extension/Multicall.sol\":853:868  i < data.length */\n      dup3\n      dup2\n      lt\n        /* \"extension/Multicall.sol\":833:967  for (uint256 i = 0; i < data.length; i++) {... */\n      iszero\n      tag_205\n      jumpi\n        /* \"extension/Multicall.sol\":902:956  TWAddress.functionDelegateCall(address(this), data[i]) */\n      tag_207\n        /* \"extension/Multicall.sol\":941:945  this */\n      address\n        /* \"extension/Multicall.sol\":948:952  data */\n      dup6\n      dup6\n        /* \"extension/Multicall.sol\":953:954  i */\n      dup5\n        /* \"extension/Multicall.sol\":948:955  data[i] */\n      dup2\n      dup2\n      lt\n      tag_209\n      jumpi\n      tag_209\n      tag_210\n      jump\t// in\n    tag_209:\n      swap1\n      pop\n      0x20\n      mul\n      dup2\n      add\n      swap1\n      tag_211\n      swap2\n      swap1\n      tag_212\n      jump\t// in\n    tag_211:\n        /* \"extension/Multicall.sol\":902:956  TWAddress.functionDelegateCall(address(this), data[i]) */\n      dup1\n      dup1\n      0x1f\n      add\n      0x20\n      dup1\n      swap2\n      div\n      mul\n      0x20\n      add\n      mload(0x40)\n      swap1\n      dup2\n      add\n      0x40\n      mstore\n      dup1\n      swap4\n      swap3\n      swap2\n      swap1\n      dup2\n      dup2\n      mstore\n      0x20\n      add\n      dup4\n      dup4\n      dup1\n      dup3\n      dup5\n      calldatacopy\n      0x00\n      swap3\n      add\n      swap2\n      swap1\n      swap2\n      mstore\n      pop\n        /* \"extension/Multicall.sol\":902:932  TWAddress.functionDelegateCall */\n      tag_213\n      swap3\n      pop\n      pop\n      pop\n        /* \"extension/Multicall.sol\":902:956  TWAddress.functionDelegateCall(address(this), data[i]) */\n      jump\t// in\n    tag_207:\n        /* \"extension/Multicall.sol\":889:896  results */\n      dup3\n        /* \"extension/Multicall.sol\":897:898  i */\n      dup3\n        /* \"extension/Multicall.sol\":889:899  results[i] */\n      dup2\n      mload\n      dup2\n      lt\n      tag_215\n      jumpi\n      tag_215\n      tag_210\n      jump\t// in\n    tag_215:\n      0x20\n      mul\n      0x20\n      add\n      add\n        /* \"extension/Multicall.sol\":889:956  results[i] = TWAddress.functionDelegateCall(address(this), data[i]) */\n      dup2\n      swap1\n      mstore\n      pop\n        /* \"extension/Multicall.sol\":870:873  i++ */\n      dup1\n      dup1\n      tag_216\n      swap1\n      tag_217\n      jump\t// in\n    tag_216:\n      swap2\n      pop\n      pop\n        /* \"extension/Multicall.sol\":833:967  for (uint256 i = 0; i < data.length; i++) {... */\n      jump(tag_204)\n    tag_205:\n      pop\n        /* \"extension/Multicall.sol\":678:997  function multicall(bytes[] calldata data) external virtual override returns (bytes[] memory results) {... */\n      swap3\n      swap2\n      pop\n      pop\n      jump\t// out\n        /* \"openzeppelin-presets/token/ERC20/extensions/ERC20Permit.sol\":2053:2704  function permit(... */\n    tag_105:\n        /* \"openzeppelin-presets/token/ERC20/extensions/ERC20Permit.sol\":2288:2296  deadline */\n      dup4\n        /* \"openzeppelin-presets/token/ERC20/extensions/ERC20Permit.sol\":2269:2284  block.timestamp */\n      timestamp\n        /* \"openzeppelin-presets/token/ERC20/extensions/ERC20Permit.sol\":2269:2296  block.timestamp <= deadline */\n      gt\n      iszero\n        /* \"openzeppelin-presets/token/ERC20/extensions/ERC20Permit.sol\":2261:2330  require(block.timestamp <= deadline, \"ERC20Permit: expired deadline\") */\n      tag_219\n      jumpi\n      mload(0x40)\n      shl(0xe5, 0x461bcd)\n      dup2\n      mstore\n        /* \"#utility.yul\":9770:9772   */\n      0x20\n        /* \"openzeppelin-presets/token/ERC20/extensions/ERC20Permit.sol\":2261:2330  require(block.timestamp <= deadline, \"ERC20Permit: expired deadline\") */\n      0x04\n      dup3\n      add\n        /* \"#utility.yul\":9752:9773   */\n      mstore\n        /* \"#utility.yul\":9809:9811   */\n      0x1d\n        /* \"#utility.yul\":9789:9807   */\n      0x24\n      dup3\n      add\n        /* \"#utility.yul\":9782:9812   */\n      mstore\n        /* \"#utility.yul\":9848:9879   */\n      0x45524332305065726d69743a206578706972656420646561646c696e65000000\n        /* \"#utility.yul\":9828:9846   */\n      0x44\n      dup3\n      add\n        /* \"#utility.yul\":9821:9880   */\n      mstore\n        /* \"#utility.yul\":9897:9915   */\n      0x64\n      add\n        /* \"openzeppelin-presets/token/ERC20/extensions/ERC20Permit.sol\":2261:2330  require(block.timestamp <= deadline, \"ERC20Permit: expired deadline\") */\n      tag_130\n        /* \"#utility.yul\":9568:9921   */\n      jump\n        /* \"openzeppelin-presets/token/ERC20/extensions/ERC20Permit.sol\":2261:2330  require(block.timestamp <= deadline, \"ERC20Permit: expired deadline\") */\n    tag_219:\n        /* \"openzeppelin-presets/token/ERC20/extensions/ERC20Permit.sol\":2341:2359  bytes32 structHash */\n      0x00\n        /* \"openzeppelin-presets/token/ERC20/extensions/ERC20Permit.sol\":2383:2399  _PERMIT_TYPEHASH */\n      immutable(\"0xc58236ec45e1f9296d9864d0cbfeeff405313b06ac94d623c45a5b4f741b2b96\")\n        /* \"openzeppelin-presets/token/ERC20/extensions/ERC20Permit.sol\":2401:2406  owner */\n      dup9\n        /* \"openzeppelin-presets/token/ERC20/extensions/ERC20Permit.sol\":2408:2415  spender */\n      dup9\n        /* \"openzeppelin-presets/token/ERC20/extensions/ERC20Permit.sol\":2417:2422  value */\n      dup9\n        /* \"openzeppelin-presets/token/ERC20/extensions/ERC20Permit.sol\":2424:2440  _useNonce(owner) */\n      tag_222\n        /* \"openzeppelin-presets/token/ERC20/extensions/ERC20Permit.sol\":2434:2439  owner */\n      dup13\n        /* \"openzeppelin-presets/token/ERC20/extensions/ERC20Permit.sol\":2424:2433  _useNonce */\n      tag_223\n        /* \"openzeppelin-presets/token/ERC20/extensions/ERC20Permit.sol\":2424:2440  _useNonce(owner) */\n      jump\t// in\n    tag_222:\n        /* \"openzeppelin-presets/token/ERC20/extensions/ERC20Permit.sol\":2372:2451  abi.encode(_PERMIT_TYPEHASH, owner, spender, value, _useNonce(owner), deadline) */\n      0x40\n      dup1\n      mload\n      0x20\n      dup2\n      add\n        /* \"#utility.yul\":10213:10238   */\n      swap7\n      swap1\n      swap7\n      mstore\n      sub(shl(0xa0, 0x01), 0x01)\n        /* \"#utility.yul\":10312:10327   */\n      swap5\n      dup6\n      and\n        /* \"#utility.yul\":10292:10310   */\n      swap1\n      dup7\n      add\n        /* \"#utility.yul\":10285:10328   */\n      mstore\n        /* \"#utility.yul\":10364:10379   */\n      swap3\n      swap1\n      swap2\n      and\n        /* \"#utility.yul\":10344:10362   */\n      0x60\n      dup5\n      add\n        /* \"#utility.yul\":10337:10380   */\n      mstore\n        /* \"#utility.yul\":10396:10414   */\n      0x80\n      dup4\n      add\n        /* \"#utility.yul\":10389:10423   */\n      mstore\n        /* \"#utility.yul\":10439:10458   */\n      0xa0\n      dup3\n      add\n        /* \"#utility.yul\":10432:10467   */\n      mstore\n        /* \"#utility.yul\":10483:10502   */\n      0xc0\n      dup2\n      add\n        /* \"#utility.yul\":10476:10511   */\n      dup7\n      swap1\n      mstore\n        /* \"#utility.yul\":10185:10204   */\n      0xe0\n      add\n        /* \"openzeppelin-presets/token/ERC20/extensions/ERC20Permit.sol\":2372:2451  abi.encode(_PERMIT_TYPEHASH, owner, spender, value, _useNonce(owner), deadline) */\n      mload(0x40)\n      0x20\n      dup2\n      dup4\n      sub\n      sub\n      dup2\n      mstore\n      swap1\n      0x40\n      mstore\n        /* \"openzeppelin-presets/token/ERC20/extensions/ERC20Permit.sol\":2362:2452  keccak256(abi.encode(_PERMIT_TYPEHASH, owner, spender, value, _useNonce(owner), deadline)) */\n      dup1\n      mload\n      swap1\n      0x20\n      add\n      keccak256\n        /* \"openzeppelin-presets/token/ERC20/extensions/ERC20Permit.sol\":2341:2452  bytes32 structHash = keccak256(abi.encode(_PERMIT_TYPEHASH, owner, spender, value, _useNonce(owner), deadline)) */\n      swap1\n      pop\n        /* \"openzeppelin-presets/token/ERC20/extensions/ERC20Permit.sol\":2463:2475  bytes32 hash */\n      0x00\n        /* \"openzeppelin-presets/token/ERC20/extensions/ERC20Permit.sol\":2478:2531  ECDSA.toTypedDataHash(DOMAIN_SEPARATOR(), structHash) */\n      tag_226\n        /* \"openzeppelin-presets/token/ERC20/extensions/ERC20Permit.sol\":2500:2518  DOMAIN_SEPARATOR() */\n      tag_227\n        /* \"openzeppelin-presets/token/ERC20/extensions/ERC20Permit.sol\":2500:2516  DOMAIN_SEPARATOR */\n      tag_55\n        /* \"openzeppelin-presets/token/ERC20/extensions/ERC20Permit.sol\":2500:2518  DOMAIN_SEPARATOR() */\n      jump\t// in\n    tag_227:\n        /* \"openzeppelin-presets/token/ERC20/extensions/ERC20Permit.sol\":2520:2530  structHash */\n      dup4\n        /* \"openzeppelin-presets/utils/cryptography/ECDSA.sol\":8686:8690  0x40 */\n      0x40\n        /* \"openzeppelin-presets/utils/cryptography/ECDSA.sol\":8680:8691  mload(0x40) */\n      mload\n      shl(0xf0, 0x1901)\n        /* \"openzeppelin-presets/utils/cryptography/ECDSA.sol\":8704:8727  mstore(ptr, \"\\x19\\x01\") */\n      dup2\n      mstore\n        /* \"openzeppelin-presets/utils/cryptography/ECDSA.sol\":8756:8760  0x02 */\n      0x02\n        /* \"openzeppelin-presets/utils/cryptography/ECDSA.sol\":8747:8761  add(ptr, 0x02) */\n      dup2\n      add\n        /* \"openzeppelin-presets/utils/cryptography/ECDSA.sol\":8740:8779  mstore(add(ptr, 0x02), domainSeparator) */\n      swap3\n      swap1\n      swap3\n      mstore\n        /* \"openzeppelin-presets/utils/cryptography/ECDSA.sol\":8808:8812  0x22 */\n      0x22\n        /* \"openzeppelin-presets/utils/cryptography/ECDSA.sol\":8799:8813  add(ptr, 0x22) */\n      dup3\n      add\n        /* \"openzeppelin-presets/utils/cryptography/ECDSA.sol\":8792:8826  mstore(add(ptr, 0x22), structHash) */\n      mstore\n        /* \"openzeppelin-presets/utils/cryptography/ECDSA.sol\":8862:8866  0x42 */\n      0x42\n        /* \"openzeppelin-presets/utils/cryptography/ECDSA.sol\":8847:8867  keccak256(ptr, 0x42) */\n      swap1\n      keccak256\n      swap1\n        /* \"openzeppelin-presets/utils/cryptography/ECDSA.sol\":8486:8883  function toTypedDataHash(bytes32 domainSeparator, bytes32 structHash) internal pure returns (bytes32 data) {... */\n      jump\n        /* \"openzeppelin-presets/token/ERC20/extensions/ERC20Permit.sol\":2478:2531  ECDSA.toTypedDataHash(DOMAIN_SEPARATOR(), structHash) */\n    tag_226:\n        /* \"openzeppelin-presets/token/ERC20/extensions/ERC20Permit.sol\":2463:2531  bytes32 hash = ECDSA.toTypedDataHash(DOMAIN_SEPARATOR(), structHash) */\n      swap1\n      pop\n        /* \"openzeppelin-presets/token/ERC20/extensions/ERC20Permit.sol\":2542:2556  address signer */\n      0x00\n        /* \"openzeppelin-presets/token/ERC20/extensions/ERC20Permit.sol\":2559:2587  ECDSA.recover(hash, v, r, s) */\n      tag_229\n        /* \"openzeppelin-presets/token/ERC20/extensions/ERC20Permit.sol\":2573:2577  hash */\n      dup3\n        /* \"openzeppelin-presets/token/ERC20/extensions/ERC20Permit.sol\":2579:2580  v */\n      dup8\n        /* \"openzeppelin-presets/token/ERC20/extensions/ERC20Permit.sol\":2582:2583  r */\n      dup8\n        /* \"openzeppelin-presets/token/ERC20/extensions/ERC20Permit.sol\":2585:2586  s */\n      dup8\n        /* \"openzeppelin-presets/token/ERC20/extensions/ERC20Permit.sol\":2559:2572  ECDSA.recover */\n      tag_230\n        /* \"openzeppelin-presets/token/ERC20/extensions/ERC20Permit.sol\":2559:2587  ECDSA.recover(hash, v, r, s) */\n      jump\t// in\n    tag_229:\n        /* \"openzeppelin-presets/token/ERC20/extensions/ERC20Permit.sol\":2542:2587  address signer = ECDSA.recover(hash, v, r, s) */\n      swap1\n      pop\n        /* \"openzeppelin-presets/token/ERC20/extensions/ERC20Permit.sol\":2615:2620  owner */\n      dup10\n      sub(shl(0xa0, 0x01), 0x01)\n        /* \"openzeppelin-presets/token/ERC20/extensions/ERC20Permit.sol\":2605:2620  signer == owner */\n      and\n        /* \"openzeppelin-presets/token/ERC20/extensions/ERC20Permit.sol\":2605:2611  signer */\n      dup2\n      sub(shl(0xa0, 0x01), 0x01)\n        /* \"openzeppelin-presets/token/ERC20/extensions/ERC20Permit.sol\":2605:2620  signer == owner */\n      and\n      eq\n        /* \"openzeppelin-presets/token/ERC20/extensions/ERC20Permit.sol\":2597:2655  require(signer == owner, \"ERC20Permit: invalid signature\") */\n      tag_231\n      jumpi\n      mload(0x40)\n      shl(0xe5, 0x461bcd)\n      dup2\n      mstore\n        /* \"#utility.yul\":10724:10726   */\n      0x20\n        /* \"openzeppelin-presets/token/ERC20/extensions/ERC20Permit.sol\":2597:2655  require(signer == owner, \"ERC20Permit: invalid signature\") */\n      0x04\n      dup3\n      add\n        /* \"#utility.yul\":10706:10727   */\n      mstore\n        /* \"#utility.yul\":10763:10765   */\n      0x1e\n        /* \"#utility.yul\":10743:10761   */\n      0x24\n      dup3\n      add\n        /* \"#utility.yul\":10736:10766   */\n      mstore\n        /* \"#utility.yul\":10802:10834   */\n      0x45524332305065726d69743a20696e76616c6964207369676e61747572650000\n        /* \"#utility.yul\":10782:10800   */\n      0x44\n      dup3\n      add\n        /* \"#utility.yul\":10775:10835   */\n      mstore\n        /* \"#utility.yul\":10852:10870   */\n      0x64\n      add\n        /* \"openzeppelin-presets/token/ERC20/extensions/ERC20Permit.sol\":2597:2655  require(signer == owner, \"ERC20Permit: invalid signature\") */\n      tag_130\n        /* \"#utility.yul\":10522:10876   */\n      jump\n        /* \"openzeppelin-presets/token/ERC20/extensions/ERC20Permit.sol\":2597:2655  require(signer == owner, \"ERC20Permit: invalid signature\") */\n    tag_231:\n        /* \"openzeppelin-presets/token/ERC20/extensions/ERC20Permit.sol\":2666:2697  _approve(owner, spender, value) */\n      tag_234\n        /* \"openzeppelin-presets/token/ERC20/extensions/ERC20Permit.sol\":2675:2680  owner */\n      dup11\n        /* \"openzeppelin-presets/token/ERC20/extensions/ERC20Permit.sol\":2682:2689  spender */\n      dup11\n        /* \"openzeppelin-presets/token/ERC20/extensions/ERC20Permit.sol\":2691:2696  value */\n      dup11\n        /* \"openzeppelin-presets/token/ERC20/extensions/ERC20Permit.sol\":2666:2674  _approve */\n      tag_125\n        /* \"openzeppelin-presets/token/ERC20/extensions/ERC20Permit.sol\":2666:2697  _approve(owner, spender, value) */\n      jump\t// in\n    tag_234:\n        /* \"openzeppelin-presets/token/ERC20/extensions/ERC20Permit.sol\":2251:2704  {... */\n      pop\n      pop\n      pop\n        /* \"openzeppelin-presets/token/ERC20/extensions/ERC20Permit.sol\":2053:2704  function permit(... */\n      pop\n      pop\n      pop\n      pop\n      pop\n      pop\n      pop\n      jump\t// out\n        /* \"extension/ContractMetadata.sol\":545:579  string public override contractURI */\n    tag_112:\n      0x00\n      dup1\n      sload\n      tag_236\n      swap1\n      tag_116\n      jump\t// in\n    tag_236:\n      dup1\n      0x1f\n      add\n      0x20\n      dup1\n      swap2\n      div\n      mul\n      0x20\n      add\n      mload(0x40)\n      swap1\n      dup2\n      add\n      0x40\n      mstore\n      dup1\n      swap3\n      swap2\n      swap1\n      dup2\n      dup2\n      mstore\n      0x20\n      add\n      dup3\n      dup1\n      sload\n      tag_237\n      swap1\n      tag_116\n      jump\t// in\n    tag_237:\n      dup1\n      iszero\n      tag_238\n      jumpi\n      dup1\n      0x1f\n      lt\n      tag_239\n      jumpi\n      0x0100\n      dup1\n      dup4\n      sload\n      div\n      mul\n      dup4\n      mstore\n      swap2\n      0x20\n      add\n      swap2\n      jump(tag_238)\n    tag_239:\n      dup3\n      add\n      swap2\n      swap1\n      0x00\n      mstore\n      keccak256(0x00, 0x20)\n      swap1\n    tag_240:\n      dup2\n      sload\n      dup2\n      mstore\n      swap1\n      0x01\n      add\n      swap1\n      0x20\n      add\n      dup1\n      dup4\n      gt\n      tag_240\n      jumpi\n      dup3\n      swap1\n      sub\n      0x1f\n      and\n      dup3\n      add\n      swap2\n    tag_238:\n      pop\n      pop\n      pop\n      pop\n      pop\n      dup2\n      jump\t// out\n        /* \"openzeppelin-presets/token/ERC20/ERC20.sol\":10154:10524  function _approve(... */\n    tag_125:\n      sub(shl(0xa0, 0x01), 0x01)\n        /* \"openzeppelin-presets/token/ERC20/ERC20.sol\":10285:10304  owner != address(0) */\n      dup4\n      and\n        /* \"openzeppelin-presets/token/ERC20/ERC20.sol\":10277:10345  require(owner != address(0), \"ERC20: approve from the zero address\") */\n      tag_243\n      jumpi\n      mload(0x40)\n      shl(0xe5, 0x461bcd)\n      dup2\n      mstore\n        /* \"#utility.yul\":11083:11085   */\n      0x20\n        /* \"openzeppelin-presets/token/ERC20/ERC20.sol\":10277:10345  require(owner != address(0), \"ERC20: approve from the zero address\") */\n      0x04\n      dup3\n      add\n        /* \"#utility.yul\":11065:11086   */\n      mstore\n        /* \"#utility.yul\":11122:11124   */\n      0x24\n        /* \"#utility.yul\":11102:11120   */\n      dup1\n      dup3\n      add\n        /* \"#utility.yul\":11095:11125   */\n      mstore\n        /* \"#utility.yul\":11161:11195   */\n      0x45524332303a20617070726f76652066726f6d20746865207a65726f20616464\n        /* \"#utility.yul\":11141:11159   */\n      0x44\n      dup3\n      add\n        /* \"#utility.yul\":11134:11196   */\n      mstore\n      shl(0xe0, 0x72657373)\n        /* \"#utility.yul\":11212:11230   */\n      0x64\n      dup3\n      add\n        /* \"#utility.yul\":11205:11239   */\n      mstore\n        /* \"#utility.yul\":11256:11275   */\n      0x84\n      add\n        /* \"openzeppelin-presets/token/ERC20/ERC20.sol\":10277:10345  require(owner != address(0), \"ERC20: approve from the zero address\") */\n      tag_130\n        /* \"#utility.yul\":10881:11281   */\n      jump\n        /* \"openzeppelin-presets/token/ERC20/ERC20.sol\":10277:10345  require(owner != address(0), \"ERC20: approve from the zero address\") */\n    tag_243:\n      sub(shl(0xa0, 0x01), 0x01)\n        /* \"openzeppelin-presets/token/ERC20/ERC20.sol\":10363:10384  spender != address(0) */\n      dup3\n      and\n        /* \"openzeppelin-presets/token/ERC20/ERC20.sol\":10355:10423  require(spender != address(0), \"ERC20: approve to the zero address\") */\n      tag_246\n      jumpi\n      mload(0x40)\n      shl(0xe5, 0x461bcd)\n      dup2\n      mstore\n        /* \"#utility.yul\":11488:11490   */\n      0x20\n        /* \"openzeppelin-presets/token/ERC20/ERC20.sol\":10355:10423  require(spender != address(0), \"ERC20: approve to the zero address\") */\n      0x04\n      dup3\n      add\n        /* \"#utility.yul\":11470:11491   */\n      mstore\n        /* \"#utility.yul\":11527:11529   */\n      0x22\n        /* \"#utility.yul\":11507:11525   */\n      0x24\n      dup3\n      add\n        /* \"#utility.yul\":11500:11530   */\n      mstore\n        /* \"#utility.yul\":11566:11600   */\n      0x45524332303a20617070726f766520746f20746865207a65726f206164647265\n        /* \"#utility.yul\":11546:11564   */\n      0x44\n      dup3\n      add\n        /* \"#utility.yul\":11539:11601   */\n      mstore\n      shl(0xf0, 0x7373)\n        /* \"#utility.yul\":11617:11635   */\n      0x64\n      dup3\n      add\n        /* \"#utility.yul\":11610:11642   */\n      mstore\n        /* \"#utility.yul\":11659:11678   */\n      0x84\n      add\n        /* \"openzeppelin-presets/token/ERC20/ERC20.sol\":10355:10423  require(spender != address(0), \"ERC20: approve to the zero address\") */\n      tag_130\n        /* \"#utility.yul\":11286:11684   */\n      jump\n        /* \"openzeppelin-presets/token/ERC20/ERC20.sol\":10355:10423  require(spender != address(0), \"ERC20: approve to the zero address\") */\n    tag_246:\n      sub(shl(0xa0, 0x01), 0x01)\n        /* \"openzeppelin-presets/token/ERC20/ERC20.sol\":10434:10452  _allowances[owner] */\n      dup4\n      dup2\n      and\n      0x00\n      dup2\n      dup2\n      mstore\n        /* \"openzeppelin-presets/token/ERC20/ERC20.sol\":10434:10445  _allowances */\n      0x03\n        /* \"openzeppelin-presets/token/ERC20/ERC20.sol\":10434:10452  _allowances[owner] */\n      0x20\n      swap1\n      dup2\n      mstore\n      0x40\n      dup1\n      dup4\n      keccak256\n        /* \"openzeppelin-presets/token/ERC20/ERC20.sol\":10434:10461  _allowances[owner][spender] */\n      swap5\n      dup8\n      and\n      dup1\n      dup5\n      mstore\n      swap5\n      dup3\n      mstore\n      swap2\n      dup3\n      swap1\n      keccak256\n        /* \"openzeppelin-presets/token/ERC20/ERC20.sol\":10434:10470  _allowances[owner][spender] = amount */\n      dup6\n      swap1\n      sstore\n        /* \"openzeppelin-presets/token/ERC20/ERC20.sol\":10485:10517  Approval(owner, spender, amount) */\n      swap1\n      mload\n        /* \"#utility.yul\":1731:1756   */\n      dup5\n      dup2\n      mstore\n        /* \"openzeppelin-presets/token/ERC20/ERC20.sol\":10485:10517  Approval(owner, spender, amount) */\n      0x8c5be1e5ebec7d5bd14f71427d1e84f3dd0314c0f7b2291e5b200ac8c7c3b925\n      swap2\n        /* \"#utility.yul\":1704:1722   */\n      add\n        /* \"openzeppelin-presets/token/ERC20/ERC20.sol\":10485:10517  Approval(owner, spender, amount) */\n    tag_249:\n      mload(0x40)\n      dup1\n      swap2\n      sub\n      swap1\n      log3\n        /* \"openzeppelin-presets/token/ERC20/ERC20.sol\":10154:10524  function _approve(... */\n      pop\n      pop\n      pop\n      jump\t// out\n        /* \"base/ERC20Base.sol\":3085:3200  function _canSetOwner() internal view virtual override returns (bool) {... */\n    tag_128:\n        /* \"base/ERC20Base.sol\":3149:3153  bool */\n      0x00\n        /* \"base/ERC20Base.sol\":3186:3193  owner() */\n      tag_251\n        /* \"extension/Ownable.sol\":924:930  _owner */\n      and(sub(shl(0xa0, 0x01), 0x01), sload(0x01))\n      swap1\n        /* \"extension/Ownable.sol\":851:937  function owner() public view override returns (address) {... */\n      jump\n        /* \"base/ERC20Base.sol\":3186:3193  owner() */\n    tag_251:\n      sub(shl(0xa0, 0x01), 0x01)\n        /* \"base/ERC20Base.sol\":3172:3193  msg.sender == owner() */\n      and\n        /* \"base/ERC20Base.sol\":3172:3182  msg.sender */\n      caller\n      sub(shl(0xa0, 0x01), 0x01)\n        /* \"base/ERC20Base.sol\":3172:3193  msg.sender == owner() */\n      and\n      eq\n        /* \"base/ERC20Base.sol\":3165:3193  return msg.sender == owner() */\n      swap1\n      pop\n        /* \"base/ERC20Base.sol\":3085:3200  function _canSetOwner() internal view virtual override returns (bool) {... */\n      swap1\n      jump\t// out\n        /* \"extension/Ownable.sol\":1401:1573  function _setupOwner(address _newOwner) internal {... */\n    tag_133:\n        /* \"extension/Ownable.sol\":1481:1487  _owner */\n      0x01\n      dup1\n      sload\n      sub(shl(0xa0, 0x01), 0x01)\n        /* \"extension/Ownable.sol\":1497:1515  _owner = _newOwner */\n      dup4\n      dup2\n      and\n      not(sub(shl(0xa0, 0x01), 0x01))\n      dup4\n      and\n      dup2\n      or\n      swap1\n      swap4\n      sstore\n        /* \"extension/Ownable.sol\":1531:1566  OwnerUpdated(_prevOwner, _newOwner) */\n      mload(0x40)\n        /* \"extension/Ownable.sol\":1481:1487  _owner */\n      swap2\n      and\n      swap2\n        /* \"extension/Ownable.sol\":1497:1515  _owner = _newOwner */\n      swap1\n        /* \"extension/Ownable.sol\":1481:1487  _owner */\n      dup3\n      swap1\n        /* \"extension/Ownable.sol\":1531:1566  OwnerUpdated(_prevOwner, _newOwner) */\n      0x8292fce18fa69edf4db7b94ea2e58241df0ae57f97e0a6c9b29067028bf92d76\n      swap1\n        /* \"extension/Ownable.sol\":1460:1478  address _prevOwner */\n      0x00\n      swap1\n        /* \"extension/Ownable.sol\":1531:1566  OwnerUpdated(_prevOwner, _newOwner) */\n      log3\n        /* \"extension/Ownable.sol\":1450:1573  {... */\n      pop\n        /* \"extension/Ownable.sol\":1401:1573  function _setupOwner(address _newOwner) internal {... */\n      pop\n      jump\t// out\n        /* \"openzeppelin-presets/token/ERC20/ERC20.sol\":10801:11242  function _spendAllowance(... */\n    tag_138:\n      sub(shl(0xa0, 0x01), 0x01)\n        /* \"openzeppelin-presets/token/ERC20/ERC20.sol\":4122:4140  _allowances[owner] */\n      dup4\n      dup2\n      and\n        /* \"openzeppelin-presets/token/ERC20/ERC20.sol\":10931:10955  uint256 currentAllowance */\n      0x00\n        /* \"openzeppelin-presets/token/ERC20/ERC20.sol\":4122:4140  _allowances[owner] */\n      swap1\n      dup2\n      mstore\n        /* \"openzeppelin-presets/token/ERC20/ERC20.sol\":4122:4133  _allowances */\n      0x03\n        /* \"openzeppelin-presets/token/ERC20/ERC20.sol\":4122:4140  _allowances[owner] */\n      0x20\n      swap1\n      dup2\n      mstore\n      0x40\n      dup1\n      dup4\n      keccak256\n        /* \"openzeppelin-presets/token/ERC20/ERC20.sol\":4122:4149  _allowances[owner][spender] */\n      swap4\n      dup7\n      and\n      dup4\n      mstore\n      swap3\n      swap1\n      mstore\n      keccak256\n      sload\n      not(0x00)\n        /* \"openzeppelin-presets/token/ERC20/ERC20.sol\":10997:11034  currentAllowance != type(uint256).max */\n      dup2\n      eq\n        /* \"openzeppelin-presets/token/ERC20/ERC20.sol\":10993:11236  if (currentAllowance != type(uint256).max) {... */\n      tag_259\n      jumpi\n        /* \"openzeppelin-presets/token/ERC20/ERC20.sol\":11078:11084  amount */\n      dup2\n        /* \"openzeppelin-presets/token/ERC20/ERC20.sol\":11058:11074  currentAllowance */\n      dup2\n        /* \"openzeppelin-presets/token/ERC20/ERC20.sol\":11058:11084  currentAllowance >= amount */\n      lt\n      iszero\n        /* \"openzeppelin-presets/token/ERC20/ERC20.sol\":11050:11118  require(currentAllowance >= amount, \"ERC20: insufficient allowance\") */\n      tag_256\n      jumpi\n      mload(0x40)\n      shl(0xe5, 0x461bcd)\n      dup2\n      mstore\n        /* \"#utility.yul\":11891:11893   */\n      0x20\n        /* \"openzeppelin-presets/token/ERC20/ERC20.sol\":11050:11118  require(currentAllowance >= amount, \"ERC20: insufficient allowance\") */\n      0x04\n      dup3\n      add\n        /* \"#utility.yul\":11873:11894   */\n      mstore\n        /* \"#utility.yul\":11930:11932   */\n      0x1d\n        /* \"#utility.yul\":11910:11928   */\n      0x24\n      dup3\n      add\n        /* \"#utility.yul\":11903:11933   */\n      mstore\n        /* \"#utility.yul\":11969:12000   */\n      0x45524332303a20696e73756666696369656e7420616c6c6f77616e6365000000\n        /* \"#utility.yul\":11949:11967   */\n      0x44\n      dup3\n      add\n        /* \"#utility.yul\":11942:12001   */\n      mstore\n        /* \"#utility.yul\":12018:12036   */\n      0x64\n      add\n        /* \"openzeppelin-presets/token/ERC20/ERC20.sol\":11050:11118  require(currentAllowance >= amount, \"ERC20: insufficient allowance\") */\n      tag_130\n        /* \"#utility.yul\":11689:12042   */\n      jump\n        /* \"openzeppelin-presets/token/ERC20/ERC20.sol\":11050:11118  require(currentAllowance >= amount, \"ERC20: insufficient allowance\") */\n    tag_256:\n        /* \"openzeppelin-presets/token/ERC20/ERC20.sol\":11160:11211  _approve(owner, spender, currentAllowance - amount) */\n      tag_259\n        /* \"openzeppelin-presets/token/ERC20/ERC20.sol\":11169:11174  owner */\n      dup5\n        /* \"openzeppelin-presets/token/ERC20/ERC20.sol\":11176:11183  spender */\n      dup5\n        /* \"openzeppelin-presets/token/ERC20/ERC20.sol\":11204:11210  amount */\n      dup5\n        /* \"openzeppelin-presets/token/ERC20/ERC20.sol\":11185:11201  currentAllowance */\n      dup5\n        /* \"openzeppelin-presets/token/ERC20/ERC20.sol\":11185:11210  currentAllowance - amount */\n      sub\n        /* \"openzeppelin-presets/token/ERC20/ERC20.sol\":11160:11168  _approve */\n      tag_125\n        /* \"openzeppelin-presets/token/ERC20/ERC20.sol\":11160:11211  _approve(owner, spender, currentAllowance - amount) */\n      jump\t// in\n    tag_259:\n        /* \"openzeppelin-presets/token/ERC20/ERC20.sol\":10921:11242  {... */\n      pop\n        /* \"openzeppelin-presets/token/ERC20/ERC20.sol\":10801:11242  function _spendAllowance(... */\n      pop\n      pop\n      pop\n      jump\t// out\n        /* \"openzeppelin-presets/token/ERC20/ERC20.sol\":7519:8170  function _transfer(... */\n    tag_140:\n      sub(shl(0xa0, 0x01), 0x01)\n        /* \"openzeppelin-presets/token/ERC20/ERC20.sol\":7645:7663  from != address(0) */\n      dup4\n      and\n        /* \"openzeppelin-presets/token/ERC20/ERC20.sol\":7637:7705  require(from != address(0), \"ERC20: transfer from the zero address\") */\n      tag_261\n      jumpi\n      mload(0x40)\n      shl(0xe5, 0x461bcd)\n      dup2\n      mstore\n        /* \"#utility.yul\":12249:12251   */\n      0x20\n        /* \"openzeppelin-presets/token/ERC20/ERC20.sol\":7637:7705  require(from != address(0), \"ERC20: transfer from the zero address\") */\n      0x04\n      dup3\n      add\n        /* \"#utility.yul\":12231:12252   */\n      mstore\n        /* \"#utility.yul\":12288:12290   */\n      0x25\n        /* \"#utility.yul\":12268:12286   */\n      0x24\n      dup3\n      add\n        /* \"#utility.yul\":12261:12291   */\n      mstore\n        /* \"#utility.yul\":12327:12361   */\n      0x45524332303a207472616e736665722066726f6d20746865207a65726f206164\n        /* \"#utility.yul\":12307:12325   */\n      0x44\n      dup3\n      add\n        /* \"#utility.yul\":12300:12362   */\n      mstore\n      shl(0xd8, 0x6472657373)\n        /* \"#utility.yul\":12378:12396   */\n      0x64\n      dup3\n      add\n        /* \"#utility.yul\":12371:12406   */\n      mstore\n        /* \"#utility.yul\":12423:12442   */\n      0x84\n      add\n        /* \"openzeppelin-presets/token/ERC20/ERC20.sol\":7637:7705  require(from != address(0), \"ERC20: transfer from the zero address\") */\n      tag_130\n        /* \"#utility.yul\":12047:12448   */\n      jump\n        /* \"openzeppelin-presets/token/ERC20/ERC20.sol\":7637:7705  require(from != address(0), \"ERC20: transfer from the zero address\") */\n    tag_261:\n      sub(shl(0xa0, 0x01), 0x01)\n        /* \"openzeppelin-presets/token/ERC20/ERC20.sol\":7723:7739  to != address(0) */\n      dup3\n      and\n        /* \"openzeppelin-presets/token/ERC20/ERC20.sol\":7715:7779  require(to != address(0), \"ERC20: transfer to the zero address\") */\n      tag_264\n      jumpi\n      mload(0x40)\n      shl(0xe5, 0x461bcd)\n      dup2\n      mstore\n        /* \"#utility.yul\":12655:12657   */\n      0x20\n        /* \"openzeppelin-presets/token/ERC20/ERC20.sol\":7715:7779  require(to != address(0), \"ERC20: transfer to the zero address\") */\n      0x04\n      dup3\n      add\n        /* \"#utility.yul\":12637:12658   */\n      mstore\n        /* \"#utility.yul\":12694:12696   */\n      0x23\n        /* \"#utility.yul\":12674:12692   */\n      0x24\n      dup3\n      add\n        /* \"#utility.yul\":12667:12697   */\n      mstore\n        /* \"#utility.yul\":12733:12767   */\n      0x45524332303a207472616e7366657220746f20746865207a65726f2061646472\n        /* \"#utility.yul\":12713:12731   */\n      0x44\n      dup3\n      add\n        /* \"#utility.yul\":12706:12768   */\n      mstore\n      shl(0xe8, 0x657373)\n        /* \"#utility.yul\":12784:12802   */\n      0x64\n      dup3\n      add\n        /* \"#utility.yul\":12777:12810   */\n      mstore\n        /* \"#utility.yul\":12827:12846   */\n      0x84\n      add\n        /* \"openzeppelin-presets/token/ERC20/ERC20.sol\":7715:7779  require(to != address(0), \"ERC20: transfer to the zero address\") */\n      tag_130\n        /* \"#utility.yul\":12453:12852   */\n      jump\n        /* \"openzeppelin-presets/token/ERC20/ERC20.sol\":7715:7779  require(to != address(0), \"ERC20: transfer to the zero address\") */\n    tag_264:\n      sub(shl(0xa0, 0x01), 0x01)\n        /* \"openzeppelin-presets/token/ERC20/ERC20.sol\":7861:7876  _balances[from] */\n      dup4\n      and\n        /* \"openzeppelin-presets/token/ERC20/ERC20.sol\":7839:7858  uint256 fromBalance */\n      0x00\n        /* \"openzeppelin-presets/token/ERC20/ERC20.sol\":7861:7876  _balances[from] */\n      swap1\n      dup2\n      mstore\n        /* \"openzeppelin-presets/token/ERC20/ERC20.sol\":7861:7870  _balances */\n      0x02\n        /* \"openzeppelin-presets/token/ERC20/ERC20.sol\":7861:7876  _balances[from] */\n      0x20\n      mstore\n      0x40\n      swap1\n      keccak256\n      sload\n        /* \"openzeppelin-presets/token/ERC20/ERC20.sol\":7894:7915  fromBalance >= amount */\n      dup2\n      dup2\n      lt\n      iszero\n        /* \"openzeppelin-presets/token/ERC20/ERC20.sol\":7886:7958  require(fromBalance >= amount, \"ERC20: transfer amount exceeds balance\") */\n      tag_269\n      jumpi\n      mload(0x40)\n      shl(0xe5, 0x461bcd)\n      dup2\n      mstore\n        /* \"#utility.yul\":13059:13061   */\n      0x20\n        /* \"openzeppelin-presets/token/ERC20/ERC20.sol\":7886:7958  require(fromBalance >= amount, \"ERC20: transfer amount exceeds balance\") */\n      0x04\n      dup3\n      add\n        /* \"#utility.yul\":13041:13062   */\n      mstore\n        /* \"#utility.yul\":13098:13100   */\n      0x26\n        /* \"#utility.yul\":13078:13096   */\n      0x24\n      dup3\n      add\n        /* \"#utility.yul\":13071:13101   */\n      mstore\n        /* \"#utility.yul\":13137:13171   */\n      0x45524332303a207472616e7366657220616d6f756e7420657863656564732062\n        /* \"#utility.yul\":13117:13135   */\n      0x44\n      dup3\n      add\n        /* \"#utility.yul\":13110:13172   */\n      mstore\n      shl(0xd0, 0x616c616e6365)\n        /* \"#utility.yul\":13188:13206   */\n      0x64\n      dup3\n      add\n        /* \"#utility.yul\":13181:13217   */\n      mstore\n        /* \"#utility.yul\":13234:13253   */\n      0x84\n      add\n        /* \"openzeppelin-presets/token/ERC20/ERC20.sol\":7886:7958  require(fromBalance >= amount, \"ERC20: transfer amount exceeds balance\") */\n      tag_130\n        /* \"#utility.yul\":12857:13259   */\n      jump\n        /* \"openzeppelin-presets/token/ERC20/ERC20.sol\":7886:7958  require(fromBalance >= amount, \"ERC20: transfer amount exceeds balance\") */\n    tag_269:\n      sub(shl(0xa0, 0x01), 0x01)\n        /* \"openzeppelin-presets/token/ERC20/ERC20.sol\":7992:8007  _balances[from] */\n      dup1\n      dup6\n      and\n      0x00\n      swap1\n      dup2\n      mstore\n        /* \"openzeppelin-presets/token/ERC20/ERC20.sol\":7992:8001  _balances */\n      0x02\n        /* \"openzeppelin-presets/token/ERC20/ERC20.sol\":7992:8007  _balances[from] */\n      0x20\n      mstore\n      0x40\n      dup1\n      dup3\n      keccak256\n        /* \"openzeppelin-presets/token/ERC20/ERC20.sol\":8010:8030  fromBalance - amount */\n      dup6\n      dup6\n      sub\n        /* \"openzeppelin-presets/token/ERC20/ERC20.sol\":7992:8030  _balances[from] = fromBalance - amount */\n      swap1\n      sstore\n        /* \"openzeppelin-presets/token/ERC20/ERC20.sol\":8050:8063  _balances[to] */\n      swap2\n      dup6\n      and\n      dup2\n      mstore\n      swap1\n      dup2\n      keccak256\n        /* \"openzeppelin-presets/token/ERC20/ERC20.sol\":8050:8073  _balances[to] += amount */\n      dup1\n      sload\n        /* \"openzeppelin-presets/token/ERC20/ERC20.sol\":8024:8030  amount */\n      dup5\n      swap3\n        /* \"openzeppelin-presets/token/ERC20/ERC20.sol\":7992:8007  _balances[from] */\n      swap1\n        /* \"openzeppelin-presets/token/ERC20/ERC20.sol\":8050:8073  _balances[to] += amount */\n      tag_272\n      swap1\n        /* \"openzeppelin-presets/token/ERC20/ERC20.sol\":8024:8030  amount */\n      dup5\n      swap1\n        /* \"openzeppelin-presets/token/ERC20/ERC20.sol\":8050:8073  _balances[to] += amount */\n      tag_152\n      jump\t// in\n    tag_272:\n      swap3\n      pop\n      pop\n      dup2\n      swap1\n      sstore\n      pop\n        /* \"openzeppelin-presets/token/ERC20/ERC20.sol\":8104:8106  to */\n      dup3\n      sub(shl(0xa0, 0x01), 0x01)\n        /* \"openzeppelin-presets/token/ERC20/ERC20.sol\":8089:8115  Transfer(from, to, amount) */\n      and\n        /* \"openzeppelin-presets/token/ERC20/ERC20.sol\":8098:8102  from */\n      dup5\n      sub(shl(0xa0, 0x01), 0x01)\n        /* \"openzeppelin-presets/token/ERC20/ERC20.sol\":8089:8115  Transfer(from, to, amount) */\n      and\n      0xddf252ad1be2c89b69c2b068fc378daa952ba7f163c4a11628f55a4df523b3ef\n        /* \"openzeppelin-presets/token/ERC20/ERC20.sol\":8108:8114  amount */\n      dup5\n        /* \"openzeppelin-presets/token/ERC20/ERC20.sol\":8089:8115  Transfer(from, to, amount) */\n      mload(0x40)\n      tag_273\n      swap2\n        /* \"#utility.yul\":1731:1756   */\n      dup2\n      mstore\n        /* \"#utility.yul\":1719:1721   */\n      0x20\n        /* \"#utility.yul\":1704:1722   */\n      add\n      swap1\n        /* \"#utility.yul\":1585:1762   */\n      jump\n        /* \"openzeppelin-presets/token/ERC20/ERC20.sol\":8089:8115  Transfer(from, to, amount) */\n    tag_273:\n      mload(0x40)\n      dup1\n      swap2\n      sub\n      swap1\n      log3\n        /* \"openzeppelin-presets/token/ERC20/ERC20.sol\":8126:8163  _afterTokenTransfer(from, to, amount) */\n      tag_259\n        /* \"openzeppelin-presets/token/ERC20/ERC20.sol\":9155:9731  function _burn(address account, uint256 amount) internal virtual {... */\n      jump\n        /* \"openzeppelin-presets/token/ERC20/extensions/ERC20Permit.sol\":3293:3731  function _buildDomainSeparator() private view returns (bytes32) {... */\n    tag_147:\n        /* \"openzeppelin-presets/token/ERC20/extensions/ERC20Permit.sol\":3348:3355  bytes32 */\n      0x00\n        /* \"openzeppelin-presets/token/ERC20/extensions/ERC20Permit.sol\":3445:3540  keccak256(\"EIP712Domain(string name,string version,uint256 chainId,address verifyingContract)\") */\n      0x8b73c3c69bb8fe3d512ecc4cf759cc79239f7b179b0ffacaa9a75d522b39400f\n        /* \"openzeppelin-presets/token/ERC20/extensions/ERC20Permit.sol\":3578:3584  name() */\n      tag_277\n        /* \"openzeppelin-presets/token/ERC20/extensions/ERC20Permit.sol\":3578:3582  name */\n      tag_28\n        /* \"openzeppelin-presets/token/ERC20/extensions/ERC20Permit.sol\":3578:3584  name() */\n      jump\t// in\n    tag_277:\n        /* \"openzeppelin-presets/token/ERC20/extensions/ERC20Permit.sol\":3562:3586  keccak256(bytes(name())) */\n      dup1\n      mload\n      0x20\n      swap2\n      dup3\n      add\n      keccak256\n        /* \"openzeppelin-presets/token/ERC20/extensions/ERC20Permit.sol\":3413:3710  abi.encode(... */\n      0x40\n      dup1\n      mload\n      swap3\n      dup4\n      add\n        /* \"#utility.yul\":13523:13548   */\n      swap4\n      swap1\n      swap4\n      mstore\n        /* \"#utility.yul\":13564:13582   */\n      swap2\n      dup2\n      add\n        /* \"#utility.yul\":13557:13591   */\n      swap2\n      swap1\n      swap2\n      mstore\n        /* \"openzeppelin-presets/token/ERC20/extensions/ERC20Permit.sol\":3608:3622  keccak256(\"1\") */\n      0xc89efdaa54c0f20c7adf612882df0950f5a951637e0307cdcb4c672f298b8bc6\n        /* \"#utility.yul\":13607:13625   */\n      0x60\n      dup3\n      add\n        /* \"#utility.yul\":13600:13634   */\n      mstore\n        /* \"openzeppelin-presets/token/ERC20/extensions/ERC20Permit.sol\":3644:3657  block.chainid */\n      chainid\n        /* \"#utility.yul\":13650:13668   */\n      0x80\n      dup3\n      add\n        /* \"#utility.yul\":13643:13677   */\n      mstore\n        /* \"openzeppelin-presets/token/ERC20/extensions/ERC20Permit.sol\":3687:3691  this */\n      address\n        /* \"#utility.yul\":13693:13712   */\n      0xa0\n      dup3\n      add\n        /* \"#utility.yul\":13686:13747   */\n      mstore\n        /* \"#utility.yul\":13495:13514   */\n      0xc0\n      add\n        /* \"openzeppelin-presets/token/ERC20/extensions/ERC20Permit.sol\":3413:3710  abi.encode(... */\n      mload(0x40)\n      0x20\n      dup2\n      dup4\n      sub\n      sub\n      dup2\n      mstore\n      swap1\n      0x40\n      mstore\n        /* \"openzeppelin-presets/token/ERC20/extensions/ERC20Permit.sol\":3386:3724  keccak256(... */\n      dup1\n      mload\n      swap1\n      0x20\n      add\n      keccak256\n        /* \"openzeppelin-presets/token/ERC20/extensions/ERC20Permit.sol\":3367:3724  return... */\n      swap1\n      pop\n        /* \"openzeppelin-presets/token/ERC20/extensions/ERC20Permit.sol\":3293:3731  function _buildDomainSeparator() private view returns (bytes32) {... */\n      swap1\n      jump\t// out\n        /* \"openzeppelin-presets/token/ERC20/ERC20.sol\":9155:9731  function _burn(address account, uint256 amount) internal virtual {... */\n    tag_159:\n      sub(shl(0xa0, 0x01), 0x01)\n        /* \"openzeppelin-presets/token/ERC20/ERC20.sol\":9238:9259  account != address(0) */\n      dup3\n      and\n        /* \"openzeppelin-presets/token/ERC20/ERC20.sol\":9230:9297  require(account != address(0), \"ERC20: burn from the zero address\") */\n      tag_281\n      jumpi\n      mload(0x40)\n      shl(0xe5, 0x461bcd)\n      dup2\n      mstore\n        /* \"#utility.yul\":13960:13962   */\n      0x20\n        /* \"openzeppelin-presets/token/ERC20/ERC20.sol\":9230:9297  require(account != address(0), \"ERC20: burn from the zero address\") */\n      0x04\n      dup3\n      add\n        /* \"#utility.yul\":13942:13963   */\n      mstore\n        /* \"#utility.yul\":13999:14001   */\n      0x21\n        /* \"#utility.yul\":13979:13997   */\n      0x24\n      dup3\n      add\n        /* \"#utility.yul\":13972:14002   */\n      mstore\n        /* \"#utility.yul\":14038:14072   */\n      0x45524332303a206275726e2066726f6d20746865207a65726f20616464726573\n        /* \"#utility.yul\":14018:14036   */\n      0x44\n      dup3\n      add\n        /* \"#utility.yul\":14011:14073   */\n      mstore\n      shl(0xf8, 0x73)\n        /* \"#utility.yul\":14089:14107   */\n      0x64\n      dup3\n      add\n        /* \"#utility.yul\":14082:14113   */\n      mstore\n        /* \"#utility.yul\":14130:14149   */\n      0x84\n      add\n        /* \"openzeppelin-presets/token/ERC20/ERC20.sol\":9230:9297  require(account != address(0), \"ERC20: burn from the zero address\") */\n      tag_130\n        /* \"#utility.yul\":13758:14155   */\n      jump\n        /* \"openzeppelin-presets/token/ERC20/ERC20.sol\":9230:9297  require(account != address(0), \"ERC20: burn from the zero address\") */\n    tag_281:\n      sub(shl(0xa0, 0x01), 0x01)\n        /* \"openzeppelin-presets/token/ERC20/ERC20.sol\":9393:9411  _balances[account] */\n      dup3\n      and\n        /* \"openzeppelin-presets/token/ERC20/ERC20.sol\":9368:9390  uint256 accountBalance */\n      0x00\n        /* \"openzeppelin-presets/token/ERC20/ERC20.sol\":9393:9411  _balances[account] */\n      swap1\n      dup2\n      mstore\n        /* \"openzeppelin-presets/token/ERC20/ERC20.sol\":9393:9402  _balances */\n      0x02\n        /* \"openzeppelin-presets/token/ERC20/ERC20.sol\":9393:9411  _balances[account] */\n      0x20\n      mstore\n      0x40\n      swap1\n      keccak256\n      sload\n        /* \"openzeppelin-presets/token/ERC20/ERC20.sol\":9429:9453  accountBalance >= amount */\n      dup2\n      dup2\n      lt\n      iszero\n        /* \"openzeppelin-presets/token/ERC20/ERC20.sol\":9421:9492  require(accountBalance >= amount, \"ERC20: burn amount exceeds balance\") */\n      tag_285\n      jumpi\n      mload(0x40)\n      shl(0xe5, 0x461bcd)\n      dup2\n      mstore\n        /* \"#utility.yul\":14362:14364   */\n      0x20\n        /* \"openzeppelin-presets/token/ERC20/ERC20.sol\":9421:9492  require(accountBalance >= amount, \"ERC20: burn amount exceeds balance\") */\n      0x04\n      dup3\n      add\n        /* \"#utility.yul\":14344:14365   */\n      mstore\n        /* \"#utility.yul\":14401:14403   */\n      0x22\n        /* \"#utility.yul\":14381:14399   */\n      0x24\n      dup3\n      add\n        /* \"#utility.yul\":14374:14404   */\n      mstore\n        /* \"#utility.yul\":14440:14474   */\n      0x45524332303a206275726e20616d6f756e7420657863656564732062616c616e\n        /* \"#utility.yul\":14420:14438   */\n      0x44\n      dup3\n      add\n        /* \"#utility.yul\":14413:14475   */\n      mstore\n      shl(0xf0, 0x6365)\n        /* \"#utility.yul\":14491:14509   */\n      0x64\n      dup3\n      add\n        /* \"#utility.yul\":14484:14516   */\n      mstore\n        /* \"#utility.yul\":14533:14552   */\n      0x84\n      add\n        /* \"openzeppelin-presets/token/ERC20/ERC20.sol\":9421:9492  require(accountBalance >= amount, \"ERC20: burn amount exceeds balance\") */\n      tag_130\n        /* \"#utility.yul\":14160:14558   */\n      jump\n        /* \"openzeppelin-presets/token/ERC20/ERC20.sol\":9421:9492  require(accountBalance >= amount, \"ERC20: burn amount exceeds balance\") */\n    tag_285:\n      sub(shl(0xa0, 0x01), 0x01)\n        /* \"openzeppelin-presets/token/ERC20/ERC20.sol\":9526:9544  _balances[account] */\n      dup4\n      and\n      0x00\n      swap1\n      dup2\n      mstore\n        /* \"openzeppelin-presets/token/ERC20/ERC20.sol\":9526:9535  _balances */\n      0x02\n        /* \"openzeppelin-presets/token/ERC20/ERC20.sol\":9526:9544  _balances[account] */\n      0x20\n      mstore\n      0x40\n      dup2\n      keccak256\n        /* \"openzeppelin-presets/token/ERC20/ERC20.sol\":9547:9570  accountBalance - amount */\n      dup4\n      dup4\n      sub\n        /* \"openzeppelin-presets/token/ERC20/ERC20.sol\":9526:9570  _balances[account] = accountBalance - amount */\n      swap1\n      sstore\n        /* \"openzeppelin-presets/token/ERC20/ERC20.sol\":9590:9602  _totalSupply */\n      0x04\n        /* \"openzeppelin-presets/token/ERC20/ERC20.sol\":9590:9612  _totalSupply -= amount */\n      dup1\n      sload\n        /* \"openzeppelin-presets/token/ERC20/ERC20.sol\":9564:9570  amount */\n      dup5\n      swap3\n        /* \"openzeppelin-presets/token/ERC20/ERC20.sol\":9526:9544  _balances[account] */\n      swap1\n        /* \"openzeppelin-presets/token/ERC20/ERC20.sol\":9590:9612  _totalSupply -= amount */\n      tag_288\n      swap1\n        /* \"openzeppelin-presets/token/ERC20/ERC20.sol\":9564:9570  amount */\n      dup5\n      swap1\n        /* \"openzeppelin-presets/token/ERC20/ERC20.sol\":9590:9612  _totalSupply -= amount */\n      tag_289\n      jump\t// in\n    tag_288:\n      swap1\n      swap2\n      sstore\n      pop\n      pop\n        /* \"openzeppelin-presets/token/ERC20/ERC20.sol\":9628:9665  Transfer(account, address(0), amount) */\n      mload(0x40)\n        /* \"#utility.yul\":1731:1756   */\n      dup3\n      dup2\n      mstore\n        /* \"openzeppelin-presets/token/ERC20/ERC20.sol\":9654:9655  0 */\n      0x00\n      swap1\n      sub(shl(0xa0, 0x01), 0x01)\n        /* \"openzeppelin-presets/token/ERC20/ERC20.sol\":9628:9665  Transfer(account, address(0), amount) */\n      dup6\n      and\n      swap1\n      0xddf252ad1be2c89b69c2b068fc378daa952ba7f163c4a11628f55a4df523b3ef\n      swap1\n        /* \"#utility.yul\":1719:1721   */\n      0x20\n        /* \"#utility.yul\":1704:1722   */\n      add\n        /* \"openzeppelin-presets/token/ERC20/ERC20.sol\":9628:9665  Transfer(account, address(0), amount) */\n      tag_249\n        /* \"#utility.yul\":1585:1762   */\n      jump\n        /* \"openzeppelin-presets/token/ERC20/ERC20.sol\":8446:8835  function _mint(address account, uint256 amount) internal virtual {... */\n    tag_170:\n      sub(shl(0xa0, 0x01), 0x01)\n        /* \"openzeppelin-presets/token/ERC20/ERC20.sol\":8529:8550  account != address(0) */\n      dup3\n      and\n        /* \"openzeppelin-presets/token/ERC20/ERC20.sol\":8521:8586  require(account != address(0), \"ERC20: mint to the zero address\") */\n      tag_295\n      jumpi\n      mload(0x40)\n      shl(0xe5, 0x461bcd)\n      dup2\n      mstore\n        /* \"#utility.yul\":14895:14897   */\n      0x20\n        /* \"openzeppelin-presets/token/ERC20/ERC20.sol\":8521:8586  require(account != address(0), \"ERC20: mint to the zero address\") */\n      0x04\n      dup3\n      add\n        /* \"#utility.yul\":14877:14898   */\n      mstore\n        /* \"#utility.yul\":14934:14936   */\n      0x1f\n        /* \"#utility.yul\":14914:14932   */\n      0x24\n      dup3\n      add\n        /* \"#utility.yul\":14907:14937   */\n      mstore\n        /* \"#utility.yul\":14973:15006   */\n      0x45524332303a206d696e7420746f20746865207a65726f206164647265737300\n        /* \"#utility.yul\":14953:14971   */\n      0x44\n      dup3\n      add\n        /* \"#utility.yul\":14946:15007   */\n      mstore\n        /* \"#utility.yul\":15024:15042   */\n      0x64\n      add\n        /* \"openzeppelin-presets/token/ERC20/ERC20.sol\":8521:8586  require(account != address(0), \"ERC20: mint to the zero address\") */\n      tag_130\n        /* \"#utility.yul\":14693:15048   */\n      jump\n        /* \"openzeppelin-presets/token/ERC20/ERC20.sol\":8521:8586  require(account != address(0), \"ERC20: mint to the zero address\") */\n    tag_295:\n        /* \"openzeppelin-presets/token/ERC20/ERC20.sol\":8673:8679  amount */\n      dup1\n        /* \"openzeppelin-presets/token/ERC20/ERC20.sol\":8657:8669  _totalSupply */\n      0x04\n      0x00\n        /* \"openzeppelin-presets/token/ERC20/ERC20.sol\":8657:8679  _totalSupply += amount */\n      dup3\n      dup3\n      sload\n      tag_299\n      swap2\n      swap1\n      tag_152\n      jump\t// in\n    tag_299:\n      swap1\n      swap2\n      sstore\n      pop\n      pop\n      sub(shl(0xa0, 0x01), 0x01)\n        /* \"openzeppelin-presets/token/ERC20/ERC20.sol\":8689:8707  _balances[account] */\n      dup3\n      and\n      0x00\n      swap1\n      dup2\n      mstore\n        /* \"openzeppelin-presets/token/ERC20/ERC20.sol\":8689:8698  _balances */\n      0x02\n        /* \"openzeppelin-presets/token/ERC20/ERC20.sol\":8689:8707  _balances[account] */\n      0x20\n      mstore\n      0x40\n      dup2\n      keccak256\n        /* \"openzeppelin-presets/token/ERC20/ERC20.sol\":8689:8717  _balances[account] += amount */\n      dup1\n      sload\n        /* \"openzeppelin-presets/token/ERC20/ERC20.sol\":8711:8717  amount */\n      dup4\n      swap3\n        /* \"openzeppelin-presets/token/ERC20/ERC20.sol\":8689:8707  _balances[account] */\n      swap1\n        /* \"openzeppelin-presets/token/ERC20/ERC20.sol\":8689:8717  _balances[account] += amount */\n      tag_300\n      swap1\n        /* \"openzeppelin-presets/token/ERC20/ERC20.sol\":8711:8717  amount */\n      dup5\n      swap1\n        /* \"openzeppelin-presets/token/ERC20/ERC20.sol\":8689:8717  _balances[account] += amount */\n      tag_152\n      jump\t// in\n    tag_300:\n      swap1\n      swap2\n      sstore\n      pop\n      pop\n        /* \"openzeppelin-presets/token/ERC20/ERC20.sol\":8732:8769  Transfer(address(0), account, amount) */\n      mload(0x40)\n        /* \"#utility.yul\":1731:1756   */\n      dup2\n      dup2\n      mstore\n      sub(shl(0xa0, 0x01), 0x01)\n        /* \"openzeppelin-presets/token/ERC20/ERC20.sol\":8732:8769  Transfer(address(0), account, amount) */\n      dup4\n      and\n      swap1\n        /* \"openzeppelin-presets/token/ERC20/ERC20.sol\":8749:8750  0 */\n      0x00\n      swap1\n        /* \"openzeppelin-presets/token/ERC20/ERC20.sol\":8732:8769  Transfer(address(0), account, amount) */\n      0xddf252ad1be2c89b69c2b068fc378daa952ba7f163c4a11628f55a4df523b3ef\n      swap1\n        /* \"#utility.yul\":1719:1721   */\n      0x20\n        /* \"#utility.yul\":1704:1722   */\n      add\n        /* \"openzeppelin-presets/token/ERC20/ERC20.sol\":8732:8769  Transfer(address(0), account, amount) */\n      mload(0x40)\n      dup1\n      swap2\n      sub\n      swap1\n      log3\n        /* \"base/ERC20Base.sol\":1801:2010  function mintTo(address _to, uint256 _amount) public virtual {... */\n      pop\n      pop\n      jump\t// out\n        /* \"extension/ContractMetadata.sol\":1253:1438  function _setupContractURI(string memory _uri) internal {... */\n    tag_182:\n        /* \"extension/ContractMetadata.sol\":1319:1340  string memory prevURI */\n      0x00\n        /* \"extension/ContractMetadata.sol\":1343:1354  contractURI */\n      dup1\n        /* \"extension/ContractMetadata.sol\":1319:1354  string memory prevURI = contractURI */\n      dup1\n      sload\n      tag_307\n      swap1\n      tag_116\n      jump\t// in\n    tag_307:\n      dup1\n      0x1f\n      add\n      0x20\n      dup1\n      swap2\n      div\n      mul\n      0x20\n      add\n      mload(0x40)\n      swap1\n      dup2\n      add\n      0x40\n      mstore\n      dup1\n      swap3\n      swap2\n      swap1\n      dup2\n      dup2\n      mstore\n      0x20\n      add\n      dup3\n      dup1\n      sload\n      tag_308\n      swap1\n      tag_116\n      jump\t// in\n    tag_308:\n      dup1\n      iszero\n      tag_309\n      jumpi\n      dup1\n      0x1f\n      lt\n      tag_310\n      jumpi\n      0x0100\n      dup1\n      dup4\n      sload\n      div\n      mul\n      dup4\n      mstore\n      swap2\n      0x20\n      add\n      swap2\n      jump(tag_309)\n    tag_310:\n      dup3\n      add\n      swap2\n      swap1\n      0x00\n      mstore\n      keccak256(0x00, 0x20)\n      swap1\n    tag_311:\n      dup2\n      sload\n      dup2\n      mstore\n      swap1\n      0x01\n      add\n      swap1\n      0x20\n      add\n      dup1\n      dup4\n      gt\n      tag_311\n      jumpi\n      dup3\n      swap1\n      sub\n      0x1f\n      and\n      dup3\n      add\n      swap2\n    tag_309:\n      pop\n      pop\n        /* \"extension/ContractMetadata.sol\":1364:1382  contractURI = _uri */\n      dup6\n      mload\n        /* \"extension/ContractMetadata.sol\":1319:1354  string memory prevURI = contractURI */\n      swap4\n      swap5\n      pop\n        /* \"extension/ContractMetadata.sol\":1364:1382  contractURI = _uri */\n      tag_312\n      swap4\n        /* \"extension/ContractMetadata.sol\":1364:1375  contractURI */\n      0x00\n      swap4\n      pop\n        /* \"extension/ContractMetadata.sol\":1364:1382  contractURI = _uri */\n      0x20\n      dup8\n      add\n      swap3\n      pop\n      swap1\n      pop\n      tag_313\n      jump\t// in\n    tag_312:\n      pop\n        /* \"extension/ContractMetadata.sol\":1398:1431  ContractURIUpdated(prevURI, _uri) */\n      0xc9c7c3fe08b88b4df9d4d47ef47d2c43d55c025a0ba88ca442580ed9e7348a16\n        /* \"extension/ContractMetadata.sol\":1417:1424  prevURI */\n      dup2\n        /* \"extension/ContractMetadata.sol\":1426:1430  _uri */\n      dup4\n        /* \"extension/ContractMetadata.sol\":1398:1431  ContractURIUpdated(prevURI, _uri) */\n      mload(0x40)\n      tag_314\n      swap3\n      swap2\n      swap1\n      tag_315\n      jump\t// in\n    tag_314:\n      mload(0x40)\n      dup1\n      swap2\n      sub\n      swap1\n      log1\n        /* \"extension/ContractMetadata.sol\":1309:1438  {... */\n      pop\n        /* \"extension/ContractMetadata.sol\":1253:1438  function _setupContractURI(string memory _uri) internal {... */\n      pop\n      jump\t// out\n        /* \"lib/TWAddress.sol\":6518:6716  function functionDelegateCall(address target, bytes memory data) internal returns (bytes memory) {... */\n    tag_213:\n        /* \"lib/TWAddress.sol\":6601:6613  bytes memory */\n      0x60\n        /* \"lib/TWAddress.sol\":6632:6709  functionDelegateCall(target, data, \"Address: low-level delegate call failed\") */\n      tag_135\n        /* \"lib/TWAddress.sol\":6653:6659  target */\n      dup4\n        /* \"lib/TWAddress.sol\":6661:6665  data */\n      dup4\n        /* \"lib/TWAddress.sol\":6632:6709  functionDelegateCall(target, data, \"Address: low-level delegate call failed\") */\n      mload(0x40)\n      dup1\n      0x60\n      add\n      0x40\n      mstore\n      dup1\n      0x27\n      dup2\n      mstore\n      0x20\n      add\n      data_9fdcd12e4b726339b32a442b0a448365d5d85c96b2d2cff917b4f66c63110398\n      0x27\n      swap2\n      codecopy\n        /* \"lib/TWAddress.sol\":6632:6652  functionDelegateCall */\n      tag_318\n        /* \"lib/TWAddress.sol\":6632:6709  functionDelegateCall(target, data, \"Address: low-level delegate call failed\") */\n      jump\t// in\n        /* \"openzeppelin-presets/token/ERC20/extensions/ERC20Permit.sol\":3862:4065  function _useNonce(address owner) internal virtual returns (uint256 current) {... */\n    tag_223:\n      sub(shl(0xa0, 0x01), 0x01)\n        /* \"openzeppelin-presets/token/ERC20/extensions/ERC20Permit.sol\":3982:3996  _nonces[owner] */\n      dup2\n      and\n        /* \"openzeppelin-presets/token/ERC20/extensions/ERC20Permit.sol\":3922:3937  uint256 current */\n      0x00\n        /* \"openzeppelin-presets/token/ERC20/extensions/ERC20Permit.sol\":3982:3996  _nonces[owner] */\n      swap1\n      dup2\n      mstore\n        /* \"openzeppelin-presets/token/ERC20/extensions/ERC20Permit.sol\":3982:3989  _nonces */\n      0x07\n        /* \"openzeppelin-presets/token/ERC20/extensions/ERC20Permit.sol\":3982:3996  _nonces[owner] */\n      0x20\n      mstore\n      0x40\n      swap1\n      keccak256\n        /* \"openzeppelin-presets/utils/Counters.sol\":918:932  counter._value */\n      dup1\n      sload\n        /* \"openzeppelin-presets/utils/Counters.sol\":1050:1051  1 */\n      0x01\n        /* \"openzeppelin-presets/utils/Counters.sol\":1032:1051  counter._value += 1 */\n      dup2\n      add\n      dup3\n      sstore\n        /* \"openzeppelin-presets/utils/Counters.sol\":918:932  counter._value */\n      swap1\n        /* \"openzeppelin-presets/token/ERC20/extensions/ERC20Permit.sol\":4041:4058  nonce.increment() */\n    tag_321:\n        /* \"openzeppelin-presets/token/ERC20/extensions/ERC20Permit.sol\":3939:4065  {... */\n      pop\n        /* \"openzeppelin-presets/token/ERC20/extensions/ERC20Permit.sol\":3862:4065  function _useNonce(address owner) internal virtual returns (uint256 current) {... */\n      swap2\n      swap1\n      pop\n      jump\t// out\n        /* \"openzeppelin-presets/utils/cryptography/ECDSA.sol\":6708:6978  function recover(... */\n    tag_230:\n        /* \"openzeppelin-presets/utils/cryptography/ECDSA.sol\":6831:6838  address */\n      0x00\n        /* \"openzeppelin-presets/utils/cryptography/ECDSA.sol\":6851:6868  address recovered */\n      dup1\n        /* \"openzeppelin-presets/utils/cryptography/ECDSA.sol\":6870:6888  RecoverError error */\n      0x00\n        /* \"openzeppelin-presets/utils/cryptography/ECDSA.sol\":6892:6917  tryRecover(hash, v, r, s) */\n      tag_325\n        /* \"openzeppelin-presets/utils/cryptography/ECDSA.sol\":6903:6907  hash */\n      dup8\n        /* \"openzeppelin-presets/utils/cryptography/ECDSA.sol\":6909:6910  v */\n      dup8\n        /* \"openzeppelin-presets/utils/cryptography/ECDSA.sol\":6912:6913  r */\n      dup8\n        /* \"openzeppelin-presets/utils/cryptography/ECDSA.sol\":6915:6916  s */\n      dup8\n        /* \"openzeppelin-presets/utils/cryptography/ECDSA.sol\":6892:6902  tryRecover */\n      tag_326\n        /* \"openzeppelin-presets/utils/cryptography/ECDSA.sol\":6892:6917  tryRecover(hash, v, r, s) */\n      jump\t// in\n    tag_325:\n        /* \"openzeppelin-presets/utils/cryptography/ECDSA.sol\":6850:6917  (address recovered, RecoverError error) = tryRecover(hash, v, r, s) */\n      swap2\n      pop\n      swap2\n      pop\n        /* \"openzeppelin-presets/utils/cryptography/ECDSA.sol\":6927:6945  _throwError(error) */\n      tag_327\n        /* \"openzeppelin-presets/utils/cryptography/ECDSA.sol\":6939:6944  error */\n      dup2\n        /* \"openzeppelin-presets/utils/cryptography/ECDSA.sol\":6927:6938  _throwError */\n      tag_328\n        /* \"openzeppelin-presets/utils/cryptography/ECDSA.sol\":6927:6945  _throwError(error) */\n      jump\t// in\n    tag_327:\n      pop\n        /* \"openzeppelin-presets/utils/cryptography/ECDSA.sol\":6962:6971  recovered */\n      swap6\n        /* \"openzeppelin-presets/utils/cryptography/ECDSA.sol\":6708:6978  function recover(... */\n      swap5\n      pop\n      pop\n      pop\n      pop\n      pop\n      jump\t// out\n        /* \"lib/TWAddress.sol\":6902:7289  function functionDelegateCall(... */\n    tag_318:\n        /* \"lib/TWAddress.sol\":7043:7055  bytes memory */\n      0x60\n      sub(shl(0xa0, 0x01), 0x01)\n        /* \"lib/TWAddress.sol\":1407:1426  account.code.length */\n      dup5\n      and\n      extcodesize\n        /* \"lib/TWAddress.sol\":7067:7136  require(isContract(target), \"Address: delegate call to non-contract\") */\n      tag_334\n      jumpi\n      mload(0x40)\n      shl(0xe5, 0x461bcd)\n      dup2\n      mstore\n        /* \"#utility.yul\":15643:15645   */\n      0x20\n        /* \"lib/TWAddress.sol\":7067:7136  require(isContract(target), \"Address: delegate call to non-contract\") */\n      0x04\n      dup3\n      add\n        /* \"#utility.yul\":15625:15646   */\n      mstore\n        /* \"#utility.yul\":15682:15684   */\n      0x26\n        /* \"#utility.yul\":15662:15680   */\n      0x24\n      dup3\n      add\n        /* \"#utility.yul\":15655:15685   */\n      mstore\n        /* \"#utility.yul\":15721:15755   */\n      0x416464726573733a2064656c65676174652063616c6c20746f206e6f6e2d636f\n        /* \"#utility.yul\":15701:15719   */\n      0x44\n      dup3\n      add\n        /* \"#utility.yul\":15694:15756   */\n      mstore\n      shl(0xd2, 0x1b9d1c9858dd)\n        /* \"#utility.yul\":15772:15790   */\n      0x64\n      dup3\n      add\n        /* \"#utility.yul\":15765:15801   */\n      mstore\n        /* \"#utility.yul\":15818:15837   */\n      0x84\n      add\n        /* \"lib/TWAddress.sol\":7067:7136  require(isContract(target), \"Address: delegate call to non-contract\") */\n      tag_130\n        /* \"#utility.yul\":15441:15843   */\n      jump\n        /* \"lib/TWAddress.sol\":7067:7136  require(isContract(target), \"Address: delegate call to non-contract\") */\n    tag_334:\n        /* \"lib/TWAddress.sol\":7148:7160  bool success */\n      0x00\n        /* \"lib/TWAddress.sol\":7162:7185  bytes memory returndata */\n      dup1\n        /* \"lib/TWAddress.sol\":7189:7195  target */\n      dup6\n      sub(shl(0xa0, 0x01), 0x01)\n        /* \"lib/TWAddress.sol\":7189:7208  target.delegatecall */\n      and\n        /* \"lib/TWAddress.sol\":7209:7213  data */\n      dup6\n        /* \"lib/TWAddress.sol\":7189:7214  target.delegatecall(data) */\n      mload(0x40)\n      tag_337\n      swap2\n      swap1\n      tag_338\n      jump\t// in\n    tag_337:\n      0x00\n      mload(0x40)\n      dup1\n      dup4\n      sub\n      dup2\n      dup6\n      gas\n      delegatecall\n      swap2\n      pop\n      pop\n      returndatasize\n      dup1\n      0x00\n      dup2\n      eq\n      tag_341\n      jumpi\n      mload(0x40)\n      swap2\n      pop\n      and(add(returndatasize, 0x3f), not(0x1f))\n      dup3\n      add\n      0x40\n      mstore\n      returndatasize\n      dup3\n      mstore\n      returndatasize\n      0x00\n      0x20\n      dup5\n      add\n      returndatacopy\n      jump(tag_340)\n    tag_341:\n      0x60\n      swap2\n      pop\n    tag_340:\n      pop\n        /* \"lib/TWAddress.sol\":7147:7214  (bool success, bytes memory returndata) = target.delegatecall(data) */\n      swap2\n      pop\n      swap2\n      pop\n        /* \"lib/TWAddress.sol\":7231:7282  verifyCallResult(success, returndata, errorMessage) */\n      tag_342\n        /* \"lib/TWAddress.sol\":7248:7255  success */\n      dup3\n        /* \"lib/TWAddress.sol\":7257:7267  returndata */\n      dup3\n        /* \"lib/TWAddress.sol\":7269:7281  errorMessage */\n      dup7\n        /* \"lib/TWAddress.sol\":7231:7247  verifyCallResult */\n      tag_343\n        /* \"lib/TWAddress.sol\":7231:7282  verifyCallResult(success, returndata, errorMessage) */\n      jump\t// in\n    tag_342:\n        /* \"lib/TWAddress.sol\":7224:7282  return verifyCallResult(success, returndata, errorMessage) */\n      swap7\n        /* \"lib/TWAddress.sol\":6902:7289  function functionDelegateCall(... */\n      swap6\n      pop\n      pop\n      pop\n      pop\n      pop\n      pop\n      jump\t// out\n        /* \"openzeppelin-presets/utils/cryptography/ECDSA.sol\":5081:6575  function tryRecover(... */\n    tag_326:\n        /* \"openzeppelin-presets/utils/cryptography/ECDSA.sol\":5207:5214  address */\n      0x00\n      dup1\n        /* \"openzeppelin-presets/utils/cryptography/ECDSA.sol\":6131:6197  0x7FFFFFFFFFFFFFFFFFFFFFFFFFFFFFFF5D576E7357A4501DDFE92F46681B20A0 */\n      0x7fffffffffffffffffffffffffffffff5d576e7357a4501ddfe92f46681b20a0\n        /* \"openzeppelin-presets/utils/cryptography/ECDSA.sol\":6118:6197  uint256(s) > 0x7FFFFFFFFFFFFFFFFFFFFFFFFFFFFFFF5D576E7357A4501DDFE92F46681B20A0 */\n      dup4\n      gt\n        /* \"openzeppelin-presets/utils/cryptography/ECDSA.sol\":6114:6275  if (uint256(s) > 0x7FFFFFFFFFFFFFFFFFFFFFFFFFFFFFFF5D576E7357A4501DDFE92F46681B20A0) {... */\n      iszero\n      tag_346\n      jumpi\n      pop\n        /* \"openzeppelin-presets/utils/cryptography/ECDSA.sol\":6229:6230  0 */\n      0x00\n      swap1\n      pop\n        /* \"openzeppelin-presets/utils/cryptography/ECDSA.sol\":6233:6263  RecoverError.InvalidSignatureS */\n      0x03\n        /* \"openzeppelin-presets/utils/cryptography/ECDSA.sol\":6213:6264  return (address(0), RecoverError.InvalidSignatureS) */\n      jump(tag_345)\n        /* \"openzeppelin-presets/utils/cryptography/ECDSA.sol\":6114:6275  if (uint256(s) > 0x7FFFFFFFFFFFFFFFFFFFFFFFFFFFFFFF5D576E7357A4501DDFE92F46681B20A0) {... */\n    tag_346:\n        /* \"openzeppelin-presets/utils/cryptography/ECDSA.sol\":6386:6410  ecrecover(hash, v, r, s) */\n      0x40\n      dup1\n      mload\n        /* \"openzeppelin-presets/utils/cryptography/ECDSA.sol\":6369:6383  address signer */\n      0x00\n        /* \"openzeppelin-presets/utils/cryptography/ECDSA.sol\":6386:6410  ecrecover(hash, v, r, s) */\n      dup1\n      dup3\n      mstore\n      0x20\n      dup3\n      add\n      dup1\n      dup5\n      mstore\n        /* \"#utility.yul\":16354:16379   */\n      dup10\n      swap1\n      mstore\n        /* \"#utility.yul\":16427:16431   */\n      0xff\n        /* \"#utility.yul\":16415:16432   */\n      dup9\n      and\n        /* \"#utility.yul\":16395:16413   */\n      swap3\n      dup3\n      add\n        /* \"#utility.yul\":16388:16433   */\n      swap3\n      swap1\n      swap3\n      mstore\n        /* \"#utility.yul\":16449:16467   */\n      0x60\n      dup2\n      add\n        /* \"#utility.yul\":16442:16476   */\n      dup7\n      swap1\n      mstore\n        /* \"#utility.yul\":16492:16510   */\n      0x80\n      dup2\n      add\n        /* \"#utility.yul\":16485:16519   */\n      dup6\n      swap1\n      mstore\n        /* \"openzeppelin-presets/utils/cryptography/ECDSA.sol\":6386:6410  ecrecover(hash, v, r, s) */\n      0x01\n      swap1\n        /* \"#utility.yul\":16326:16345   */\n      0xa0\n      add\n        /* \"openzeppelin-presets/utils/cryptography/ECDSA.sol\":6386:6410  ecrecover(hash, v, r, s) */\n      0x20\n      mload(0x40)\n      0x20\n      dup2\n      sub\n      swap1\n      dup1\n      dup5\n      sub\n      swap1\n      dup6\n      gas\n      staticcall\n      iszero\n      dup1\n      iszero\n      tag_350\n      jumpi\n      returndatasize\n      0x00\n      dup1\n      returndatacopy\n      revert(0x00, returndatasize)\n    tag_350:\n      pop\n      pop\n      mload(add(not(0x1f), mload(0x40)))\n      swap2\n      pop\n      pop\n      sub(shl(0xa0, 0x01), 0x01)\n        /* \"openzeppelin-presets/utils/cryptography/ECDSA.sol\":6424:6444  signer == address(0) */\n      dup2\n      and\n        /* \"openzeppelin-presets/utils/cryptography/ECDSA.sol\":6420:6521  if (signer == address(0)) {... */\n      tag_351\n      jumpi\n        /* \"openzeppelin-presets/utils/cryptography/ECDSA.sol\":6476:6477  0 */\n      0x00\n        /* \"openzeppelin-presets/utils/cryptography/ECDSA.sol\":6480:6509  RecoverError.InvalidSignature */\n      0x01\n        /* \"openzeppelin-presets/utils/cryptography/ECDSA.sol\":6460:6510  return (address(0), RecoverError.InvalidSignature) */\n      swap3\n      pop\n      swap3\n      pop\n      pop\n      jump(tag_345)\n        /* \"openzeppelin-presets/utils/cryptography/ECDSA.sol\":6420:6521  if (signer == address(0)) {... */\n    tag_351:\n        /* \"openzeppelin-presets/utils/cryptography/ECDSA.sol\":6539:6545  signer */\n      swap2\n      pop\n        /* \"openzeppelin-presets/utils/cryptography/ECDSA.sol\":6547:6567  RecoverError.NoError */\n      0x00\n      swap1\n      pop\n        /* \"openzeppelin-presets/utils/cryptography/ECDSA.sol\":5081:6575  function tryRecover(... */\n    tag_345:\n      swap5\n      pop\n      swap5\n      swap3\n      pop\n      pop\n      pop\n      jump\t// out\n        /* \"openzeppelin-presets/utils/cryptography/ECDSA.sol\":582:1093  function _throwError(RecoverError error) private pure {... */\n    tag_328:\n        /* \"openzeppelin-presets/utils/cryptography/ECDSA.sol\":659:679  RecoverError.NoError */\n      0x00\n        /* \"openzeppelin-presets/utils/cryptography/ECDSA.sol\":650:655  error */\n      dup2\n        /* \"openzeppelin-presets/utils/cryptography/ECDSA.sol\":650:679  error == RecoverError.NoError */\n      0x04\n      dup2\n      gt\n      iszero\n      tag_357\n      jumpi\n      tag_357\n      tag_355\n      jump\t// in\n    tag_357:\n      eq\n        /* \"openzeppelin-presets/utils/cryptography/ECDSA.sol\":646:1087  if (error == RecoverError.NoError) {... */\n      iszero\n      tag_358\n      jumpi\n        /* \"openzeppelin-presets/utils/cryptography/ECDSA.sol\":582:1093  function _throwError(RecoverError error) private pure {... */\n      pop\n      jump\t// out\n        /* \"openzeppelin-presets/utils/cryptography/ECDSA.sol\":646:1087  if (error == RecoverError.NoError) {... */\n    tag_358:\n        /* \"openzeppelin-presets/utils/cryptography/ECDSA.sol\":755:784  RecoverError.InvalidSignature */\n      0x01\n        /* \"openzeppelin-presets/utils/cryptography/ECDSA.sol\":746:751  error */\n      dup2\n        /* \"openzeppelin-presets/utils/cryptography/ECDSA.sol\":746:784  error == RecoverError.InvalidSignature */\n      0x04\n      dup2\n      gt\n      iszero\n      tag_363\n      jumpi\n      tag_363\n      tag_355\n      jump\t// in\n    tag_363:\n      eq\n        /* \"openzeppelin-presets/utils/cryptography/ECDSA.sol\":742:1087  if (error == RecoverError.InvalidSignature) {... */\n      iszero\n      tag_364\n      jumpi\n        /* \"openzeppelin-presets/utils/cryptography/ECDSA.sol\":800:834  revert(\"ECDSA: invalid signature\") */\n      mload(0x40)\n      shl(0xe5, 0x461bcd)\n      dup2\n      mstore\n        /* \"#utility.yul\":16864:16866   */\n      0x20\n        /* \"openzeppelin-presets/utils/cryptography/ECDSA.sol\":800:834  revert(\"ECDSA: invalid signature\") */\n      0x04\n      dup3\n      add\n        /* \"#utility.yul\":16846:16867   */\n      mstore\n        /* \"#utility.yul\":16903:16905   */\n      0x18\n        /* \"#utility.yul\":16883:16901   */\n      0x24\n      dup3\n      add\n        /* \"#utility.yul\":16876:16906   */\n      mstore\n        /* \"#utility.yul\":16942:16968   */\n      0x45434453413a20696e76616c6964207369676e61747572650000000000000000\n        /* \"#utility.yul\":16922:16940   */\n      0x44\n      dup3\n      add\n        /* \"#utility.yul\":16915:16969   */\n      mstore\n        /* \"#utility.yul\":16986:17004   */\n      0x64\n      add\n        /* \"openzeppelin-presets/utils/cryptography/ECDSA.sol\":800:834  revert(\"ECDSA: invalid signature\") */\n      tag_130\n        /* \"#utility.yul\":16662:17010   */\n      jump\n        /* \"openzeppelin-presets/utils/cryptography/ECDSA.sol\":742:1087  if (error == RecoverError.InvalidSignature) {... */\n    tag_364:\n        /* \"openzeppelin-presets/utils/cryptography/ECDSA.sol\":864:899  RecoverError.InvalidSignatureLength */\n      0x02\n        /* \"openzeppelin-presets/utils/cryptography/ECDSA.sol\":855:860  error */\n      dup2\n        /* \"openzeppelin-presets/utils/cryptography/ECDSA.sol\":855:899  error == RecoverError.InvalidSignatureLength */\n      0x04\n      dup2\n      gt\n      iszero\n      tag_371\n      jumpi\n      tag_371\n      tag_355\n      jump\t// in\n    tag_371:\n      eq\n        /* \"openzeppelin-presets/utils/cryptography/ECDSA.sol\":851:1087  if (error == RecoverError.InvalidSignatureLength) {... */\n      iszero\n      tag_372\n      jumpi\n        /* \"openzeppelin-presets/utils/cryptography/ECDSA.sol\":915:956  revert(\"ECDSA: invalid signature length\") */\n      mload(0x40)\n      shl(0xe5, 0x461bcd)\n      dup2\n      mstore\n        /* \"#utility.yul\":17217:17219   */\n      0x20\n        /* \"openzeppelin-presets/utils/cryptography/ECDSA.sol\":915:956  revert(\"ECDSA: invalid signature length\") */\n      0x04\n      dup3\n      add\n        /* \"#utility.yul\":17199:17220   */\n      mstore\n        /* \"#utility.yul\":17256:17258   */\n      0x1f\n        /* \"#utility.yul\":17236:17254   */\n      0x24\n      dup3\n      add\n        /* \"#utility.yul\":17229:17259   */\n      mstore\n        /* \"#utility.yul\":17295:17328   */\n      0x45434453413a20696e76616c6964207369676e6174757265206c656e67746800\n        /* \"#utility.yul\":17275:17293   */\n      0x44\n      dup3\n      add\n        /* \"#utility.yul\":17268:17329   */\n      mstore\n        /* \"#utility.yul\":17346:17364   */\n      0x64\n      add\n        /* \"openzeppelin-presets/utils/cryptography/ECDSA.sol\":915:956  revert(\"ECDSA: invalid signature length\") */\n      tag_130\n        /* \"#utility.yul\":17015:17370   */\n      jump\n        /* \"openzeppelin-presets/utils/cryptography/ECDSA.sol\":851:1087  if (error == RecoverError.InvalidSignatureLength) {... */\n    tag_372:\n        /* \"openzeppelin-presets/utils/cryptography/ECDSA.sol\":986:1016  RecoverError.InvalidSignatureS */\n      0x03\n        /* \"openzeppelin-presets/utils/cryptography/ECDSA.sol\":977:982  error */\n      dup2\n        /* \"openzeppelin-presets/utils/cryptography/ECDSA.sol\":977:1016  error == RecoverError.InvalidSignatureS */\n      0x04\n      dup2\n      gt\n      iszero\n      tag_379\n      jumpi\n      tag_379\n      tag_355\n      jump\t// in\n    tag_379:\n      eq\n        /* \"openzeppelin-presets/utils/cryptography/ECDSA.sol\":973:1087  if (error == RecoverError.InvalidSignatureS) {... */\n      iszero\n      tag_132\n      jumpi\n        /* \"openzeppelin-presets/utils/cryptography/ECDSA.sol\":1032:1076  revert(\"ECDSA: invalid signature 's' value\") */\n      mload(0x40)\n      shl(0xe5, 0x461bcd)\n      dup2\n      mstore\n        /* \"#utility.yul\":17577:17579   */\n      0x20\n        /* \"openzeppelin-presets/utils/cryptography/ECDSA.sol\":1032:1076  revert(\"ECDSA: invalid signature 's' value\") */\n      0x04\n      dup3\n      add\n        /* \"#utility.yul\":17559:17580   */\n      mstore\n        /* \"#utility.yul\":17616:17618   */\n      0x22\n        /* \"#utility.yul\":17596:17614   */\n      0x24\n      dup3\n      add\n        /* \"#utility.yul\":17589:17619   */\n      mstore\n        /* \"#utility.yul\":17655:17689   */\n      0x45434453413a20696e76616c6964207369676e6174757265202773272076616c\n        /* \"#utility.yul\":17635:17653   */\n      0x44\n      dup3\n      add\n        /* \"#utility.yul\":17628:17690   */\n      mstore\n      shl(0xf0, 0x7565)\n        /* \"#utility.yul\":17706:17724   */\n      0x64\n      dup3\n      add\n        /* \"#utility.yul\":17699:17731   */\n      mstore\n        /* \"#utility.yul\":17748:17767   */\n      0x84\n      add\n        /* \"openzeppelin-presets/utils/cryptography/ECDSA.sol\":1032:1076  revert(\"ECDSA: invalid signature 's' value\") */\n      tag_130\n        /* \"#utility.yul\":17375:17773   */\n      jump\n        /* \"lib/TWAddress.sol\":7509:8201  function verifyCallResult(... */\n    tag_343:\n        /* \"lib/TWAddress.sol\":7655:7667  bytes memory */\n      0x60\n        /* \"lib/TWAddress.sol\":7683:7690  success */\n      dup4\n        /* \"lib/TWAddress.sol\":7679:8195  if (success) {... */\n      iszero\n      tag_385\n      jumpi\n      pop\n        /* \"lib/TWAddress.sol\":7713:7723  returndata */\n      dup2\n        /* \"lib/TWAddress.sol\":7706:7723  return returndata */\n      jump(tag_135)\n        /* \"lib/TWAddress.sol\":7679:8195  if (success) {... */\n    tag_385:\n        /* \"lib/TWAddress.sol\":7824:7841  returndata.length */\n      dup3\n      mload\n        /* \"lib/TWAddress.sol\":7824:7845  returndata.length > 0 */\n      iszero\n        /* \"lib/TWAddress.sol\":7820:8185  if (returndata.length > 0) {... */\n      tag_387\n      jumpi\n        /* \"lib/TWAddress.sol\":8018:8028  returndata */\n      dup3\n        /* \"lib/TWAddress.sol\":8012:8029  mload(returndata) */\n      mload\n        /* \"lib/TWAddress.sol\":8078:8093  returndata_size */\n      dup1\n        /* \"lib/TWAddress.sol\":8065:8075  returndata */\n      dup5\n        /* \"lib/TWAddress.sol\":8061:8063  32 */\n      0x20\n        /* \"lib/TWAddress.sol\":8057:8076  add(32, returndata) */\n      add\n        /* \"lib/TWAddress.sol\":8050:8094  revert(add(32, returndata), returndata_size) */\n      revert\n        /* \"lib/TWAddress.sol\":7820:8185  if (returndata.length > 0) {... */\n    tag_387:\n        /* \"lib/TWAddress.sol\":8157:8169  errorMessage */\n      dup2\n        /* \"lib/TWAddress.sol\":8150:8170  revert(errorMessage) */\n      mload(0x40)\n      shl(0xe5, 0x461bcd)\n      dup2\n      mstore\n      0x04\n      add\n      tag_130\n      swap2\n      swap1\n      tag_30\n      jump\t// in\n    tag_313:\n      dup3\n      dup1\n      sload\n      tag_390\n      swap1\n      tag_116\n      jump\t// in\n    tag_390:\n      swap1\n      0x00\n      mstore\n      keccak256(0x00, 0x20)\n      swap1\n      0x1f\n      add\n      0x20\n      swap1\n      div\n      dup2\n      add\n      swap3\n      dup3\n      tag_392\n      jumpi\n      0x00\n      dup6\n      sstore\n      jump(tag_395)\n    tag_392:\n      dup3\n      0x1f\n      lt\n      tag_393\n      jumpi\n      dup1\n      mload\n      not(0xff)\n      and\n      dup4\n      dup1\n      add\n      or\n      dup6\n      sstore\n      jump(tag_395)\n    tag_393:\n      dup3\n      dup1\n      add\n      0x01\n      add\n      dup6\n      sstore\n      dup3\n      iszero\n      tag_395\n      jumpi\n      swap2\n      dup3\n      add\n    tag_394:\n      dup3\n      dup2\n      gt\n      iszero\n      tag_395\n      jumpi\n      dup3\n      mload\n      dup3\n      sstore\n      swap2\n      0x20\n      add\n      swap2\n      swap1\n      0x01\n      add\n      swap1\n      jump(tag_394)\n    tag_395:\n      pop\n      tag_396\n      swap3\n      swap2\n      pop\n      tag_397\n      jump\t// in\n    tag_396:\n      pop\n      swap1\n      jump\t// out\n    tag_397:\n    tag_398:\n      dup1\n      dup3\n      gt\n      iszero\n      tag_396\n      jumpi\n      0x00\n      dup2\n      sstore\n      0x01\n      add\n      jump(tag_398)\n        /* \"#utility.yul\":14:272   */\n    tag_400:\n        /* \"#utility.yul\":86:87   */\n      0x00\n        /* \"#utility.yul\":96:209   */\n    tag_406:\n        /* \"#utility.yul\":110:116   */\n      dup4\n        /* \"#utility.yul\":107:108   */\n      dup2\n        /* \"#utility.yul\":104:117   */\n      lt\n        /* \"#utility.yul\":96:209   */\n      iszero\n      tag_408\n      jumpi\n        /* \"#utility.yul\":186:197   */\n      dup2\n      dup2\n      add\n        /* \"#utility.yul\":180:198   */\n      mload\n        /* \"#utility.yul\":167:178   */\n      dup4\n      dup3\n      add\n        /* \"#utility.yul\":160:199   */\n      mstore\n        /* \"#utility.yul\":132:134   */\n      0x20\n        /* \"#utility.yul\":125:135   */\n      add\n        /* \"#utility.yul\":96:209   */\n      jump(tag_406)\n    tag_408:\n        /* \"#utility.yul\":227:233   */\n      dup4\n        /* \"#utility.yul\":224:225   */\n      dup2\n        /* \"#utility.yul\":221:234   */\n      gt\n        /* \"#utility.yul\":218:266   */\n      iszero\n      tag_259\n      jumpi\n      pop\n      pop\n        /* \"#utility.yul\":262:263   */\n      0x00\n        /* \"#utility.yul\":244:260   */\n      swap2\n      add\n        /* \"#utility.yul\":237:264   */\n      mstore\n        /* \"#utility.yul\":14:272   */\n      jump\t// out\n        /* \"#utility.yul\":277:535   */\n    tag_401:\n        /* \"#utility.yul\":319:322   */\n      0x00\n        /* \"#utility.yul\":357:362   */\n      dup2\n        /* \"#utility.yul\":351:363   */\n      mload\n        /* \"#utility.yul\":384:390   */\n      dup1\n        /* \"#utility.yul\":379:382   */\n      dup5\n        /* \"#utility.yul\":372:391   */\n      mstore\n        /* \"#utility.yul\":400:463   */\n      tag_411\n        /* \"#utility.yul\":456:462   */\n      dup2\n        /* \"#utility.yul\":449:453   */\n      0x20\n        /* \"#utility.yul\":444:447   */\n      dup7\n        /* \"#utility.yul\":440:454   */\n      add\n        /* \"#utility.yul\":433:437   */\n      0x20\n        /* \"#utility.yul\":426:431   */\n      dup7\n        /* \"#utility.yul\":422:438   */\n      add\n        /* \"#utility.yul\":400:463   */\n      tag_400\n      jump\t// in\n    tag_411:\n        /* \"#utility.yul\":517:519   */\n      0x1f\n        /* \"#utility.yul\":496:511   */\n      add\n      not(0x1f)\n        /* \"#utility.yul\":492:521   */\n      and\n        /* \"#utility.yul\":483:522   */\n      swap3\n      swap1\n      swap3\n      add\n        /* \"#utility.yul\":524:528   */\n      0x20\n        /* \"#utility.yul\":479:529   */\n      add\n      swap3\n        /* \"#utility.yul\":277:535   */\n      swap2\n      pop\n      pop\n      jump\t// out\n        /* \"#utility.yul\":540:760   */\n    tag_30:\n        /* \"#utility.yul\":689:691   */\n      0x20\n        /* \"#utility.yul\":678:687   */\n      dup2\n        /* \"#utility.yul\":671:692   */\n      mstore\n        /* \"#utility.yul\":652:656   */\n      0x00\n        /* \"#utility.yul\":709:754   */\n      tag_135\n        /* \"#utility.yul\":750:752   */\n      0x20\n        /* \"#utility.yul\":739:748   */\n      dup4\n        /* \"#utility.yul\":735:753   */\n      add\n        /* \"#utility.yul\":727:733   */\n      dup5\n        /* \"#utility.yul\":709:754   */\n      tag_401\n      jump\t// in\n        /* \"#utility.yul\":765:938   */\n    tag_402:\n        /* \"#utility.yul\":833:853   */\n      dup1\n      calldataload\n      sub(shl(0xa0, 0x01), 0x01)\n        /* \"#utility.yul\":882:913   */\n      dup2\n      and\n        /* \"#utility.yul\":872:914   */\n      dup2\n      eq\n        /* \"#utility.yul\":862:932   */\n      tag_415\n      jumpi\n        /* \"#utility.yul\":928:929   */\n      0x00\n        /* \"#utility.yul\":925:926   */\n      dup1\n        /* \"#utility.yul\":918:930   */\n      revert\n        /* \"#utility.yul\":862:932   */\n    tag_415:\n        /* \"#utility.yul\":765:938   */\n      swap2\n      swap1\n      pop\n      jump\t// out\n        /* \"#utility.yul\":943:1197   */\n    tag_33:\n        /* \"#utility.yul\":1011:1017   */\n      0x00\n        /* \"#utility.yul\":1019:1025   */\n      dup1\n        /* \"#utility.yul\":1072:1074   */\n      0x40\n        /* \"#utility.yul\":1060:1069   */\n      dup4\n        /* \"#utility.yul\":1051:1058   */\n      dup6\n        /* \"#utility.yul\":1047:1070   */\n      sub\n        /* \"#utility.yul\":1043:1075   */\n      slt\n        /* \"#utility.yul\":1040:1092   */\n      iszero\n      tag_417\n      jumpi\n        /* \"#utility.yul\":1088:1089   */\n      0x00\n        /* \"#utility.yul\":1085:1086   */\n      dup1\n        /* \"#utility.yul\":1078:1090   */\n      revert\n        /* \"#utility.yul\":1040:1092   */\n    tag_417:\n        /* \"#utility.yul\":1111:1140   */\n      tag_418\n        /* \"#utility.yul\":1130:1139   */\n      dup4\n        /* \"#utility.yul\":1111:1140   */\n      tag_402\n      jump\t// in\n    tag_418:\n        /* \"#utility.yul\":1101:1140   */\n      swap5\n        /* \"#utility.yul\":1187:1189   */\n      0x20\n        /* \"#utility.yul\":1172:1190   */\n      swap4\n      swap1\n      swap4\n      add\n        /* \"#utility.yul\":1159:1191   */\n      calldataload\n      swap4\n      pop\n      pop\n      pop\n        /* \"#utility.yul\":943:1197   */\n      jump\t// out\n        /* \"#utility.yul\":1394:1580   */\n    tag_39:\n        /* \"#utility.yul\":1453:1459   */\n      0x00\n        /* \"#utility.yul\":1506:1508   */\n      0x20\n        /* \"#utility.yul\":1494:1503   */\n      dup3\n        /* \"#utility.yul\":1485:1492   */\n      dup5\n        /* \"#utility.yul\":1481:1504   */\n      sub\n        /* \"#utility.yul\":1477:1509   */\n      slt\n        /* \"#utility.yul\":1474:1526   */\n      iszero\n      tag_421\n      jumpi\n        /* \"#utility.yul\":1522:1523   */\n      0x00\n        /* \"#utility.yul\":1519:1520   */\n      dup1\n        /* \"#utility.yul\":1512:1524   */\n      revert\n        /* \"#utility.yul\":1474:1526   */\n    tag_421:\n        /* \"#utility.yul\":1545:1574   */\n      tag_135\n        /* \"#utility.yul\":1564:1573   */\n      dup3\n        /* \"#utility.yul\":1545:1574   */\n      tag_402\n      jump\t// in\n        /* \"#utility.yul\":1767:2095   */\n    tag_47:\n        /* \"#utility.yul\":1844:1850   */\n      0x00\n        /* \"#utility.yul\":1852:1858   */\n      dup1\n        /* \"#utility.yul\":1860:1866   */\n      0x00\n        /* \"#utility.yul\":1913:1915   */\n      0x60\n        /* \"#utility.yul\":1901:1910   */\n      dup5\n        /* \"#utility.yul\":1892:1899   */\n      dup7\n        /* \"#utility.yul\":1888:1911   */\n      sub\n        /* \"#utility.yul\":1884:1916   */\n      slt\n        /* \"#utility.yul\":1881:1933   */\n      iszero\n      tag_425\n      jumpi\n        /* \"#utility.yul\":1929:1930   */\n      0x00\n        /* \"#utility.yul\":1926:1927   */\n      dup1\n        /* \"#utility.yul\":1919:1931   */\n      revert\n        /* \"#utility.yul\":1881:1933   */\n    tag_425:\n        /* \"#utility.yul\":1952:1981   */\n      tag_426\n        /* \"#utility.yul\":1971:1980   */\n      dup5\n        /* \"#utility.yul\":1952:1981   */\n      tag_402\n      jump\t// in\n    tag_426:\n        /* \"#utility.yul\":1942:1981   */\n      swap3\n      pop\n        /* \"#utility.yul\":2000:2038   */\n      tag_427\n        /* \"#utility.yul\":2034:2036   */\n      0x20\n        /* \"#utility.yul\":2023:2032   */\n      dup6\n        /* \"#utility.yul\":2019:2037   */\n      add\n        /* \"#utility.yul\":2000:2038   */\n      tag_402\n      jump\t// in\n    tag_427:\n        /* \"#utility.yul\":1990:2038   */\n      swap2\n      pop\n        /* \"#utility.yul\":2085:2087   */\n      0x40\n        /* \"#utility.yul\":2074:2083   */\n      dup5\n        /* \"#utility.yul\":2070:2088   */\n      add\n        /* \"#utility.yul\":2057:2089   */\n      calldataload\n        /* \"#utility.yul\":2047:2089   */\n      swap1\n      pop\n        /* \"#utility.yul\":1767:2095   */\n      swap3\n      pop\n      swap3\n      pop\n      swap3\n      jump\t// out\n        /* \"#utility.yul\":2471:2651   */\n    tag_64:\n        /* \"#utility.yul\":2530:2536   */\n      0x00\n        /* \"#utility.yul\":2583:2585   */\n      0x20\n        /* \"#utility.yul\":2571:2580   */\n      dup3\n        /* \"#utility.yul\":2562:2569   */\n      dup5\n        /* \"#utility.yul\":2558:2581   */\n      sub\n        /* \"#utility.yul\":2554:2586   */\n      slt\n        /* \"#utility.yul\":2551:2603   */\n      iszero\n      tag_431\n      jumpi\n        /* \"#utility.yul\":2599:2600   */\n      0x00\n        /* \"#utility.yul\":2596:2597   */\n      dup1\n        /* \"#utility.yul\":2589:2601   */\n      revert\n        /* \"#utility.yul\":2551:2603   */\n    tag_431:\n      pop\n        /* \"#utility.yul\":2622:2645   */\n      calldataload\n      swap2\n        /* \"#utility.yul\":2471:2651   */\n      swap1\n      pop\n      jump\t// out\n        /* \"#utility.yul\":2864:2991   */\n    tag_201:\n        /* \"#utility.yul\":2925:2935   */\n      0x4e487b71\n        /* \"#utility.yul\":2920:2923   */\n      0xe0\n        /* \"#utility.yul\":2916:2936   */\n      shl\n        /* \"#utility.yul\":2913:2914   */\n      0x00\n        /* \"#utility.yul\":2906:2937   */\n      mstore\n        /* \"#utility.yul\":2956:2960   */\n      0x41\n        /* \"#utility.yul\":2953:2954   */\n      0x04\n        /* \"#utility.yul\":2946:2961   */\n      mstore\n        /* \"#utility.yul\":2980:2984   */\n      0x24\n        /* \"#utility.yul\":2977:2978   */\n      0x00\n        /* \"#utility.yul\":2970:2985   */\n      revert\n        /* \"#utility.yul\":2996:3918   */\n    tag_83:\n        /* \"#utility.yul\":3065:3071   */\n      0x00\n        /* \"#utility.yul\":3118:3120   */\n      0x20\n        /* \"#utility.yul\":3106:3115   */\n      dup3\n        /* \"#utility.yul\":3097:3104   */\n      dup5\n        /* \"#utility.yul\":3093:3116   */\n      sub\n        /* \"#utility.yul\":3089:3121   */\n      slt\n        /* \"#utility.yul\":3086:3138   */\n      iszero\n      tag_435\n      jumpi\n        /* \"#utility.yul\":3134:3135   */\n      0x00\n        /* \"#utility.yul\":3131:3132   */\n      dup1\n        /* \"#utility.yul\":3124:3136   */\n      revert\n        /* \"#utility.yul\":3086:3138   */\n    tag_435:\n        /* \"#utility.yul\":3174:3183   */\n      dup2\n        /* \"#utility.yul\":3161:3184   */\n      calldataload\n        /* \"#utility.yul\":3203:3221   */\n      0xffffffffffffffff\n        /* \"#utility.yul\":3244:3246   */\n      dup1\n        /* \"#utility.yul\":3236:3242   */\n      dup3\n        /* \"#utility.yul\":3233:3247   */\n      gt\n        /* \"#utility.yul\":3230:3264   */\n      iszero\n      tag_436\n      jumpi\n        /* \"#utility.yul\":3260:3261   */\n      0x00\n        /* \"#utility.yul\":3257:3258   */\n      dup1\n        /* \"#utility.yul\":3250:3262   */\n      revert\n        /* \"#utility.yul\":3230:3264   */\n    tag_436:\n        /* \"#utility.yul\":3298:3304   */\n      dup2\n        /* \"#utility.yul\":3287:3296   */\n      dup5\n        /* \"#utility.yul\":3283:3305   */\n      add\n        /* \"#utility.yul\":3273:3305   */\n      swap2\n      pop\n        /* \"#utility.yul\":3343:3350   */\n      dup5\n        /* \"#utility.yul\":3336:3340   */\n      0x1f\n        /* \"#utility.yul\":3332:3334   */\n      dup4\n        /* \"#utility.yul\":3328:3341   */\n      add\n        /* \"#utility.yul\":3324:3351   */\n      slt\n        /* \"#utility.yul\":3314:3369   */\n      tag_437\n      jumpi\n        /* \"#utility.yul\":3365:3366   */\n      0x00\n        /* \"#utility.yul\":3362:3363   */\n      dup1\n        /* \"#utility.yul\":3355:3367   */\n      revert\n        /* \"#utility.yul\":3314:3369   */\n    tag_437:\n        /* \"#utility.yul\":3401:3403   */\n      dup2\n        /* \"#utility.yul\":3388:3404   */\n      calldataload\n        /* \"#utility.yul\":3423:3425   */\n      dup2\n        /* \"#utility.yul\":3419:3421   */\n      dup2\n        /* \"#utility.yul\":3416:3426   */\n      gt\n        /* \"#utility.yul\":3413:3449   */\n      iszero\n      tag_439\n      jumpi\n        /* \"#utility.yul\":3429:3447   */\n      tag_439\n      tag_201\n      jump\t// in\n    tag_439:\n        /* \"#utility.yul\":3504:3506   */\n      0x40\n        /* \"#utility.yul\":3498:3507   */\n      mload\n        /* \"#utility.yul\":3472:3474   */\n      0x1f\n        /* \"#utility.yul\":3558:3571   */\n      dup3\n      add\n      not(0x1f)\n        /* \"#utility.yul\":3554:3576   */\n      swap1\n      dup2\n      and\n        /* \"#utility.yul\":3578:3580   */\n      0x3f\n        /* \"#utility.yul\":3550:3581   */\n      add\n        /* \"#utility.yul\":3546:3586   */\n      and\n        /* \"#utility.yul\":3534:3587   */\n      dup2\n      add\n      swap1\n        /* \"#utility.yul\":3602:3620   */\n      dup4\n      dup3\n      gt\n        /* \"#utility.yul\":3622:3644   */\n      dup2\n      dup4\n      lt\n        /* \"#utility.yul\":3599:3645   */\n      or\n        /* \"#utility.yul\":3596:3668   */\n      iszero\n      tag_441\n      jumpi\n        /* \"#utility.yul\":3648:3666   */\n      tag_441\n      tag_201\n      jump\t// in\n    tag_441:\n        /* \"#utility.yul\":3688:3698   */\n      dup2\n        /* \"#utility.yul\":3684:3686   */\n      0x40\n        /* \"#utility.yul\":3677:3699   */\n      mstore\n        /* \"#utility.yul\":3723:3725   */\n      dup3\n        /* \"#utility.yul\":3715:3721   */\n      dup2\n        /* \"#utility.yul\":3708:3726   */\n      mstore\n        /* \"#utility.yul\":3763:3770   */\n      dup8\n        /* \"#utility.yul\":3758:3760   */\n      0x20\n        /* \"#utility.yul\":3753:3755   */\n      dup5\n        /* \"#utility.yul\":3749:3751   */\n      dup8\n        /* \"#utility.yul\":3745:3756   */\n      add\n        /* \"#utility.yul\":3741:3761   */\n      add\n        /* \"#utility.yul\":3738:3771   */\n      gt\n        /* \"#utility.yul\":3735:3788   */\n      iszero\n      tag_442\n      jumpi\n        /* \"#utility.yul\":3784:3785   */\n      0x00\n        /* \"#utility.yul\":3781:3782   */\n      dup1\n        /* \"#utility.yul\":3774:3786   */\n      revert\n        /* \"#utility.yul\":3735:3788   */\n    tag_442:\n        /* \"#utility.yul\":3840:3842   */\n      dup3\n        /* \"#utility.yul\":3835:3837   */\n      0x20\n        /* \"#utility.yul\":3831:3833   */\n      dup7\n        /* \"#utility.yul\":3827:3838   */\n      add\n        /* \"#utility.yul\":3822:3824   */\n      0x20\n        /* \"#utility.yul\":3814:3820   */\n      dup4\n        /* \"#utility.yul\":3810:3825   */\n      add\n        /* \"#utility.yul\":3797:3843   */\n      calldatacopy\n        /* \"#utility.yul\":3885:3886   */\n      0x00\n        /* \"#utility.yul\":3863:3878   */\n      swap3\n      dup2\n      add\n        /* \"#utility.yul\":3880:3882   */\n      0x20\n        /* \"#utility.yul\":3859:3883   */\n      add\n        /* \"#utility.yul\":3852:3887   */\n      swap3\n      swap1\n      swap3\n      mstore\n      pop\n        /* \"#utility.yul\":3867:3873   */\n      swap6\n        /* \"#utility.yul\":2996:3918   */\n      swap5\n      pop\n      pop\n      pop\n      pop\n      pop\n      jump\t// out\n        /* \"#utility.yul\":3923:4549   */\n    tag_98:\n        /* \"#utility.yul\":4020:4026   */\n      0x00\n        /* \"#utility.yul\":4028:4034   */\n      dup1\n        /* \"#utility.yul\":4081:4083   */\n      0x20\n        /* \"#utility.yul\":4069:4078   */\n      dup4\n        /* \"#utility.yul\":4060:4067   */\n      dup6\n        /* \"#utility.yul\":4056:4079   */\n      sub\n        /* \"#utility.yul\":4052:4084   */\n      slt\n        /* \"#utility.yul\":4049:4101   */\n      iszero\n      tag_444\n      jumpi\n        /* \"#utility.yul\":4097:4098   */\n      0x00\n        /* \"#utility.yul\":4094:4095   */\n      dup1\n        /* \"#utility.yul\":4087:4099   */\n      revert\n        /* \"#utility.yul\":4049:4101   */\n    tag_444:\n        /* \"#utility.yul\":4137:4146   */\n      dup3\n        /* \"#utility.yul\":4124:4147   */\n      calldataload\n        /* \"#utility.yul\":4166:4184   */\n      0xffffffffffffffff\n        /* \"#utility.yul\":4207:4209   */\n      dup1\n        /* \"#utility.yul\":4199:4205   */\n      dup3\n        /* \"#utility.yul\":4196:4210   */\n      gt\n        /* \"#utility.yul\":4193:4227   */\n      iszero\n      tag_445\n      jumpi\n        /* \"#utility.yul\":4223:4224   */\n      0x00\n        /* \"#utility.yul\":4220:4221   */\n      dup1\n        /* \"#utility.yul\":4213:4225   */\n      revert\n        /* \"#utility.yul\":4193:4227   */\n    tag_445:\n        /* \"#utility.yul\":4261:4267   */\n      dup2\n        /* \"#utility.yul\":4250:4259   */\n      dup6\n        /* \"#utility.yul\":4246:4268   */\n      add\n        /* \"#utility.yul\":4236:4268   */\n      swap2\n      pop\n        /* \"#utility.yul\":4306:4313   */\n      dup6\n        /* \"#utility.yul\":4299:4303   */\n      0x1f\n        /* \"#utility.yul\":4295:4297   */\n      dup4\n        /* \"#utility.yul\":4291:4304   */\n      add\n        /* \"#utility.yul\":4287:4314   */\n      slt\n        /* \"#utility.yul\":4277:4332   */\n      tag_446\n      jumpi\n        /* \"#utility.yul\":4328:4329   */\n      0x00\n        /* \"#utility.yul\":4325:4326   */\n      dup1\n        /* \"#utility.yul\":4318:4330   */\n      revert\n        /* \"#utility.yul\":4277:4332   */\n    tag_446:\n        /* \"#utility.yul\":4368:4370   */\n      dup2\n        /* \"#utility.yul\":4355:4371   */\n      calldataload\n        /* \"#utility.yul\":4394:4396   */\n      dup2\n        /* \"#utility.yul\":4386:4392   */\n      dup2\n        /* \"#utility.yul\":4383:4397   */\n      gt\n        /* \"#utility.yul\":4380:4414   */\n      iszero\n      tag_447\n      jumpi\n        /* \"#utility.yul\":4410:4411   */\n      0x00\n        /* \"#utility.yul\":4407:4408   */\n      dup1\n        /* \"#utility.yul\":4400:4412   */\n      revert\n        /* \"#utility.yul\":4380:4414   */\n    tag_447:\n        /* \"#utility.yul\":4463:4470   */\n      dup7\n        /* \"#utility.yul\":4458:4460   */\n      0x20\n        /* \"#utility.yul\":4448:4454   */\n      dup3\n        /* \"#utility.yul\":4445:4446   */\n      0x05\n        /* \"#utility.yul\":4441:4455   */\n      shl\n        /* \"#utility.yul\":4437:4439   */\n      dup6\n        /* \"#utility.yul\":4433:4456   */\n      add\n        /* \"#utility.yul\":4429:4461   */\n      add\n        /* \"#utility.yul\":4426:4471   */\n      gt\n        /* \"#utility.yul\":4423:4488   */\n      iszero\n      tag_448\n      jumpi\n        /* \"#utility.yul\":4484:4485   */\n      0x00\n        /* \"#utility.yul\":4481:4482   */\n      dup1\n        /* \"#utility.yul\":4474:4486   */\n      revert\n        /* \"#utility.yul\":4423:4488   */\n    tag_448:\n        /* \"#utility.yul\":4515:4517   */\n      0x20\n        /* \"#utility.yul\":4507:4518   */\n      swap3\n      swap1\n      swap3\n      add\n      swap7\n        /* \"#utility.yul\":4537:4543   */\n      swap2\n      swap6\n      pop\n        /* \"#utility.yul\":3923:4549   */\n      swap1\n      swap4\n      pop\n      pop\n      pop\n      pop\n      jump\t// out\n        /* \"#utility.yul\":4554:5355   */\n    tag_101:\n        /* \"#utility.yul\":4714:4718   */\n      0x00\n        /* \"#utility.yul\":4743:4745   */\n      0x20\n        /* \"#utility.yul\":4783:4785   */\n      dup1\n        /* \"#utility.yul\":4772:4781   */\n      dup4\n        /* \"#utility.yul\":4768:4786   */\n      add\n        /* \"#utility.yul\":4813:4815   */\n      dup2\n        /* \"#utility.yul\":4802:4811   */\n      dup5\n        /* \"#utility.yul\":4795:4816   */\n      mstore\n        /* \"#utility.yul\":4836:4842   */\n      dup1\n        /* \"#utility.yul\":4871:4877   */\n      dup6\n        /* \"#utility.yul\":4865:4878   */\n      mload\n        /* \"#utility.yul\":4902:4908   */\n      dup1\n        /* \"#utility.yul\":4894:4900   */\n      dup4\n        /* \"#utility.yul\":4887:4909   */\n      mstore\n        /* \"#utility.yul\":4940:4942   */\n      0x40\n        /* \"#utility.yul\":4929:4938   */\n      dup7\n        /* \"#utility.yul\":4925:4943   */\n      add\n        /* \"#utility.yul\":4918:4943   */\n      swap2\n      pop\n        /* \"#utility.yul\":5002:5004   */\n      0x40\n        /* \"#utility.yul\":4992:4998   */\n      dup2\n        /* \"#utility.yul\":4989:4990   */\n      0x05\n        /* \"#utility.yul\":4985:4999   */\n      shl\n        /* \"#utility.yul\":4974:4983   */\n      dup8\n        /* \"#utility.yul\":4970:5000   */\n      add\n        /* \"#utility.yul\":4966:5005   */\n      add\n        /* \"#utility.yul\":4952:5005   */\n      swap3\n      pop\n        /* \"#utility.yul\":5040:5042   */\n      dup4\n        /* \"#utility.yul\":5032:5038   */\n      dup8\n        /* \"#utility.yul\":5028:5043   */\n      add\n        /* \"#utility.yul\":5061:5062   */\n      0x00\n        /* \"#utility.yul\":5071:5326   */\n    tag_450:\n        /* \"#utility.yul\":5085:5091   */\n      dup3\n        /* \"#utility.yul\":5082:5083   */\n      dup2\n        /* \"#utility.yul\":5079:5092   */\n      lt\n        /* \"#utility.yul\":5071:5326   */\n      iszero\n      tag_452\n      jumpi\n        /* \"#utility.yul\":5178:5180   */\n      0x3f\n        /* \"#utility.yul\":5174:5181   */\n      not\n        /* \"#utility.yul\":5162:5171   */\n      dup9\n        /* \"#utility.yul\":5154:5160   */\n      dup7\n        /* \"#utility.yul\":5150:5172   */\n      sub\n        /* \"#utility.yul\":5146:5182   */\n      add\n        /* \"#utility.yul\":5141:5144   */\n      dup5\n        /* \"#utility.yul\":5134:5183   */\n      mstore\n        /* \"#utility.yul\":5206:5246   */\n      tag_453\n        /* \"#utility.yul\":5239:5245   */\n      dup6\n        /* \"#utility.yul\":5230:5236   */\n      dup4\n        /* \"#utility.yul\":5224:5237   */\n      mload\n        /* \"#utility.yul\":5206:5246   */\n      tag_401\n      jump\t// in\n    tag_453:\n        /* \"#utility.yul\":5196:5246   */\n      swap5\n      pop\n        /* \"#utility.yul\":5304:5316   */\n      swap3\n      dup6\n      add\n      swap3\n        /* \"#utility.yul\":5269:5284   */\n      swap1\n      dup6\n      add\n      swap1\n        /* \"#utility.yul\":5107:5108   */\n      0x01\n        /* \"#utility.yul\":5100:5109   */\n      add\n        /* \"#utility.yul\":5071:5326   */\n      jump(tag_450)\n    tag_452:\n      pop\n        /* \"#utility.yul\":5343:5349   */\n      swap3\n      swap8\n        /* \"#utility.yul\":4554:5355   */\n      swap7\n      pop\n      pop\n      pop\n      pop\n      pop\n      pop\n      pop\n      jump\t// out\n        /* \"#utility.yul\":5360:6053   */\n    tag_104:\n        /* \"#utility.yul\":5471:5477   */\n      0x00\n        /* \"#utility.yul\":5479:5485   */\n      dup1\n        /* \"#utility.yul\":5487:5493   */\n      0x00\n        /* \"#utility.yul\":5495:5501   */\n      dup1\n        /* \"#utility.yul\":5503:5509   */\n      0x00\n        /* \"#utility.yul\":5511:5517   */\n      dup1\n        /* \"#utility.yul\":5519:5525   */\n      0x00\n        /* \"#utility.yul\":5572:5575   */\n      0xe0\n        /* \"#utility.yul\":5560:5569   */\n      dup9\n        /* \"#utility.yul\":5551:5558   */\n      dup11\n        /* \"#utility.yul\":5547:5570   */\n      sub\n        /* \"#utility.yul\":5543:5576   */\n      slt\n        /* \"#utility.yul\":5540:5593   */\n      iszero\n      tag_455\n      jumpi\n        /* \"#utility.yul\":5589:5590   */\n      0x00\n        /* \"#utility.yul\":5586:5587   */\n      dup1\n        /* \"#utility.yul\":5579:5591   */\n      revert\n        /* \"#utility.yul\":5540:5593   */\n    tag_455:\n        /* \"#utility.yul\":5612:5641   */\n      tag_456\n        /* \"#utility.yul\":5631:5640   */\n      dup9\n        /* \"#utility.yul\":5612:5641   */\n      tag_402\n      jump\t// in\n    tag_456:\n        /* \"#utility.yul\":5602:5641   */\n      swap7\n      pop\n        /* \"#utility.yul\":5660:5698   */\n      tag_457\n        /* \"#utility.yul\":5694:5696   */\n      0x20\n        /* \"#utility.yul\":5683:5692   */\n      dup10\n        /* \"#utility.yul\":5679:5697   */\n      add\n        /* \"#utility.yul\":5660:5698   */\n      tag_402\n      jump\t// in\n    tag_457:\n        /* \"#utility.yul\":5650:5698   */\n      swap6\n      pop\n        /* \"#utility.yul\":5745:5747   */\n      0x40\n        /* \"#utility.yul\":5734:5743   */\n      dup9\n        /* \"#utility.yul\":5730:5748   */\n      add\n        /* \"#utility.yul\":5717:5749   */\n      calldataload\n        /* \"#utility.yul\":5707:5749   */\n      swap5\n      pop\n        /* \"#utility.yul\":5796:5798   */\n      0x60\n        /* \"#utility.yul\":5785:5794   */\n      dup9\n        /* \"#utility.yul\":5781:5799   */\n      add\n        /* \"#utility.yul\":5768:5800   */\n      calldataload\n        /* \"#utility.yul\":5758:5800   */\n      swap4\n      pop\n        /* \"#utility.yul\":5850:5853   */\n      0x80\n        /* \"#utility.yul\":5839:5848   */\n      dup9\n        /* \"#utility.yul\":5835:5854   */\n      add\n        /* \"#utility.yul\":5822:5855   */\n      calldataload\n        /* \"#utility.yul\":5895:5899   */\n      0xff\n        /* \"#utility.yul\":5888:5893   */\n      dup2\n        /* \"#utility.yul\":5884:5900   */\n      and\n        /* \"#utility.yul\":5877:5882   */\n      dup2\n        /* \"#utility.yul\":5874:5901   */\n      eq\n        /* \"#utility.yul\":5864:5919   */\n      tag_458\n      jumpi\n        /* \"#utility.yul\":5915:5916   */\n      0x00\n        /* \"#utility.yul\":5912:5913   */\n      dup1\n        /* \"#utility.yul\":5905:5917   */\n      revert\n        /* \"#utility.yul\":5864:5919   */\n    tag_458:\n        /* \"#utility.yul\":5360:6053   */\n      swap7\n      swap10\n      swap6\n      swap9\n      pop\n      swap4\n      swap7\n      swap3\n      swap6\n        /* \"#utility.yul\":5938:5943   */\n      swap5\n        /* \"#utility.yul\":5990:5993   */\n      0xa0\n        /* \"#utility.yul\":5975:5994   */\n      dup5\n      add\n        /* \"#utility.yul\":5962:5995   */\n      calldataload\n      swap5\n      pop\n        /* \"#utility.yul\":6042:6045   */\n      0xc0\n        /* \"#utility.yul\":6027:6046   */\n      swap1\n      swap4\n      add\n        /* \"#utility.yul\":6014:6047   */\n      calldataload\n      swap3\n        /* \"#utility.yul\":5360:6053   */\n      swap2\n      pop\n      pop\n      jump\t// out\n        /* \"#utility.yul\":6058:6318   */\n    tag_108:\n        /* \"#utility.yul\":6126:6132   */\n      0x00\n        /* \"#utility.yul\":6134:6140   */\n      dup1\n        /* \"#utility.yul\":6187:6189   */\n      0x40\n        /* \"#utility.yul\":6175:6184   */\n      dup4\n        /* \"#utility.yul\":6166:6173   */\n      dup6\n        /* \"#utility.yul\":6162:6185   */\n      sub\n        /* \"#utility.yul\":6158:6190   */\n      slt\n        /* \"#utility.yul\":6155:6207   */\n      iszero\n      tag_460\n      jumpi\n        /* \"#utility.yul\":6203:6204   */\n      0x00\n        /* \"#utility.yul\":6200:6201   */\n      dup1\n        /* \"#utility.yul\":6193:6205   */\n      revert\n        /* \"#utility.yul\":6155:6207   */\n    tag_460:\n        /* \"#utility.yul\":6226:6255   */\n      tag_461\n        /* \"#utility.yul\":6245:6254   */\n      dup4\n        /* \"#utility.yul\":6226:6255   */\n      tag_402\n      jump\t// in\n    tag_461:\n        /* \"#utility.yul\":6216:6255   */\n      swap2\n      pop\n        /* \"#utility.yul\":6274:6312   */\n      tag_462\n        /* \"#utility.yul\":6308:6310   */\n      0x20\n        /* \"#utility.yul\":6297:6306   */\n      dup5\n        /* \"#utility.yul\":6293:6311   */\n      add\n        /* \"#utility.yul\":6274:6312   */\n      tag_402\n      jump\t// in\n    tag_462:\n        /* \"#utility.yul\":6264:6312   */\n      swap1\n      pop\n        /* \"#utility.yul\":6058:6318   */\n      swap3\n      pop\n      swap3\n      swap1\n      pop\n      jump\t// out\n        /* \"#utility.yul\":6323:6703   */\n    tag_116:\n        /* \"#utility.yul\":6402:6403   */\n      0x01\n        /* \"#utility.yul\":6398:6410   */\n      dup2\n      dup2\n      shr\n      swap1\n        /* \"#utility.yul\":6445:6457   */\n      dup3\n      and\n      dup1\n        /* \"#utility.yul\":6466:6527   */\n      tag_464\n      jumpi\n        /* \"#utility.yul\":6520:6524   */\n      0x7f\n        /* \"#utility.yul\":6512:6518   */\n      dup3\n        /* \"#utility.yul\":6508:6525   */\n      and\n        /* \"#utility.yul\":6498:6525   */\n      swap2\n      pop\n        /* \"#utility.yul\":6466:6527   */\n    tag_464:\n        /* \"#utility.yul\":6573:6575   */\n      0x20\n        /* \"#utility.yul\":6565:6571   */\n      dup3\n        /* \"#utility.yul\":6562:6576   */\n      lt\n        /* \"#utility.yul\":6542:6560   */\n      dup2\n        /* \"#utility.yul\":6539:6577   */\n      eq\n        /* \"#utility.yul\":6536:6697   */\n      iszero\n      tag_321\n      jumpi\n        /* \"#utility.yul\":6619:6629   */\n      0x4e487b71\n        /* \"#utility.yul\":6614:6617   */\n      0xe0\n        /* \"#utility.yul\":6610:6630   */\n      shl\n        /* \"#utility.yul\":6607:6608   */\n      0x00\n        /* \"#utility.yul\":6600:6631   */\n      mstore\n        /* \"#utility.yul\":6654:6658   */\n      0x22\n        /* \"#utility.yul\":6651:6652   */\n      0x04\n        /* \"#utility.yul\":6644:6659   */\n      mstore\n        /* \"#utility.yul\":6682:6686   */\n      0x24\n        /* \"#utility.yul\":6679:6680   */\n      0x00\n        /* \"#utility.yul\":6672:6687   */\n      revert\n        /* \"#utility.yul\":7051:7178   */\n    tag_403:\n        /* \"#utility.yul\":7112:7122   */\n      0x4e487b71\n        /* \"#utility.yul\":7107:7110   */\n      0xe0\n        /* \"#utility.yul\":7103:7123   */\n      shl\n        /* \"#utility.yul\":7100:7101   */\n      0x00\n        /* \"#utility.yul\":7093:7124   */\n      mstore\n        /* \"#utility.yul\":7143:7147   */\n      0x11\n        /* \"#utility.yul\":7140:7141   */\n      0x04\n        /* \"#utility.yul\":7133:7148   */\n      mstore\n        /* \"#utility.yul\":7167:7171   */\n      0x24\n        /* \"#utility.yul\":7164:7165   */\n      0x00\n        /* \"#utility.yul\":7157:7172   */\n      revert\n        /* \"#utility.yul\":7183:7311   */\n    tag_152:\n        /* \"#utility.yul\":7223:7226   */\n      0x00\n        /* \"#utility.yul\":7254:7255   */\n      dup3\n        /* \"#utility.yul\":7250:7256   */\n      not\n        /* \"#utility.yul\":7247:7248   */\n      dup3\n        /* \"#utility.yul\":7244:7257   */\n      gt\n        /* \"#utility.yul\":7241:7280   */\n      iszero\n      tag_470\n      jumpi\n        /* \"#utility.yul\":7260:7278   */\n      tag_470\n      tag_403\n      jump\t// in\n    tag_470:\n      pop\n        /* \"#utility.yul\":7296:7305   */\n      add\n      swap1\n        /* \"#utility.yul\":7183:7311   */\n      jump\t// out\n        /* \"#utility.yul\":8770:8897   */\n    tag_210:\n        /* \"#utility.yul\":8831:8841   */\n      0x4e487b71\n        /* \"#utility.yul\":8826:8829   */\n      0xe0\n        /* \"#utility.yul\":8822:8842   */\n      shl\n        /* \"#utility.yul\":8819:8820   */\n      0x00\n        /* \"#utility.yul\":8812:8843   */\n      mstore\n        /* \"#utility.yul\":8862:8866   */\n      0x32\n        /* \"#utility.yul\":8859:8860   */\n      0x04\n        /* \"#utility.yul\":8852:8867   */\n      mstore\n        /* \"#utility.yul\":8886:8890   */\n      0x24\n        /* \"#utility.yul\":8883:8884   */\n      0x00\n        /* \"#utility.yul\":8876:8891   */\n      revert\n        /* \"#utility.yul\":8902:9423   */\n    tag_212:\n        /* \"#utility.yul\":8979:8983   */\n      0x00\n        /* \"#utility.yul\":8985:8991   */\n      dup1\n        /* \"#utility.yul\":9045:9056   */\n      dup4\n        /* \"#utility.yul\":9032:9057   */\n      calldataload\n        /* \"#utility.yul\":9139:9141   */\n      0x1e\n        /* \"#utility.yul\":9135:9142   */\n      not\n        /* \"#utility.yul\":9124:9132   */\n      dup5\n        /* \"#utility.yul\":9108:9122   */\n      calldatasize\n        /* \"#utility.yul\":9104:9133   */\n      sub\n        /* \"#utility.yul\":9100:9143   */\n      add\n        /* \"#utility.yul\":9080:9098   */\n      dup2\n        /* \"#utility.yul\":9076:9144   */\n      slt\n        /* \"#utility.yul\":9066:9162   */\n      tag_477\n      jumpi\n        /* \"#utility.yul\":9158:9159   */\n      0x00\n        /* \"#utility.yul\":9155:9156   */\n      dup1\n        /* \"#utility.yul\":9148:9160   */\n      revert\n        /* \"#utility.yul\":9066:9162   */\n    tag_477:\n        /* \"#utility.yul\":9185:9218   */\n      dup4\n      add\n        /* \"#utility.yul\":9237:9257   */\n      dup1\n      calldataload\n      swap2\n      pop\n        /* \"#utility.yul\":9280:9298   */\n      0xffffffffffffffff\n        /* \"#utility.yul\":9269:9299   */\n      dup3\n      gt\n        /* \"#utility.yul\":9266:9316   */\n      iszero\n      tag_478\n      jumpi\n        /* \"#utility.yul\":9312:9313   */\n      0x00\n        /* \"#utility.yul\":9309:9310   */\n      dup1\n        /* \"#utility.yul\":9302:9314   */\n      revert\n        /* \"#utility.yul\":9266:9316   */\n    tag_478:\n        /* \"#utility.yul\":9345:9349   */\n      0x20\n        /* \"#utility.yul\":9333:9350   */\n      add\n      swap2\n      pop\n        /* \"#utility.yul\":9376:9390   */\n      calldatasize\n        /* \"#utility.yul\":9372:9399   */\n      dup2\n      swap1\n      sub\n        /* \"#utility.yul\":9362:9400   */\n      dup3\n      sgt\n        /* \"#utility.yul\":9359:9417   */\n      iszero\n      tag_479\n      jumpi\n        /* \"#utility.yul\":9413:9414   */\n      0x00\n        /* \"#utility.yul\":9410:9411   */\n      dup1\n        /* \"#utility.yul\":9403:9415   */\n      revert\n        /* \"#utility.yul\":9359:9417   */\n    tag_479:\n        /* \"#utility.yul\":8902:9423   */\n      swap3\n      pop\n      swap3\n      swap1\n      pop\n      jump\t// out\n        /* \"#utility.yul\":9428:9563   */\n    tag_217:\n        /* \"#utility.yul\":9467:9470   */\n      0x00\n      not(0x00)\n        /* \"#utility.yul\":9488:9505   */\n      dup3\n      eq\n        /* \"#utility.yul\":9485:9528   */\n      iszero\n      tag_482\n      jumpi\n        /* \"#utility.yul\":9508:9526   */\n      tag_482\n      tag_403\n      jump\t// in\n    tag_482:\n      pop\n        /* \"#utility.yul\":9555:9556   */\n      0x01\n        /* \"#utility.yul\":9544:9557   */\n      add\n      swap1\n        /* \"#utility.yul\":9428:9563   */\n      jump\t// out\n        /* \"#utility.yul\":14563:14688   */\n    tag_289:\n        /* \"#utility.yul\":14603:14607   */\n      0x00\n        /* \"#utility.yul\":14631:14632   */\n      dup3\n        /* \"#utility.yul\":14628:14629   */\n      dup3\n        /* \"#utility.yul\":14625:14633   */\n      lt\n        /* \"#utility.yul\":14622:14656   */\n      iszero\n      tag_497\n      jumpi\n        /* \"#utility.yul\":14636:14654   */\n      tag_497\n      tag_403\n      jump\t// in\n    tag_497:\n      pop\n        /* \"#utility.yul\":14673:14682   */\n      sub\n      swap1\n        /* \"#utility.yul\":14563:14688   */\n      jump\t// out\n        /* \"#utility.yul\":15053:15436   */\n    tag_315:\n        /* \"#utility.yul\":15250:15252   */\n      0x40\n        /* \"#utility.yul\":15239:15248   */\n      dup2\n        /* \"#utility.yul\":15232:15253   */\n      mstore\n        /* \"#utility.yul\":15213:15217   */\n      0x00\n        /* \"#utility.yul\":15276:15321   */\n      tag_500\n        /* \"#utility.yul\":15317:15319   */\n      0x40\n        /* \"#utility.yul\":15306:15315   */\n      dup4\n        /* \"#utility.yul\":15302:15320   */\n      add\n        /* \"#utility.yul\":15294:15300   */\n      dup6\n        /* \"#utility.yul\":15276:15321   */\n      tag_401\n      jump\t// in\n    tag_500:\n        /* \"#utility.yul\":15369:15378   */\n      dup3\n        /* \"#utility.yul\":15361:15367   */\n      dup2\n        /* \"#utility.yul\":15357:15379   */\n      sub\n        /* \"#utility.yul\":15352:15354   */\n      0x20\n        /* \"#utility.yul\":15341:15350   */\n      dup5\n        /* \"#utility.yul\":15337:15355   */\n      add\n        /* \"#utility.yul\":15330:15380   */\n      mstore\n        /* \"#utility.yul\":15397:15430   */\n      tag_501\n        /* \"#utility.yul\":15423:15429   */\n      dup2\n        /* \"#utility.yul\":15415:15421   */\n      dup6\n        /* \"#utility.yul\":15397:15430   */\n      tag_401\n      jump\t// in\n    tag_501:\n        /* \"#utility.yul\":15389:15430   */\n      swap6\n        /* \"#utility.yul\":15053:15436   */\n      swap5\n      pop\n      pop\n      pop\n      pop\n      pop\n      jump\t// out\n        /* \"#utility.yul\":15848:16122   */\n    tag_338:\n        /* \"#utility.yul\":15977:15980   */\n      0x00\n        /* \"#utility.yul\":16015:16021   */\n      dup3\n        /* \"#utility.yul\":16009:16022   */\n      mload\n        /* \"#utility.yul\":16031:16084   */\n      tag_504\n        /* \"#utility.yul\":16077:16083   */\n      dup2\n        /* \"#utility.yul\":16072:16075   */\n      dup5\n        /* \"#utility.yul\":16065:16069   */\n      0x20\n        /* \"#utility.yul\":16057:16063   */\n      dup8\n        /* \"#utility.yul\":16053:16070   */\n      add\n        /* \"#utility.yul\":16031:16084   */\n      tag_400\n      jump\t// in\n    tag_504:\n        /* \"#utility.yul\":16100:16116   */\n      swap2\n      swap1\n      swap2\n      add\n      swap3\n        /* \"#utility.yul\":15848:16122   */\n      swap2\n      pop\n      pop\n      jump\t// out\n        /* \"#utility.yul\":16530:16657   */\n    tag_355:\n        /* \"#utility.yul\":16591:16601   */\n      0x4e487b71\n        /* \"#utility.yul\":16586:16589   */\n      0xe0\n        /* \"#utility.yul\":16582:16602   */\n      shl\n        /* \"#utility.yul\":16579:16580   */\n      0x00\n        /* \"#utility.yul\":16572:16603   */\n      mstore\n        /* \"#utility.yul\":16622:16626   */\n      0x21\n        /* \"#utility.yul\":16619:16620   */\n      0x04\n        /* \"#utility.yul\":16612:16627   */\n      mstore\n        /* \"#utility.yul\":16646:16650   */\n      0x24\n        /* \"#utility.yul\":16643:16644   */\n      0x00\n        /* \"#utility.yul\":16636:16651   */\n      revert\n    stop\n    data_9fdcd12e4b726339b32a442b0a448365d5d85c96b2d2cff917b4f66c63110398 416464726573733a206c6f772d6c6576656c2064656c65676174652063616c6c206661696c6564\n\n    auxdata: 0xa26469706673582212204953d8b0bd7180db310463b779d4ec61c8aef183e4db35075dad142e864ba57164736f6c634300080b0033\n}\n",
				"bytecode": {
					"linkReferences": {},
					"object": "6101006040527f6e71edae12b1b97f4d1f60370fef10105fa2faae0126114a169c64845d6126c960e0523480156200003657600080fd5b5060405162001fb338038062001fb38339810160408190526200005991620003af565b818181818160059080519060200190620000759291906200023c565b5080516200008b9060069060208401906200023c565b50504660a052503060c052620000a0620000b9565b60805250620000b190503362000150565b505062000456565b60007f8b73c3c69bb8fe3d512ecc4cf759cc79239f7b179b0ffacaa9a75d522b39400f620000e6620001a2565b80516020918201206040805192830193909352918101919091527fc89efdaa54c0f20c7adf612882df0950f5a951637e0307cdcb4c672f298b8bc660608201524660808201523060a082015260c00160405160208183030381529060405280519060200120905090565b600180546001600160a01b038381166001600160a01b0319831681179093556040519116919082907f8292fce18fa69edf4db7b94ea2e58241df0ae57f97e0a6c9b29067028bf92d7690600090a35050565b606060058054620001b39062000419565b80601f0160208091040260200160405190810160405280929190818152602001828054620001e19062000419565b8015620002325780601f10620002065761010080835404028352916020019162000232565b820191906000526020600020905b8154815290600101906020018083116200021457829003601f168201915b5050505050905090565b8280546200024a9062000419565b90600052602060002090601f0160209004810192826200026e5760008555620002b9565b82601f106200028957805160ff1916838001178555620002b9565b82800160010185558215620002b9579182015b82811115620002b95782518255916020019190600101906200029c565b50620002c7929150620002cb565b5090565b5b80821115620002c75760008155600101620002cc565b634e487b7160e01b600052604160045260246000fd5b600082601f8301126200030a57600080fd5b81516001600160401b0380821115620003275762000327620002e2565b604051601f8301601f19908116603f01168101908282118183101715620003525762000352620002e2565b816040528381526020925086838588010111156200036f57600080fd5b600091505b8382101562000393578582018301518183018401529082019062000374565b83821115620003a55760008385830101525b9695505050505050565b60008060408385031215620003c357600080fd5b82516001600160401b0380821115620003db57600080fd5b620003e986838701620002f8565b935060208501519150808211156200040057600080fd5b506200040f85828601620002f8565b9150509250929050565b600181811c908216806200042e57607f821691505b602082108114156200045057634e487b7160e01b600052602260045260246000fd5b50919050565b60805160a05160c05160e051611b236200049060003960006108730152600061045c01526000610486015260006104b00152611b236000f3fe608060405234801561001057600080fd5b50600436106101375760003560e01c806370a08231116100b8578063a457c2d71161007c578063a457c2d71461028f578063a9059cbb146102a2578063ac9650d8146102b5578063d505accf146102d5578063dd62ed3e146102e8578063e8a3d4851461032157600080fd5b806370a08231146102075780637ecebe00146102305780638da5cb5b14610259578063938e3d7b1461027457806395d89b411461028757600080fd5b8063313ce567116100ff578063313ce567146101b75780633644e515146101c657806339509351146101ce57806342966c68146101e1578063449a52f8146101f457600080fd5b806306fdde031461013c578063095ea7b31461015a57806313af40351461017d57806318160ddd1461019257806323b872dd146101a4575b600080fd5b610144610329565b6040516101519190611660565b60405180910390f35b61016d61016836600461168f565b6103bb565b6040519015158152602001610151565b61019061018b3660046116b9565b6103d3565b005b6004545b604051908152602001610151565b61016d6101b23660046116d4565b610429565b60405160128152602001610151565b61019661044f565b61016d6101dc36600461168f565b6104df565b6101906101ef366004611710565b61051e565b61019061020236600461168f565b61057c565b6101966102153660046116b9565b6001600160a01b031660009081526002602052604090205490565b61019661023e3660046116b9565b6001600160a01b031660009081526007602052604090205490565b6001546040516001600160a01b039091168152602001610151565b61019061028236600461173f565b610622565b610144610670565b61016d61029d36600461168f565b61067f565b61016d6102b036600461168f565b61071c565b6102c86102c33660046117f0565b61072a565b6040516101519190611865565b6101906102e33660046118c7565b61081f565b6101966102f636600461193a565b6001600160a01b03918216600090815260036020908152604080832093909416825291909152205490565b6101446109a5565b6060600580546103389061196d565b80601f01602080910402602001604051908101604052809291908181526020018280546103649061196d565b80156103b15780601f10610386576101008083540402835291602001916103b1565b820191906000526020600020905b81548152906001019060200180831161039457829003601f168201915b5050505050905090565b6000336103c9818585610a33565b5060019392505050565b6103db610b58565b61041d5760405162461bcd60e51b815260206004820152600e60248201526d139bdd08185d5d1a1bdc9a5e995960921b60448201526064015b60405180910390fd5b61042681610b85565b50565b600033610437858285610bd7565b610442858585610c69565b60019150505b9392505050565b6000306001600160a01b037f0000000000000000000000000000000000000000000000000000000000000000161480156104a857507f000000000000000000000000000000000000000000000000000000000000000046145b156104d257507f000000000000000000000000000000000000000000000000000000000000000090565b6104da610e37565b905090565b3360008181526003602090815260408083206001600160a01b03871684529091528120549091906103c990829086906105199087906119b8565b610a33565b336000908152600260205260409020548111156105725760405162461bcd60e51b81526020600482015260126024820152716e6f7420656e6f7567682062616c616e636560701b6044820152606401610414565b6104263382610ecc565b610584610b58565b6105d05760405162461bcd60e51b815260206004820152601760248201527f4e6f7420617574686f72697a656420746f206d696e742e0000000000000000006044820152606401610414565b806106145760405162461bcd60e51b815260206004820152601460248201527326b4b73a34b733903d32b937903a37b5b2b7399760611b6044820152606401610414565b61061e8282611012565b5050565b61062a610b58565b6106675760405162461bcd60e51b815260206004820152600e60248201526d139bdd08185d5d1a1bdc9a5e995960921b6044820152606401610414565b610426816110f1565b6060600680546103389061196d565b3360008181526003602090815260408083206001600160a01b0387168452909152812054909190838110156107045760405162461bcd60e51b815260206004820152602560248201527f45524332303a2064656372656173656420616c6c6f77616e63652062656c6f77604482015264207a65726f60d81b6064820152608401610414565b6107118286868403610a33565b506001949350505050565b6000336103c9818585610c69565b60608167ffffffffffffffff81111561074557610745611729565b60405190808252806020026020018201604052801561077857816020015b60608152602001906001900390816107635790505b50905060005b82811015610818576107e83085858481811061079c5761079c6119d0565b90506020028101906107ae91906119e6565b8080601f0160208091040260200160405190810160405280939291908181526020018383808284376000920191909152506111d292505050565b8282815181106107fa576107fa6119d0565b6020026020010181905250808061081090611a34565b91505061077e565b5092915050565b8342111561086f5760405162461bcd60e51b815260206004820152601d60248201527f45524332305065726d69743a206578706972656420646561646c696e650000006044820152606401610414565b60007f000000000000000000000000000000000000000000000000000000000000000088888861089e8c6111f7565b6040805160208101969096526001600160a01b0394851690860152929091166060840152608083015260a082015260c0810186905260e001604051602081830303815290604052805190602001209050600061091b6108fb61044f565b8360405161190160f01b8152600281019290925260228201526042902090565b9050600061092b8287878761121f565b9050896001600160a01b0316816001600160a01b03161461098e5760405162461bcd60e51b815260206004820152601e60248201527f45524332305065726d69743a20696e76616c6964207369676e617475726500006044820152606401610414565b6109998a8a8a610a33565b50505050505050505050565b600080546109b29061196d565b80601f01602080910402602001604051908101604052809291908181526020018280546109de9061196d565b8015610a2b5780601f10610a0057610100808354040283529160200191610a2b565b820191906000526020600020905b815481529060010190602001808311610a0e57829003601f168201915b505050505081565b6001600160a01b038316610a955760405162461bcd60e51b8152602060048201526024808201527f45524332303a20617070726f76652066726f6d20746865207a65726f206164646044820152637265737360e01b6064820152608401610414565b6001600160a01b038216610af65760405162461bcd60e51b815260206004820152602260248201527f45524332303a20617070726f766520746f20746865207a65726f206164647265604482015261737360f01b6064820152608401610414565b6001600160a01b0383811660008181526003602090815260408083209487168084529482529182902085905590518481527f8c5be1e5ebec7d5bd14f71427d1e84f3dd0314c0f7b2291e5b200ac8c7c3b92591015b60405180910390a3505050565b6000610b6c6001546001600160a01b031690565b6001600160a01b0316336001600160a01b031614905090565b600180546001600160a01b038381166001600160a01b0319831681179093556040519116919082907f8292fce18fa69edf4db7b94ea2e58241df0ae57f97e0a6c9b29067028bf92d7690600090a35050565b6001600160a01b038381166000908152600360209081526040808320938616835292905220546000198114610c635781811015610c565760405162461bcd60e51b815260206004820152601d60248201527f45524332303a20696e73756666696369656e7420616c6c6f77616e63650000006044820152606401610414565b610c638484848403610a33565b50505050565b6001600160a01b038316610ccd5760405162461bcd60e51b815260206004820152602560248201527f45524332303a207472616e736665722066726f6d20746865207a65726f206164604482015264647265737360d81b6064820152608401610414565b6001600160a01b038216610d2f5760405162461bcd60e51b815260206004820152602360248201527f45524332303a207472616e7366657220746f20746865207a65726f206164647260448201526265737360e81b6064820152608401610414565b6001600160a01b03831660009081526002602052604090205481811015610da75760405162461bcd60e51b815260206004820152602660248201527f45524332303a207472616e7366657220616d6f756e7420657863656564732062604482015265616c616e636560d01b6064820152608401610414565b6001600160a01b03808516600090815260026020526040808220858503905591851681529081208054849290610dde9084906119b8565b92505081905550826001600160a01b0316846001600160a01b03167fddf252ad1be2c89b69c2b068fc378daa952ba7f163c4a11628f55a4df523b3ef84604051610e2a91815260200190565b60405180910390a3610c63565b60007f8b73c3c69bb8fe3d512ecc4cf759cc79239f7b179b0ffacaa9a75d522b39400f610e62610329565b80516020918201206040805192830193909352918101919091527fc89efdaa54c0f20c7adf612882df0950f5a951637e0307cdcb4c672f298b8bc660608201524660808201523060a082015260c00160405160208183030381529060405280519060200120905090565b6001600160a01b038216610f2c5760405162461bcd60e51b815260206004820152602160248201527f45524332303a206275726e2066726f6d20746865207a65726f206164647265736044820152607360f81b6064820152608401610414565b6001600160a01b03821660009081526002602052604090205481811015610fa05760405162461bcd60e51b815260206004820152602260248201527f45524332303a206275726e20616d6f756e7420657863656564732062616c616e604482015261636560f01b6064820152608401610414565b6001600160a01b0383166000908152600260205260408120838303905560048054849290610fcf908490611a4f565b90915550506040518281526000906001600160a01b038516907fddf252ad1be2c89b69c2b068fc378daa952ba7f163c4a11628f55a4df523b3ef90602001610b4b565b6001600160a01b0382166110685760405162461bcd60e51b815260206004820152601f60248201527f45524332303a206d696e7420746f20746865207a65726f2061646472657373006044820152606401610414565b806004600082825461107a91906119b8565b90915550506001600160a01b038216600090815260026020526040812080548392906110a79084906119b8565b90915550506040518181526001600160a01b038316906000907fddf252ad1be2c89b69c2b068fc378daa952ba7f163c4a11628f55a4df523b3ef9060200160405180910390a35050565b60008080546110ff9061196d565b80601f016020809104026020016040519081016040528092919081815260200182805461112b9061196d565b80156111785780601f1061114d57610100808354040283529160200191611178565b820191906000526020600020905b81548152906001019060200180831161115b57829003601f168201915b505085519394506111949360009350602087019250905061156f565b507fc9c7c3fe08b88b4df9d4d47ef47d2c43d55c025a0ba88ca442580ed9e7348a1681836040516111c6929190611a66565b60405180910390a15050565b60606104488383604051806060016040528060278152602001611ac760279139611247565b6001600160a01b03811660009081526007602052604090208054600181018255905b50919050565b600080600061123087878787611324565b9150915061123d816113e8565b5095945050505050565b60606001600160a01b0384163b6112af5760405162461bcd60e51b815260206004820152602660248201527f416464726573733a2064656c65676174652063616c6c20746f206e6f6e2d636f6044820152651b9d1c9858dd60d21b6064820152608401610414565b600080856001600160a01b0316856040516112ca9190611a94565b600060405180830381855af49150503d8060008114611305576040519150601f19603f3d011682016040523d82523d6000602084013e61130a565b606091505b509150915061131a828286611536565b9695505050505050565b6000807f7fffffffffffffffffffffffffffffff5d576e7357a4501ddfe92f46681b20a083111561135b57506000905060036113df565b6040805160008082526020820180845289905260ff881692820192909252606081018690526080810185905260019060a0016020604051602081039080840390855afa1580156113af573d6000803e3d6000fd5b5050604051601f1901519150506001600160a01b0381166113d8576000600192509250506113df565b9150600090505b94509492505050565b60008160048111156113fc576113fc611ab0565b14156114055750565b600181600481111561141957611419611ab0565b14156114675760405162461bcd60e51b815260206004820152601860248201527f45434453413a20696e76616c6964207369676e617475726500000000000000006044820152606401610414565b600281600481111561147b5761147b611ab0565b14156114c95760405162461bcd60e51b815260206004820152601f60248201527f45434453413a20696e76616c6964207369676e6174757265206c656e677468006044820152606401610414565b60038160048111156114dd576114dd611ab0565b14156104265760405162461bcd60e51b815260206004820152602260248201527f45434453413a20696e76616c6964207369676e6174757265202773272076616c604482015261756560f01b6064820152608401610414565b60608315611545575081610448565b8251156115555782518084602001fd5b8160405162461bcd60e51b81526004016104149190611660565b82805461157b9061196d565b90600052602060002090601f01602090048101928261159d57600085556115e3565b82601f106115b657805160ff19168380011785556115e3565b828001600101855582156115e3579182015b828111156115e35782518255916020019190600101906115c8565b506115ef9291506115f3565b5090565b5b808211156115ef57600081556001016115f4565b60005b8381101561162357818101518382015260200161160b565b83811115610c635750506000910152565b6000815180845261164c816020860160208601611608565b601f01601f19169290920160200192915050565b6020815260006104486020830184611634565b80356001600160a01b038116811461168a57600080fd5b919050565b600080604083850312156116a257600080fd5b6116ab83611673565b946020939093013593505050565b6000602082840312156116cb57600080fd5b61044882611673565b6000806000606084860312156116e957600080fd5b6116f284611673565b925061170060208501611673565b9150604084013590509250925092565b60006020828403121561172257600080fd5b5035919050565b634e487b7160e01b600052604160045260246000fd5b60006020828403121561175157600080fd5b813567ffffffffffffffff8082111561176957600080fd5b818401915084601f83011261177d57600080fd5b81358181111561178f5761178f611729565b604051601f8201601f19908116603f011681019083821181831017156117b7576117b7611729565b816040528281528760208487010111156117d057600080fd5b826020860160208301376000928101602001929092525095945050505050565b6000806020838503121561180357600080fd5b823567ffffffffffffffff8082111561181b57600080fd5b818501915085601f83011261182f57600080fd5b81358181111561183e57600080fd5b8660208260051b850101111561185357600080fd5b60209290920196919550909350505050565b6000602080830181845280855180835260408601915060408160051b870101925083870160005b828110156118ba57603f198886030184526118a8858351611634565b9450928501929085019060010161188c565b5092979650505050505050565b600080600080600080600060e0888a0312156118e257600080fd5b6118eb88611673565b96506118f960208901611673565b95506040880135945060608801359350608088013560ff8116811461191d57600080fd5b9699959850939692959460a0840135945060c09093013592915050565b6000806040838503121561194d57600080fd5b61195683611673565b915061196460208401611673565b90509250929050565b600181811c9082168061198157607f821691505b6020821081141561121957634e487b7160e01b600052602260045260246000fd5b634e487b7160e01b600052601160045260246000fd5b600082198211156119cb576119cb6119a2565b500190565b634e487b7160e01b600052603260045260246000fd5b6000808335601e198436030181126119fd57600080fd5b83018035915067ffffffffffffffff821115611a1857600080fd5b602001915036819003821315611a2d57600080fd5b9250929050565b6000600019821415611a4857611a486119a2565b5060010190565b600082821015611a6157611a616119a2565b500390565b604081526000611a796040830185611634565b8281036020840152611a8b8185611634565b95945050505050565b60008251611aa6818460208701611608565b9190910192915050565b634e487b7160e01b600052602160045260246000fdfe416464726573733a206c6f772d6c6576656c2064656c65676174652063616c6c206661696c6564a26469706673582212204953d8b0bd7180db310463b779d4ec61c8aef183e4db35075dad142e864ba57164736f6c634300080b0033",
					"opcodes": "PUSH2 0x100 PUSH1 0x40 MSTORE PUSH32 0x6E71EDAE12B1B97F4D1F60370FEF10105FA2FAAE0126114A169C64845D6126C9 PUSH1 0xE0 MSTORE CALLVALUE DUP1 ISZERO PUSH3 0x36 JUMPI PUSH1 0x0 DUP1 REVERT JUMPDEST POP PUSH1 0x40 MLOAD PUSH3 0x1FB3 CODESIZE SUB DUP1 PUSH3 0x1FB3 DUP4 CODECOPY DUP2 ADD PUSH1 0x40 DUP2 SWAP1 MSTORE PUSH3 0x59 SWAP2 PUSH3 0x3AF JUMP JUMPDEST DUP2 DUP2 DUP2 DUP2 DUP2 PUSH1 0x5 SWAP1 DUP1 MLOAD SWAP1 PUSH1 0x20 ADD SWAP1 PUSH3 0x75 SWAP3 SWAP2 SWAP1 PUSH3 0x23C JUMP JUMPDEST POP DUP1 MLOAD PUSH3 0x8B SWAP1 PUSH1 0x6 SWAP1 PUSH1 0x20 DUP5 ADD SWAP1 PUSH3 0x23C JUMP JUMPDEST POP POP CHAINID PUSH1 0xA0 MSTORE POP ADDRESS PUSH1 0xC0 MSTORE PUSH3 0xA0 PUSH3 0xB9 JUMP JUMPDEST PUSH1 0x80 MSTORE POP PUSH3 0xB1 SWAP1 POP CALLER PUSH3 0x150 JUMP JUMPDEST POP POP PUSH3 0x456 JUMP JUMPDEST PUSH1 0x0 PUSH32 0x8B73C3C69BB8FE3D512ECC4CF759CC79239F7B179B0FFACAA9A75D522B39400F PUSH3 0xE6 PUSH3 0x1A2 JUMP JUMPDEST DUP1 MLOAD PUSH1 0x20 SWAP2 DUP3 ADD KECCAK256 PUSH1 0x40 DUP1 MLOAD SWAP3 DUP4 ADD SWAP4 SWAP1 SWAP4 MSTORE SWAP2 DUP2 ADD SWAP2 SWAP1 SWAP2 MSTORE PUSH32 0xC89EFDAA54C0F20C7ADF612882DF0950F5A951637E0307CDCB4C672F298B8BC6 PUSH1 0x60 DUP3 ADD MSTORE CHAINID PUSH1 0x80 DUP3 ADD MSTORE ADDRESS PUSH1 0xA0 DUP3 ADD MSTORE PUSH1 0xC0 ADD PUSH1 0x40 MLOAD PUSH1 0x20 DUP2 DUP4 SUB SUB DUP2 MSTORE SWAP1 PUSH1 0x40 MSTORE DUP1 MLOAD SWAP1 PUSH1 0x20 ADD KECCAK256 SWAP1 POP SWAP1 JUMP JUMPDEST PUSH1 0x1 DUP1 SLOAD PUSH1 0x1 PUSH1 0x1 PUSH1 0xA0 SHL SUB DUP4 DUP2 AND PUSH1 0x1 PUSH1 0x1 PUSH1 0xA0 SHL SUB NOT DUP4 AND DUP2 OR SWAP1 SWAP4 SSTORE PUSH1 0x40 MLOAD SWAP2 AND SWAP2 SWAP1 DUP3 SWAP1 PUSH32 0x8292FCE18FA69EDF4DB7B94EA2E58241DF0AE57F97E0A6C9B29067028BF92D76 SWAP1 PUSH1 0x0 SWAP1 LOG3 POP POP JUMP JUMPDEST PUSH1 0x60 PUSH1 0x5 DUP1 SLOAD PUSH3 0x1B3 SWAP1 PUSH3 0x419 JUMP JUMPDEST DUP1 PUSH1 0x1F ADD PUSH1 0x20 DUP1 SWAP2 DIV MUL PUSH1 0x20 ADD PUSH1 0x40 MLOAD SWAP1 DUP2 ADD PUSH1 0x40 MSTORE DUP1 SWAP3 SWAP2 SWAP1 DUP2 DUP2 MSTORE PUSH1 0x20 ADD DUP3 DUP1 SLOAD PUSH3 0x1E1 SWAP1 PUSH3 0x419 JUMP JUMPDEST DUP1 ISZERO PUSH3 0x232 JUMPI DUP1 PUSH1 0x1F LT PUSH3 0x206 JUMPI PUSH2 0x100 DUP1 DUP4 SLOAD DIV MUL DUP4 MSTORE SWAP2 PUSH1 0x20 ADD SWAP2 PUSH3 0x232 JUMP JUMPDEST DUP3 ADD SWAP2 SWAP1 PUSH1 0x0 MSTORE PUSH1 0x20 PUSH1 0x0 KECCAK256 SWAP1 JUMPDEST DUP2 SLOAD DUP2 MSTORE SWAP1 PUSH1 0x1 ADD SWAP1 PUSH1 0x20 ADD DUP1 DUP4 GT PUSH3 0x214 JUMPI DUP3 SWAP1 SUB PUSH1 0x1F AND DUP3 ADD SWAP2 JUMPDEST POP POP POP POP POP SWAP1 POP SWAP1 JUMP JUMPDEST DUP3 DUP1 SLOAD PUSH3 0x24A SWAP1 PUSH3 0x419 JUMP JUMPDEST SWAP1 PUSH1 0x0 MSTORE PUSH1 0x20 PUSH1 0x0 KECCAK256 SWAP1 PUSH1 0x1F ADD PUSH1 0x20 SWAP1 DIV DUP2 ADD SWAP3 DUP3 PUSH3 0x26E JUMPI PUSH1 0x0 DUP6 SSTORE PUSH3 0x2B9 JUMP JUMPDEST DUP3 PUSH1 0x1F LT PUSH3 0x289 JUMPI DUP1 MLOAD PUSH1 0xFF NOT AND DUP4 DUP1 ADD OR DUP6 SSTORE PUSH3 0x2B9 JUMP JUMPDEST DUP3 DUP1 ADD PUSH1 0x1 ADD DUP6 SSTORE DUP3 ISZERO PUSH3 0x2B9 JUMPI SWAP2 DUP3 ADD JUMPDEST DUP3 DUP2 GT ISZERO PUSH3 0x2B9 JUMPI DUP3 MLOAD DUP3 SSTORE SWAP2 PUSH1 0x20 ADD SWAP2 SWAP1 PUSH1 0x1 ADD SWAP1 PUSH3 0x29C JUMP JUMPDEST POP PUSH3 0x2C7 SWAP3 SWAP2 POP PUSH3 0x2CB JUMP JUMPDEST POP SWAP1 JUMP JUMPDEST JUMPDEST DUP1 DUP3 GT ISZERO PUSH3 0x2C7 JUMPI PUSH1 0x0 DUP2 SSTORE PUSH1 0x1 ADD PUSH3 0x2CC JUMP JUMPDEST PUSH4 0x4E487B71 PUSH1 0xE0 SHL PUSH1 0x0 MSTORE PUSH1 0x41 PUSH1 0x4 MSTORE PUSH1 0x24 PUSH1 0x0 REVERT JUMPDEST PUSH1 0x0 DUP3 PUSH1 0x1F DUP4 ADD SLT PUSH3 0x30A JUMPI PUSH1 0x0 DUP1 REVERT JUMPDEST DUP2 MLOAD PUSH1 0x1 PUSH1 0x1 PUSH1 0x40 SHL SUB DUP1 DUP3 GT ISZERO PUSH3 0x327 JUMPI PUSH3 0x327 PUSH3 0x2E2 JUMP JUMPDEST PUSH1 0x40 MLOAD PUSH1 0x1F DUP4 ADD PUSH1 0x1F NOT SWAP1 DUP2 AND PUSH1 0x3F ADD AND DUP2 ADD SWAP1 DUP3 DUP3 GT DUP2 DUP4 LT OR ISZERO PUSH3 0x352 JUMPI PUSH3 0x352 PUSH3 0x2E2 JUMP JUMPDEST DUP2 PUSH1 0x40 MSTORE DUP4 DUP2 MSTORE PUSH1 0x20 SWAP3 POP DUP7 DUP4 DUP6 DUP9 ADD ADD GT ISZERO PUSH3 0x36F JUMPI PUSH1 0x0 DUP1 REVERT JUMPDEST PUSH1 0x0 SWAP2 POP JUMPDEST DUP4 DUP3 LT ISZERO PUSH3 0x393 JUMPI DUP6 DUP3 ADD DUP4 ADD MLOAD DUP2 DUP4 ADD DUP5 ADD MSTORE SWAP1 DUP3 ADD SWAP1 PUSH3 0x374 JUMP JUMPDEST DUP4 DUP3 GT ISZERO PUSH3 0x3A5 JUMPI PUSH1 0x0 DUP4 DUP6 DUP4 ADD ADD MSTORE JUMPDEST SWAP7 SWAP6 POP POP POP POP POP POP JUMP JUMPDEST PUSH1 0x0 DUP1 PUSH1 0x40 DUP4 DUP6 SUB SLT ISZERO PUSH3 0x3C3 JUMPI PUSH1 0x0 DUP1 REVERT JUMPDEST DUP3 MLOAD PUSH1 0x1 PUSH1 0x1 PUSH1 0x40 SHL SUB DUP1 DUP3 GT ISZERO PUSH3 0x3DB JUMPI PUSH1 0x0 DUP1 REVERT JUMPDEST PUSH3 0x3E9 DUP7 DUP4 DUP8 ADD PUSH3 0x2F8 JUMP JUMPDEST SWAP4 POP PUSH1 0x20 DUP6 ADD MLOAD SWAP2 POP DUP1 DUP3 GT ISZERO PUSH3 0x400 JUMPI PUSH1 0x0 DUP1 REVERT JUMPDEST POP PUSH3 0x40F DUP6 DUP3 DUP7 ADD PUSH3 0x2F8 JUMP JUMPDEST SWAP2 POP POP SWAP3 POP SWAP3 SWAP1 POP JUMP JUMPDEST PUSH1 0x1 DUP2 DUP2 SHR SWAP1 DUP3 AND DUP1 PUSH3 0x42E JUMPI PUSH1 0x7F DUP3 AND SWAP2 POP JUMPDEST PUSH1 0x20 DUP3 LT DUP2 EQ ISZERO PUSH3 0x450 JUMPI PUSH4 0x4E487B71 PUSH1 0xE0 SHL PUSH1 0x0 MSTORE PUSH1 0x22 PUSH1 0x4 MSTORE PUSH1 0x24 PUSH1 0x0 REVERT JUMPDEST POP SWAP2 SWAP1 POP JUMP JUMPDEST PUSH1 0x80 MLOAD PUSH1 0xA0 MLOAD PUSH1 0xC0 MLOAD PUSH1 0xE0 MLOAD PUSH2 0x1B23 PUSH3 0x490 PUSH1 0x0 CODECOPY PUSH1 0x0 PUSH2 0x873 ADD MSTORE PUSH1 0x0 PUSH2 0x45C ADD MSTORE PUSH1 0x0 PUSH2 0x486 ADD MSTORE PUSH1 0x0 PUSH2 0x4B0 ADD MSTORE PUSH2 0x1B23 PUSH1 0x0 RETURN INVALID PUSH1 0x80 PUSH1 0x40 MSTORE CALLVALUE DUP1 ISZERO PUSH2 0x10 JUMPI PUSH1 0x0 DUP1 REVERT JUMPDEST POP PUSH1 0x4 CALLDATASIZE LT PUSH2 0x137 JUMPI PUSH1 0x0 CALLDATALOAD PUSH1 0xE0 SHR DUP1 PUSH4 0x70A08231 GT PUSH2 0xB8 JUMPI DUP1 PUSH4 0xA457C2D7 GT PUSH2 0x7C JUMPI DUP1 PUSH4 0xA457C2D7 EQ PUSH2 0x28F JUMPI DUP1 PUSH4 0xA9059CBB EQ PUSH2 0x2A2 JUMPI DUP1 PUSH4 0xAC9650D8 EQ PUSH2 0x2B5 JUMPI DUP1 PUSH4 0xD505ACCF EQ PUSH2 0x2D5 JUMPI DUP1 PUSH4 0xDD62ED3E EQ PUSH2 0x2E8 JUMPI DUP1 PUSH4 0xE8A3D485 EQ PUSH2 0x321 JUMPI PUSH1 0x0 DUP1 REVERT JUMPDEST DUP1 PUSH4 0x70A08231 EQ PUSH2 0x207 JUMPI DUP1 PUSH4 0x7ECEBE00 EQ PUSH2 0x230 JUMPI DUP1 PUSH4 0x8DA5CB5B EQ PUSH2 0x259 JUMPI DUP1 PUSH4 0x938E3D7B EQ PUSH2 0x274 JUMPI DUP1 PUSH4 0x95D89B41 EQ PUSH2 0x287 JUMPI PUSH1 0x0 DUP1 REVERT JUMPDEST DUP1 PUSH4 0x313CE567 GT PUSH2 0xFF JUMPI DUP1 PUSH4 0x313CE567 EQ PUSH2 0x1B7 JUMPI DUP1 PUSH4 0x3644E515 EQ PUSH2 0x1C6 JUMPI DUP1 PUSH4 0x39509351 EQ PUSH2 0x1CE JUMPI DUP1 PUSH4 0x42966C68 EQ PUSH2 0x1E1 JUMPI DUP1 PUSH4 0x449A52F8 EQ PUSH2 0x1F4 JUMPI PUSH1 0x0 DUP1 REVERT JUMPDEST DUP1 PUSH4 0x6FDDE03 EQ PUSH2 0x13C JUMPI DUP1 PUSH4 0x95EA7B3 EQ PUSH2 0x15A JUMPI DUP1 PUSH4 0x13AF4035 EQ PUSH2 0x17D JUMPI DUP1 PUSH4 0x18160DDD EQ PUSH2 0x192 JUMPI DUP1 PUSH4 0x23B872DD EQ PUSH2 0x1A4 JUMPI JUMPDEST PUSH1 0x0 DUP1 REVERT JUMPDEST PUSH2 0x144 PUSH2 0x329 JUMP JUMPDEST PUSH1 0x40 MLOAD PUSH2 0x151 SWAP2 SWAP1 PUSH2 0x1660 JUMP JUMPDEST PUSH1 0x40 MLOAD DUP1 SWAP2 SUB SWAP1 RETURN JUMPDEST PUSH2 0x16D PUSH2 0x168 CALLDATASIZE PUSH1 0x4 PUSH2 0x168F JUMP JUMPDEST PUSH2 0x3BB JUMP JUMPDEST PUSH1 0x40 MLOAD SWAP1 ISZERO ISZERO DUP2 MSTORE PUSH1 0x20 ADD PUSH2 0x151 JUMP JUMPDEST PUSH2 0x190 PUSH2 0x18B CALLDATASIZE PUSH1 0x4 PUSH2 0x16B9 JUMP JUMPDEST PUSH2 0x3D3 JUMP JUMPDEST STOP JUMPDEST PUSH1 0x4 SLOAD JUMPDEST PUSH1 0x40 MLOAD SWAP1 DUP2 MSTORE PUSH1 0x20 ADD PUSH2 0x151 JUMP JUMPDEST PUSH2 0x16D PUSH2 0x1B2 CALLDATASIZE PUSH1 0x4 PUSH2 0x16D4 JUMP JUMPDEST PUSH2 0x429 JUMP JUMPDEST PUSH1 0x40 MLOAD PUSH1 0x12 DUP2 MSTORE PUSH1 0x20 ADD PUSH2 0x151 JUMP JUMPDEST PUSH2 0x196 PUSH2 0x44F JUMP JUMPDEST PUSH2 0x16D PUSH2 0x1DC CALLDATASIZE PUSH1 0x4 PUSH2 0x168F JUMP JUMPDEST PUSH2 0x4DF JUMP JUMPDEST PUSH2 0x190 PUSH2 0x1EF CALLDATASIZE PUSH1 0x4 PUSH2 0x1710 JUMP JUMPDEST PUSH2 0x51E JUMP JUMPDEST PUSH2 0x190 PUSH2 0x202 CALLDATASIZE PUSH1 0x4 PUSH2 0x168F JUMP JUMPDEST PUSH2 0x57C JUMP JUMPDEST PUSH2 0x196 PUSH2 0x215 CALLDATASIZE PUSH1 0x4 PUSH2 0x16B9 JUMP JUMPDEST PUSH1 0x1 PUSH1 0x1 PUSH1 0xA0 SHL SUB AND PUSH1 0x0 SWAP1 DUP2 MSTORE PUSH1 0x2 PUSH1 0x20 MSTORE PUSH1 0x40 SWAP1 KECCAK256 SLOAD SWAP1 JUMP JUMPDEST PUSH2 0x196 PUSH2 0x23E CALLDATASIZE PUSH1 0x4 PUSH2 0x16B9 JUMP JUMPDEST PUSH1 0x1 PUSH1 0x1 PUSH1 0xA0 SHL SUB AND PUSH1 0x0 SWAP1 DUP2 MSTORE PUSH1 0x7 PUSH1 0x20 MSTORE PUSH1 0x40 SWAP1 KECCAK256 SLOAD SWAP1 JUMP JUMPDEST PUSH1 0x1 SLOAD PUSH1 0x40 MLOAD PUSH1 0x1 PUSH1 0x1 PUSH1 0xA0 SHL SUB SWAP1 SWAP2 AND DUP2 MSTORE PUSH1 0x20 ADD PUSH2 0x151 JUMP JUMPDEST PUSH2 0x190 PUSH2 0x282 CALLDATASIZE PUSH1 0x4 PUSH2 0x173F JUMP JUMPDEST PUSH2 0x622 JUMP JUMPDEST PUSH2 0x144 PUSH2 0x670 JUMP JUMPDEST PUSH2 0x16D PUSH2 0x29D CALLDATASIZE PUSH1 0x4 PUSH2 0x168F JUMP JUMPDEST PUSH2 0x67F JUMP JUMPDEST PUSH2 0x16D PUSH2 0x2B0 CALLDATASIZE PUSH1 0x4 PUSH2 0x168F JUMP JUMPDEST PUSH2 0x71C JUMP JUMPDEST PUSH2 0x2C8 PUSH2 0x2C3 CALLDATASIZE PUSH1 0x4 PUSH2 0x17F0 JUMP JUMPDEST PUSH2 0x72A JUMP JUMPDEST PUSH1 0x40 MLOAD PUSH2 0x151 SWAP2 SWAP1 PUSH2 0x1865 JUMP JUMPDEST PUSH2 0x190 PUSH2 0x2E3 CALLDATASIZE PUSH1 0x4 PUSH2 0x18C7 JUMP JUMPDEST PUSH2 0x81F JUMP JUMPDEST PUSH2 0x196 PUSH2 0x2F6 CALLDATASIZE PUSH1 0x4 PUSH2 0x193A JUMP JUMPDEST PUSH1 0x1 PUSH1 0x1 PUSH1 0xA0 SHL SUB SWAP2 DUP3 AND PUSH1 0x0 SWAP1 DUP2 MSTORE PUSH1 0x3 PUSH1 0x20 SWAP1 DUP2 MSTORE PUSH1 0x40 DUP1 DUP4 KECCAK256 SWAP4 SWAP1 SWAP5 AND DUP3 MSTORE SWAP2 SWAP1 SWAP2 MSTORE KECCAK256 SLOAD SWAP1 JUMP JUMPDEST PUSH2 0x144 PUSH2 0x9A5 JUMP JUMPDEST PUSH1 0x60 PUSH1 0x5 DUP1 SLOAD PUSH2 0x338 SWAP1 PUSH2 0x196D JUMP JUMPDEST DUP1 PUSH1 0x1F ADD PUSH1 0x20 DUP1 SWAP2 DIV MUL PUSH1 0x20 ADD PUSH1 0x40 MLOAD SWAP1 DUP2 ADD PUSH1 0x40 MSTORE DUP1 SWAP3 SWAP2 SWAP1 DUP2 DUP2 MSTORE PUSH1 0x20 ADD DUP3 DUP1 SLOAD PUSH2 0x364 SWAP1 PUSH2 0x196D JUMP JUMPDEST DUP1 ISZERO PUSH2 0x3B1 JUMPI DUP1 PUSH1 0x1F LT PUSH2 0x386 JUMPI PUSH2 0x100 DUP1 DUP4 SLOAD DIV MUL DUP4 MSTORE SWAP2 PUSH1 0x20 ADD SWAP2 PUSH2 0x3B1 JUMP JUMPDEST DUP3 ADD SWAP2 SWAP1 PUSH1 0x0 MSTORE PUSH1 0x20 PUSH1 0x0 KECCAK256 SWAP1 JUMPDEST DUP2 SLOAD DUP2 MSTORE SWAP1 PUSH1 0x1 ADD SWAP1 PUSH1 0x20 ADD DUP1 DUP4 GT PUSH2 0x394 JUMPI DUP3 SWAP1 SUB PUSH1 0x1F AND DUP3 ADD SWAP2 JUMPDEST POP POP POP POP POP SWAP1 POP SWAP1 JUMP JUMPDEST PUSH1 0x0 CALLER PUSH2 0x3C9 DUP2 DUP6 DUP6 PUSH2 0xA33 JUMP JUMPDEST POP PUSH1 0x1 SWAP4 SWAP3 POP POP POP JUMP JUMPDEST PUSH2 0x3DB PUSH2 0xB58 JUMP JUMPDEST PUSH2 0x41D JUMPI PUSH1 0x40 MLOAD PUSH3 0x461BCD PUSH1 0xE5 SHL DUP2 MSTORE PUSH1 0x20 PUSH1 0x4 DUP3 ADD MSTORE PUSH1 0xE PUSH1 0x24 DUP3 ADD MSTORE PUSH14 0x139BDD08185D5D1A1BDC9A5E9959 PUSH1 0x92 SHL PUSH1 0x44 DUP3 ADD MSTORE PUSH1 0x64 ADD JUMPDEST PUSH1 0x40 MLOAD DUP1 SWAP2 SUB SWAP1 REVERT JUMPDEST PUSH2 0x426 DUP2 PUSH2 0xB85 JUMP JUMPDEST POP JUMP JUMPDEST PUSH1 0x0 CALLER PUSH2 0x437 DUP6 DUP3 DUP6 PUSH2 0xBD7 JUMP JUMPDEST PUSH2 0x442 DUP6 DUP6 DUP6 PUSH2 0xC69 JUMP JUMPDEST PUSH1 0x1 SWAP2 POP POP JUMPDEST SWAP4 SWAP3 POP POP POP JUMP JUMPDEST PUSH1 0x0 ADDRESS PUSH1 0x1 PUSH1 0x1 PUSH1 0xA0 SHL SUB PUSH32 0x0 AND EQ DUP1 ISZERO PUSH2 0x4A8 JUMPI POP PUSH32 0x0 CHAINID EQ JUMPDEST ISZERO PUSH2 0x4D2 JUMPI POP PUSH32 0x0 SWAP1 JUMP JUMPDEST PUSH2 0x4DA PUSH2 0xE37 JUMP JUMPDEST SWAP1 POP SWAP1 JUMP JUMPDEST CALLER PUSH1 0x0 DUP2 DUP2 MSTORE PUSH1 0x3 PUSH1 0x20 SWAP1 DUP2 MSTORE PUSH1 0x40 DUP1 DUP4 KECCAK256 PUSH1 0x1 PUSH1 0x1 PUSH1 0xA0 SHL SUB DUP8 AND DUP5 MSTORE SWAP1 SWAP2 MSTORE DUP2 KECCAK256 SLOAD SWAP1 SWAP2 SWAP1 PUSH2 0x3C9 SWAP1 DUP3 SWAP1 DUP7 SWAP1 PUSH2 0x519 SWAP1 DUP8 SWAP1 PUSH2 0x19B8 JUMP JUMPDEST PUSH2 0xA33 JUMP JUMPDEST CALLER PUSH1 0x0 SWAP1 DUP2 MSTORE PUSH1 0x2 PUSH1 0x20 MSTORE PUSH1 0x40 SWAP1 KECCAK256 SLOAD DUP2 GT ISZERO PUSH2 0x572 JUMPI PUSH1 0x40 MLOAD PUSH3 0x461BCD PUSH1 0xE5 SHL DUP2 MSTORE PUSH1 0x20 PUSH1 0x4 DUP3 ADD MSTORE PUSH1 0x12 PUSH1 0x24 DUP3 ADD MSTORE PUSH18 0x6E6F7420656E6F7567682062616C616E6365 PUSH1 0x70 SHL PUSH1 0x44 DUP3 ADD MSTORE PUSH1 0x64 ADD PUSH2 0x414 JUMP JUMPDEST PUSH2 0x426 CALLER DUP3 PUSH2 0xECC JUMP JUMPDEST PUSH2 0x584 PUSH2 0xB58 JUMP JUMPDEST PUSH2 0x5D0 JUMPI PUSH1 0x40 MLOAD PUSH3 0x461BCD PUSH1 0xE5 SHL DUP2 MSTORE PUSH1 0x20 PUSH1 0x4 DUP3 ADD MSTORE PUSH1 0x17 PUSH1 0x24 DUP3 ADD MSTORE PUSH32 0x4E6F7420617574686F72697A656420746F206D696E742E000000000000000000 PUSH1 0x44 DUP3 ADD MSTORE PUSH1 0x64 ADD PUSH2 0x414 JUMP JUMPDEST DUP1 PUSH2 0x614 JUMPI PUSH1 0x40 MLOAD PUSH3 0x461BCD PUSH1 0xE5 SHL DUP2 MSTORE PUSH1 0x20 PUSH1 0x4 DUP3 ADD MSTORE PUSH1 0x14 PUSH1 0x24 DUP3 ADD MSTORE PUSH20 0x26B4B73A34B733903D32B937903A37B5B2B73997 PUSH1 0x61 SHL PUSH1 0x44 DUP3 ADD MSTORE PUSH1 0x64 ADD PUSH2 0x414 JUMP JUMPDEST PUSH2 0x61E DUP3 DUP3 PUSH2 0x1012 JUMP JUMPDEST POP POP JUMP JUMPDEST PUSH2 0x62A PUSH2 0xB58 JUMP JUMPDEST PUSH2 0x667 JUMPI PUSH1 0x40 MLOAD PUSH3 0x461BCD PUSH1 0xE5 SHL DUP2 MSTORE PUSH1 0x20 PUSH1 0x4 DUP3 ADD MSTORE PUSH1 0xE PUSH1 0x24 DUP3 ADD MSTORE PUSH14 0x139BDD08185D5D1A1BDC9A5E9959 PUSH1 0x92 SHL PUSH1 0x44 DUP3 ADD MSTORE PUSH1 0x64 ADD PUSH2 0x414 JUMP JUMPDEST PUSH2 0x426 DUP2 PUSH2 0x10F1 JUMP JUMPDEST PUSH1 0x60 PUSH1 0x6 DUP1 SLOAD PUSH2 0x338 SWAP1 PUSH2 0x196D JUMP JUMPDEST CALLER PUSH1 0x0 DUP2 DUP2 MSTORE PUSH1 0x3 PUSH1 0x20 SWAP1 DUP2 MSTORE PUSH1 0x40 DUP1 DUP4 KECCAK256 PUSH1 0x1 PUSH1 0x1 PUSH1 0xA0 SHL SUB DUP8 AND DUP5 MSTORE SWAP1 SWAP2 MSTORE DUP2 KECCAK256 SLOAD SWAP1 SWAP2 SWAP1 DUP4 DUP2 LT ISZERO PUSH2 0x704 JUMPI PUSH1 0x40 MLOAD PUSH3 0x461BCD PUSH1 0xE5 SHL DUP2 MSTORE PUSH1 0x20 PUSH1 0x4 DUP3 ADD MSTORE PUSH1 0x25 PUSH1 0x24 DUP3 ADD MSTORE PUSH32 0x45524332303A2064656372656173656420616C6C6F77616E63652062656C6F77 PUSH1 0x44 DUP3 ADD MSTORE PUSH5 0x207A65726F PUSH1 0xD8 SHL PUSH1 0x64 DUP3 ADD MSTORE PUSH1 0x84 ADD PUSH2 0x414 JUMP JUMPDEST PUSH2 0x711 DUP3 DUP7 DUP7 DUP5 SUB PUSH2 0xA33 JUMP JUMPDEST POP PUSH1 0x1 SWAP5 SWAP4 POP POP POP POP JUMP JUMPDEST PUSH1 0x0 CALLER PUSH2 0x3C9 DUP2 DUP6 DUP6 PUSH2 0xC69 JUMP JUMPDEST PUSH1 0x60 DUP2 PUSH8 0xFFFFFFFFFFFFFFFF DUP2 GT ISZERO PUSH2 0x745 JUMPI PUSH2 0x745 PUSH2 0x1729 JUMP JUMPDEST PUSH1 0x40 MLOAD SWAP1 DUP1 DUP3 MSTORE DUP1 PUSH1 0x20 MUL PUSH1 0x20 ADD DUP3 ADD PUSH1 0x40 MSTORE DUP1 ISZERO PUSH2 0x778 JUMPI DUP2 PUSH1 0x20 ADD JUMPDEST PUSH1 0x60 DUP2 MSTORE PUSH1 0x20 ADD SWAP1 PUSH1 0x1 SWAP1 SUB SWAP1 DUP2 PUSH2 0x763 JUMPI SWAP1 POP JUMPDEST POP SWAP1 POP PUSH1 0x0 JUMPDEST DUP3 DUP2 LT ISZERO PUSH2 0x818 JUMPI PUSH2 0x7E8 ADDRESS DUP6 DUP6 DUP5 DUP2 DUP2 LT PUSH2 0x79C JUMPI PUSH2 0x79C PUSH2 0x19D0 JUMP JUMPDEST SWAP1 POP PUSH1 0x20 MUL DUP2 ADD SWAP1 PUSH2 0x7AE SWAP2 SWAP1 PUSH2 0x19E6 JUMP JUMPDEST DUP1 DUP1 PUSH1 0x1F ADD PUSH1 0x20 DUP1 SWAP2 DIV MUL PUSH1 0x20 ADD PUSH1 0x40 MLOAD SWAP1 DUP2 ADD PUSH1 0x40 MSTORE DUP1 SWAP4 SWAP3 SWAP2 SWAP1 DUP2 DUP2 MSTORE PUSH1 0x20 ADD DUP4 DUP4 DUP1 DUP3 DUP5 CALLDATACOPY PUSH1 0x0 SWAP3 ADD SWAP2 SWAP1 SWAP2 MSTORE POP PUSH2 0x11D2 SWAP3 POP POP POP JUMP JUMPDEST DUP3 DUP3 DUP2 MLOAD DUP2 LT PUSH2 0x7FA JUMPI PUSH2 0x7FA PUSH2 0x19D0 JUMP JUMPDEST PUSH1 0x20 MUL PUSH1 0x20 ADD ADD DUP2 SWAP1 MSTORE POP DUP1 DUP1 PUSH2 0x810 SWAP1 PUSH2 0x1A34 JUMP JUMPDEST SWAP2 POP POP PUSH2 0x77E JUMP JUMPDEST POP SWAP3 SWAP2 POP POP JUMP JUMPDEST DUP4 TIMESTAMP GT ISZERO PUSH2 0x86F JUMPI PUSH1 0x40 MLOAD PUSH3 0x461BCD PUSH1 0xE5 SHL DUP2 MSTORE PUSH1 0x20 PUSH1 0x4 DUP3 ADD MSTORE PUSH1 0x1D PUSH1 0x24 DUP3 ADD MSTORE PUSH32 0x45524332305065726D69743A206578706972656420646561646C696E65000000 PUSH1 0x44 DUP3 ADD MSTORE PUSH1 0x64 ADD PUSH2 0x414 JUMP JUMPDEST PUSH1 0x0 PUSH32 0x0 DUP9 DUP9 DUP9 PUSH2 0x89E DUP13 PUSH2 0x11F7 JUMP JUMPDEST PUSH1 0x40 DUP1 MLOAD PUSH1 0x20 DUP2 ADD SWAP7 SWAP1 SWAP7 MSTORE PUSH1 0x1 PUSH1 0x1 PUSH1 0xA0 SHL SUB SWAP5 DUP6 AND SWAP1 DUP7 ADD MSTORE SWAP3 SWAP1 SWAP2 AND PUSH1 0x60 DUP5 ADD MSTORE PUSH1 0x80 DUP4 ADD MSTORE PUSH1 0xA0 DUP3 ADD MSTORE PUSH1 0xC0 DUP2 ADD DUP7 SWAP1 MSTORE PUSH1 0xE0 ADD PUSH1 0x40 MLOAD PUSH1 0x20 DUP2 DUP4 SUB SUB DUP2 MSTORE SWAP1 PUSH1 0x40 MSTORE DUP1 MLOAD SWAP1 PUSH1 0x20 ADD KECCAK256 SWAP1 POP PUSH1 0x0 PUSH2 0x91B PUSH2 0x8FB PUSH2 0x44F JUMP JUMPDEST DUP4 PUSH1 0x40 MLOAD PUSH2 0x1901 PUSH1 0xF0 SHL DUP2 MSTORE PUSH1 0x2 DUP2 ADD SWAP3 SWAP1 SWAP3 MSTORE PUSH1 0x22 DUP3 ADD MSTORE PUSH1 0x42 SWAP1 KECCAK256 SWAP1 JUMP JUMPDEST SWAP1 POP PUSH1 0x0 PUSH2 0x92B DUP3 DUP8 DUP8 DUP8 PUSH2 0x121F JUMP JUMPDEST SWAP1 POP DUP10 PUSH1 0x1 PUSH1 0x1 PUSH1 0xA0 SHL SUB AND DUP2 PUSH1 0x1 PUSH1 0x1 PUSH1 0xA0 SHL SUB AND EQ PUSH2 0x98E JUMPI PUSH1 0x40 MLOAD PUSH3 0x461BCD PUSH1 0xE5 SHL DUP2 MSTORE PUSH1 0x20 PUSH1 0x4 DUP3 ADD MSTORE PUSH1 0x1E PUSH1 0x24 DUP3 ADD MSTORE PUSH32 0x45524332305065726D69743A20696E76616C6964207369676E61747572650000 PUSH1 0x44 DUP3 ADD MSTORE PUSH1 0x64 ADD PUSH2 0x414 JUMP JUMPDEST PUSH2 0x999 DUP11 DUP11 DUP11 PUSH2 0xA33 JUMP JUMPDEST POP POP POP POP POP POP POP POP POP POP JUMP JUMPDEST PUSH1 0x0 DUP1 SLOAD PUSH2 0x9B2 SWAP1 PUSH2 0x196D JUMP JUMPDEST DUP1 PUSH1 0x1F ADD PUSH1 0x20 DUP1 SWAP2 DIV MUL PUSH1 0x20 ADD PUSH1 0x40 MLOAD SWAP1 DUP2 ADD PUSH1 0x40 MSTORE DUP1 SWAP3 SWAP2 SWAP1 DUP2 DUP2 MSTORE PUSH1 0x20 ADD DUP3 DUP1 SLOAD PUSH2 0x9DE SWAP1 PUSH2 0x196D JUMP JUMPDEST DUP1 ISZERO PUSH2 0xA2B JUMPI DUP1 PUSH1 0x1F LT PUSH2 0xA00 JUMPI PUSH2 0x100 DUP1 DUP4 SLOAD DIV MUL DUP4 MSTORE SWAP2 PUSH1 0x20 ADD SWAP2 PUSH2 0xA2B JUMP JUMPDEST DUP3 ADD SWAP2 SWAP1 PUSH1 0x0 MSTORE PUSH1 0x20 PUSH1 0x0 KECCAK256 SWAP1 JUMPDEST DUP2 SLOAD DUP2 MSTORE SWAP1 PUSH1 0x1 ADD SWAP1 PUSH1 0x20 ADD DUP1 DUP4 GT PUSH2 0xA0E JUMPI DUP3 SWAP1 SUB PUSH1 0x1F AND DUP3 ADD SWAP2 JUMPDEST POP POP POP POP POP DUP2 JUMP JUMPDEST PUSH1 0x1 PUSH1 0x1 PUSH1 0xA0 SHL SUB DUP4 AND PUSH2 0xA95 JUMPI PUSH1 0x40 MLOAD PUSH3 0x461BCD PUSH1 0xE5 SHL DUP2 MSTORE PUSH1 0x20 PUSH1 0x4 DUP3 ADD MSTORE PUSH1 0x24 DUP1 DUP3 ADD MSTORE PUSH32 0x45524332303A20617070726F76652066726F6D20746865207A65726F20616464 PUSH1 0x44 DUP3 ADD MSTORE PUSH4 0x72657373 PUSH1 0xE0 SHL PUSH1 0x64 DUP3 ADD MSTORE PUSH1 0x84 ADD PUSH2 0x414 JUMP JUMPDEST PUSH1 0x1 PUSH1 0x1 PUSH1 0xA0 SHL SUB DUP3 AND PUSH2 0xAF6 JUMPI PUSH1 0x40 MLOAD PUSH3 0x461BCD PUSH1 0xE5 SHL DUP2 MSTORE PUSH1 0x20 PUSH1 0x4 DUP3 ADD MSTORE PUSH1 0x22 PUSH1 0x24 DUP3 ADD MSTORE PUSH32 0x45524332303A20617070726F766520746F20746865207A65726F206164647265 PUSH1 0x44 DUP3 ADD MSTORE PUSH2 0x7373 PUSH1 0xF0 SHL PUSH1 0x64 DUP3 ADD MSTORE PUSH1 0x84 ADD PUSH2 0x414 JUMP JUMPDEST PUSH1 0x1 PUSH1 0x1 PUSH1 0xA0 SHL SUB DUP4 DUP2 AND PUSH1 0x0 DUP2 DUP2 MSTORE PUSH1 0x3 PUSH1 0x20 SWAP1 DUP2 MSTORE PUSH1 0x40 DUP1 DUP4 KECCAK256 SWAP5 DUP8 AND DUP1 DUP5 MSTORE SWAP5 DUP3 MSTORE SWAP2 DUP3 SWAP1 KECCAK256 DUP6 SWAP1 SSTORE SWAP1 MLOAD DUP5 DUP2 MSTORE PUSH32 0x8C5BE1E5EBEC7D5BD14F71427D1E84F3DD0314C0F7B2291E5B200AC8C7C3B925 SWAP2 ADD JUMPDEST PUSH1 0x40 MLOAD DUP1 SWAP2 SUB SWAP1 LOG3 POP POP POP JUMP JUMPDEST PUSH1 0x0 PUSH2 0xB6C PUSH1 0x1 SLOAD PUSH1 0x1 PUSH1 0x1 PUSH1 0xA0 SHL SUB AND SWAP1 JUMP JUMPDEST PUSH1 0x1 PUSH1 0x1 PUSH1 0xA0 SHL SUB AND CALLER PUSH1 0x1 PUSH1 0x1 PUSH1 0xA0 SHL SUB AND EQ SWAP1 POP SWAP1 JUMP JUMPDEST PUSH1 0x1 DUP1 SLOAD PUSH1 0x1 PUSH1 0x1 PUSH1 0xA0 SHL SUB DUP4 DUP2 AND PUSH1 0x1 PUSH1 0x1 PUSH1 0xA0 SHL SUB NOT DUP4 AND DUP2 OR SWAP1 SWAP4 SSTORE PUSH1 0x40 MLOAD SWAP2 AND SWAP2 SWAP1 DUP3 SWAP1 PUSH32 0x8292FCE18FA69EDF4DB7B94EA2E58241DF0AE57F97E0A6C9B29067028BF92D76 SWAP1 PUSH1 0x0 SWAP1 LOG3 POP POP JUMP JUMPDEST PUSH1 0x1 PUSH1 0x1 PUSH1 0xA0 SHL SUB DUP4 DUP2 AND PUSH1 0x0 SWAP1 DUP2 MSTORE PUSH1 0x3 PUSH1 0x20 SWAP1 DUP2 MSTORE PUSH1 0x40 DUP1 DUP4 KECCAK256 SWAP4 DUP7 AND DUP4 MSTORE SWAP3 SWAP1 MSTORE KECCAK256 SLOAD PUSH1 0x0 NOT DUP2 EQ PUSH2 0xC63 JUMPI DUP2 DUP2 LT ISZERO PUSH2 0xC56 JUMPI PUSH1 0x40 MLOAD PUSH3 0x461BCD PUSH1 0xE5 SHL DUP2 MSTORE PUSH1 0x20 PUSH1 0x4 DUP3 ADD MSTORE PUSH1 0x1D PUSH1 0x24 DUP3 ADD MSTORE PUSH32 0x45524332303A20696E73756666696369656E7420616C6C6F77616E6365000000 PUSH1 0x44 DUP3 ADD MSTORE PUSH1 0x64 ADD PUSH2 0x414 JUMP JUMPDEST PUSH2 0xC63 DUP5 DUP5 DUP5 DUP5 SUB PUSH2 0xA33 JUMP JUMPDEST POP POP POP POP JUMP JUMPDEST PUSH1 0x1 PUSH1 0x1 PUSH1 0xA0 SHL SUB DUP4 AND PUSH2 0xCCD JUMPI PUSH1 0x40 MLOAD PUSH3 0x461BCD PUSH1 0xE5 SHL DUP2 MSTORE PUSH1 0x20 PUSH1 0x4 DUP3 ADD MSTORE PUSH1 0x25 PUSH1 0x24 DUP3 ADD MSTORE PUSH32 0x45524332303A207472616E736665722066726F6D20746865207A65726F206164 PUSH1 0x44 DUP3 ADD MSTORE PUSH5 0x6472657373 PUSH1 0xD8 SHL PUSH1 0x64 DUP3 ADD MSTORE PUSH1 0x84 ADD PUSH2 0x414 JUMP JUMPDEST PUSH1 0x1 PUSH1 0x1 PUSH1 0xA0 SHL SUB DUP3 AND PUSH2 0xD2F JUMPI PUSH1 0x40 MLOAD PUSH3 0x461BCD PUSH1 0xE5 SHL DUP2 MSTORE PUSH1 0x20 PUSH1 0x4 DUP3 ADD MSTORE PUSH1 0x23 PUSH1 0x24 DUP3 ADD MSTORE PUSH32 0x45524332303A207472616E7366657220746F20746865207A65726F2061646472 PUSH1 0x44 DUP3 ADD MSTORE PUSH3 0x657373 PUSH1 0xE8 SHL PUSH1 0x64 DUP3 ADD MSTORE PUSH1 0x84 ADD PUSH2 0x414 JUMP JUMPDEST PUSH1 0x1 PUSH1 0x1 PUSH1 0xA0 SHL SUB DUP4 AND PUSH1 0x0 SWAP1 DUP2 MSTORE PUSH1 0x2 PUSH1 0x20 MSTORE PUSH1 0x40 SWAP1 KECCAK256 SLOAD DUP2 DUP2 LT ISZERO PUSH2 0xDA7 JUMPI PUSH1 0x40 MLOAD PUSH3 0x461BCD PUSH1 0xE5 SHL DUP2 MSTORE PUSH1 0x20 PUSH1 0x4 DUP3 ADD MSTORE PUSH1 0x26 PUSH1 0x24 DUP3 ADD MSTORE PUSH32 0x45524332303A207472616E7366657220616D6F756E7420657863656564732062 PUSH1 0x44 DUP3 ADD MSTORE PUSH6 0x616C616E6365 PUSH1 0xD0 SHL PUSH1 0x64 DUP3 ADD MSTORE PUSH1 0x84 ADD PUSH2 0x414 JUMP JUMPDEST PUSH1 0x1 PUSH1 0x1 PUSH1 0xA0 SHL SUB DUP1 DUP6 AND PUSH1 0x0 SWAP1 DUP2 MSTORE PUSH1 0x2 PUSH1 0x20 MSTORE PUSH1 0x40 DUP1 DUP3 KECCAK256 DUP6 DUP6 SUB SWAP1 SSTORE SWAP2 DUP6 AND DUP2 MSTORE SWAP1 DUP2 KECCAK256 DUP1 SLOAD DUP5 SWAP3 SWAP1 PUSH2 0xDDE SWAP1 DUP5 SWAP1 PUSH2 0x19B8 JUMP JUMPDEST SWAP3 POP POP DUP2 SWAP1 SSTORE POP DUP3 PUSH1 0x1 PUSH1 0x1 PUSH1 0xA0 SHL SUB AND DUP5 PUSH1 0x1 PUSH1 0x1 PUSH1 0xA0 SHL SUB AND PUSH32 0xDDF252AD1BE2C89B69C2B068FC378DAA952BA7F163C4A11628F55A4DF523B3EF DUP5 PUSH1 0x40 MLOAD PUSH2 0xE2A SWAP2 DUP2 MSTORE PUSH1 0x20 ADD SWAP1 JUMP JUMPDEST PUSH1 0x40 MLOAD DUP1 SWAP2 SUB SWAP1 LOG3 PUSH2 0xC63 JUMP JUMPDEST PUSH1 0x0 PUSH32 0x8B73C3C69BB8FE3D512ECC4CF759CC79239F7B179B0FFACAA9A75D522B39400F PUSH2 0xE62 PUSH2 0x329 JUMP JUMPDEST DUP1 MLOAD PUSH1 0x20 SWAP2 DUP3 ADD KECCAK256 PUSH1 0x40 DUP1 MLOAD SWAP3 DUP4 ADD SWAP4 SWAP1 SWAP4 MSTORE SWAP2 DUP2 ADD SWAP2 SWAP1 SWAP2 MSTORE PUSH32 0xC89EFDAA54C0F20C7ADF612882DF0950F5A951637E0307CDCB4C672F298B8BC6 PUSH1 0x60 DUP3 ADD MSTORE CHAINID PUSH1 0x80 DUP3 ADD MSTORE ADDRESS PUSH1 0xA0 DUP3 ADD MSTORE PUSH1 0xC0 ADD PUSH1 0x40 MLOAD PUSH1 0x20 DUP2 DUP4 SUB SUB DUP2 MSTORE SWAP1 PUSH1 0x40 MSTORE DUP1 MLOAD SWAP1 PUSH1 0x20 ADD KECCAK256 SWAP1 POP SWAP1 JUMP JUMPDEST PUSH1 0x1 PUSH1 0x1 PUSH1 0xA0 SHL SUB DUP3 AND PUSH2 0xF2C JUMPI PUSH1 0x40 MLOAD PUSH3 0x461BCD PUSH1 0xE5 SHL DUP2 MSTORE PUSH1 0x20 PUSH1 0x4 DUP3 ADD MSTORE PUSH1 0x21 PUSH1 0x24 DUP3 ADD MSTORE PUSH32 0x45524332303A206275726E2066726F6D20746865207A65726F20616464726573 PUSH1 0x44 DUP3 ADD MSTORE PUSH1 0x73 PUSH1 0xF8 SHL PUSH1 0x64 DUP3 ADD MSTORE PUSH1 0x84 ADD PUSH2 0x414 JUMP JUMPDEST PUSH1 0x1 PUSH1 0x1 PUSH1 0xA0 SHL SUB DUP3 AND PUSH1 0x0 SWAP1 DUP2 MSTORE PUSH1 0x2 PUSH1 0x20 MSTORE PUSH1 0x40 SWAP1 KECCAK256 SLOAD DUP2 DUP2 LT ISZERO PUSH2 0xFA0 JUMPI PUSH1 0x40 MLOAD PUSH3 0x461BCD PUSH1 0xE5 SHL DUP2 MSTORE PUSH1 0x20 PUSH1 0x4 DUP3 ADD MSTORE PUSH1 0x22 PUSH1 0x24 DUP3 ADD MSTORE PUSH32 0x45524332303A206275726E20616D6F756E7420657863656564732062616C616E PUSH1 0x44 DUP3 ADD MSTORE PUSH2 0x6365 PUSH1 0xF0 SHL PUSH1 0x64 DUP3 ADD MSTORE PUSH1 0x84 ADD PUSH2 0x414 JUMP JUMPDEST PUSH1 0x1 PUSH1 0x1 PUSH1 0xA0 SHL SUB DUP4 AND PUSH1 0x0 SWAP1 DUP2 MSTORE PUSH1 0x2 PUSH1 0x20 MSTORE PUSH1 0x40 DUP2 KECCAK256 DUP4 DUP4 SUB SWAP1 SSTORE PUSH1 0x4 DUP1 SLOAD DUP5 SWAP3 SWAP1 PUSH2 0xFCF SWAP1 DUP5 SWAP1 PUSH2 0x1A4F JUMP JUMPDEST SWAP1 SWAP2 SSTORE POP POP PUSH1 0x40 MLOAD DUP3 DUP2 MSTORE PUSH1 0x0 SWAP1 PUSH1 0x1 PUSH1 0x1 PUSH1 0xA0 SHL SUB DUP6 AND SWAP1 PUSH32 0xDDF252AD1BE2C89B69C2B068FC378DAA952BA7F163C4A11628F55A4DF523B3EF SWAP1 PUSH1 0x20 ADD PUSH2 0xB4B JUMP JUMPDEST PUSH1 0x1 PUSH1 0x1 PUSH1 0xA0 SHL SUB DUP3 AND PUSH2 0x1068 JUMPI PUSH1 0x40 MLOAD PUSH3 0x461BCD PUSH1 0xE5 SHL DUP2 MSTORE PUSH1 0x20 PUSH1 0x4 DUP3 ADD MSTORE PUSH1 0x1F PUSH1 0x24 DUP3 ADD MSTORE PUSH32 0x45524332303A206D696E7420746F20746865207A65726F206164647265737300 PUSH1 0x44 DUP3 ADD MSTORE PUSH1 0x64 ADD PUSH2 0x414 JUMP JUMPDEST DUP1 PUSH1 0x4 PUSH1 0x0 DUP3 DUP3 SLOAD PUSH2 0x107A SWAP2 SWAP1 PUSH2 0x19B8 JUMP JUMPDEST SWAP1 SWAP2 SSTORE POP POP PUSH1 0x1 PUSH1 0x1 PUSH1 0xA0 SHL SUB DUP3 AND PUSH1 0x0 SWAP1 DUP2 MSTORE PUSH1 0x2 PUSH1 0x20 MSTORE PUSH1 0x40 DUP2 KECCAK256 DUP1 SLOAD DUP4 SWAP3 SWAP1 PUSH2 0x10A7 SWAP1 DUP5 SWAP1 PUSH2 0x19B8 JUMP JUMPDEST SWAP1 SWAP2 SSTORE POP POP PUSH1 0x40 MLOAD DUP2 DUP2 MSTORE PUSH1 0x1 PUSH1 0x1 PUSH1 0xA0 SHL SUB DUP4 AND SWAP1 PUSH1 0x0 SWAP1 PUSH32 0xDDF252AD1BE2C89B69C2B068FC378DAA952BA7F163C4A11628F55A4DF523B3EF SWAP1 PUSH1 0x20 ADD PUSH1 0x40 MLOAD DUP1 SWAP2 SUB SWAP1 LOG3 POP POP JUMP JUMPDEST PUSH1 0x0 DUP1 DUP1 SLOAD PUSH2 0x10FF SWAP1 PUSH2 0x196D JUMP JUMPDEST DUP1 PUSH1 0x1F ADD PUSH1 0x20 DUP1 SWAP2 DIV MUL PUSH1 0x20 ADD PUSH1 0x40 MLOAD SWAP1 DUP2 ADD PUSH1 0x40 MSTORE DUP1 SWAP3 SWAP2 SWAP1 DUP2 DUP2 MSTORE PUSH1 0x20 ADD DUP3 DUP1 SLOAD PUSH2 0x112B SWAP1 PUSH2 0x196D JUMP JUMPDEST DUP1 ISZERO PUSH2 0x1178 JUMPI DUP1 PUSH1 0x1F LT PUSH2 0x114D JUMPI PUSH2 0x100 DUP1 DUP4 SLOAD DIV MUL DUP4 MSTORE SWAP2 PUSH1 0x20 ADD SWAP2 PUSH2 0x1178 JUMP JUMPDEST DUP3 ADD SWAP2 SWAP1 PUSH1 0x0 MSTORE PUSH1 0x20 PUSH1 0x0 KECCAK256 SWAP1 JUMPDEST DUP2 SLOAD DUP2 MSTORE SWAP1 PUSH1 0x1 ADD SWAP1 PUSH1 0x20 ADD DUP1 DUP4 GT PUSH2 0x115B JUMPI DUP3 SWAP1 SUB PUSH1 0x1F AND DUP3 ADD SWAP2 JUMPDEST POP POP DUP6 MLOAD SWAP4 SWAP5 POP PUSH2 0x1194 SWAP4 PUSH1 0x0 SWAP4 POP PUSH1 0x20 DUP8 ADD SWAP3 POP SWAP1 POP PUSH2 0x156F JUMP JUMPDEST POP PUSH32 0xC9C7C3FE08B88B4DF9D4D47EF47D2C43D55C025A0BA88CA442580ED9E7348A16 DUP2 DUP4 PUSH1 0x40 MLOAD PUSH2 0x11C6 SWAP3 SWAP2 SWAP1 PUSH2 0x1A66 JUMP JUMPDEST PUSH1 0x40 MLOAD DUP1 SWAP2 SUB SWAP1 LOG1 POP POP JUMP JUMPDEST PUSH1 0x60 PUSH2 0x448 DUP4 DUP4 PUSH1 0x40 MLOAD DUP1 PUSH1 0x60 ADD PUSH1 0x40 MSTORE DUP1 PUSH1 0x27 DUP2 MSTORE PUSH1 0x20 ADD PUSH2 0x1AC7 PUSH1 0x27 SWAP2 CODECOPY PUSH2 0x1247 JUMP JUMPDEST PUSH1 0x1 PUSH1 0x1 PUSH1 0xA0 SHL SUB DUP2 AND PUSH1 0x0 SWAP1 DUP2 MSTORE PUSH1 0x7 PUSH1 0x20 MSTORE PUSH1 0x40 SWAP1 KECCAK256 DUP1 SLOAD PUSH1 0x1 DUP2 ADD DUP3 SSTORE SWAP1 JUMPDEST POP SWAP2 SWAP1 POP JUMP JUMPDEST PUSH1 0x0 DUP1 PUSH1 0x0 PUSH2 0x1230 DUP8 DUP8 DUP8 DUP8 PUSH2 0x1324 JUMP JUMPDEST SWAP2 POP SWAP2 POP PUSH2 0x123D DUP2 PUSH2 0x13E8 JUMP JUMPDEST POP SWAP6 SWAP5 POP POP POP POP POP JUMP JUMPDEST PUSH1 0x60 PUSH1 0x1 PUSH1 0x1 PUSH1 0xA0 SHL SUB DUP5 AND EXTCODESIZE PUSH2 0x12AF JUMPI PUSH1 0x40 MLOAD PUSH3 0x461BCD PUSH1 0xE5 SHL DUP2 MSTORE PUSH1 0x20 PUSH1 0x4 DUP3 ADD MSTORE PUSH1 0x26 PUSH1 0x24 DUP3 ADD MSTORE PUSH32 0x416464726573733A2064656C65676174652063616C6C20746F206E6F6E2D636F PUSH1 0x44 DUP3 ADD MSTORE PUSH6 0x1B9D1C9858DD PUSH1 0xD2 SHL PUSH1 0x64 DUP3 ADD MSTORE PUSH1 0x84 ADD PUSH2 0x414 JUMP JUMPDEST PUSH1 0x0 DUP1 DUP6 PUSH1 0x1 PUSH1 0x1 PUSH1 0xA0 SHL SUB AND DUP6 PUSH1 0x40 MLOAD PUSH2 0x12CA SWAP2 SWAP1 PUSH2 0x1A94 JUMP JUMPDEST PUSH1 0x0 PUSH1 0x40 MLOAD DUP1 DUP4 SUB DUP2 DUP6 GAS DELEGATECALL SWAP2 POP POP RETURNDATASIZE DUP1 PUSH1 0x0 DUP2 EQ PUSH2 0x1305 JUMPI PUSH1 0x40 MLOAD SWAP2 POP PUSH1 0x1F NOT PUSH1 0x3F RETURNDATASIZE ADD AND DUP3 ADD PUSH1 0x40 MSTORE RETURNDATASIZE DUP3 MSTORE RETURNDATASIZE PUSH1 0x0 PUSH1 0x20 DUP5 ADD RETURNDATACOPY PUSH2 0x130A JUMP JUMPDEST PUSH1 0x60 SWAP2 POP JUMPDEST POP SWAP2 POP SWAP2 POP PUSH2 0x131A DUP3 DUP3 DUP7 PUSH2 0x1536 JUMP JUMPDEST SWAP7 SWAP6 POP POP POP POP POP POP JUMP JUMPDEST PUSH1 0x0 DUP1 PUSH32 0x7FFFFFFFFFFFFFFFFFFFFFFFFFFFFFFF5D576E7357A4501DDFE92F46681B20A0 DUP4 GT ISZERO PUSH2 0x135B JUMPI POP PUSH1 0x0 SWAP1 POP PUSH1 0x3 PUSH2 0x13DF JUMP JUMPDEST PUSH1 0x40 DUP1 MLOAD PUSH1 0x0 DUP1 DUP3 MSTORE PUSH1 0x20 DUP3 ADD DUP1 DUP5 MSTORE DUP10 SWAP1 MSTORE PUSH1 0xFF DUP9 AND SWAP3 DUP3 ADD SWAP3 SWAP1 SWAP3 MSTORE PUSH1 0x60 DUP2 ADD DUP7 SWAP1 MSTORE PUSH1 0x80 DUP2 ADD DUP6 SWAP1 MSTORE PUSH1 0x1 SWAP1 PUSH1 0xA0 ADD PUSH1 0x20 PUSH1 0x40 MLOAD PUSH1 0x20 DUP2 SUB SWAP1 DUP1 DUP5 SUB SWAP1 DUP6 GAS STATICCALL ISZERO DUP1 ISZERO PUSH2 0x13AF JUMPI RETURNDATASIZE PUSH1 0x0 DUP1 RETURNDATACOPY RETURNDATASIZE PUSH1 0x0 REVERT JUMPDEST POP POP PUSH1 0x40 MLOAD PUSH1 0x1F NOT ADD MLOAD SWAP2 POP POP PUSH1 0x1 PUSH1 0x1 PUSH1 0xA0 SHL SUB DUP2 AND PUSH2 0x13D8 JUMPI PUSH1 0x0 PUSH1 0x1 SWAP3 POP SWAP3 POP POP PUSH2 0x13DF JUMP JUMPDEST SWAP2 POP PUSH1 0x0 SWAP1 POP JUMPDEST SWAP5 POP SWAP5 SWAP3 POP POP POP JUMP JUMPDEST PUSH1 0x0 DUP2 PUSH1 0x4 DUP2 GT ISZERO PUSH2 0x13FC JUMPI PUSH2 0x13FC PUSH2 0x1AB0 JUMP JUMPDEST EQ ISZERO PUSH2 0x1405 JUMPI POP JUMP JUMPDEST PUSH1 0x1 DUP2 PUSH1 0x4 DUP2 GT ISZERO PUSH2 0x1419 JUMPI PUSH2 0x1419 PUSH2 0x1AB0 JUMP JUMPDEST EQ ISZERO PUSH2 0x1467 JUMPI PUSH1 0x40 MLOAD PUSH3 0x461BCD PUSH1 0xE5 SHL DUP2 MSTORE PUSH1 0x20 PUSH1 0x4 DUP3 ADD MSTORE PUSH1 0x18 PUSH1 0x24 DUP3 ADD MSTORE PUSH32 0x45434453413A20696E76616C6964207369676E61747572650000000000000000 PUSH1 0x44 DUP3 ADD MSTORE PUSH1 0x64 ADD PUSH2 0x414 JUMP JUMPDEST PUSH1 0x2 DUP2 PUSH1 0x4 DUP2 GT ISZERO PUSH2 0x147B JUMPI PUSH2 0x147B PUSH2 0x1AB0 JUMP JUMPDEST EQ ISZERO PUSH2 0x14C9 JUMPI PUSH1 0x40 MLOAD PUSH3 0x461BCD PUSH1 0xE5 SHL DUP2 MSTORE PUSH1 0x20 PUSH1 0x4 DUP3 ADD MSTORE PUSH1 0x1F PUSH1 0x24 DUP3 ADD MSTORE PUSH32 0x45434453413A20696E76616C6964207369676E6174757265206C656E67746800 PUSH1 0x44 DUP3 ADD MSTORE PUSH1 0x64 ADD PUSH2 0x414 JUMP JUMPDEST PUSH1 0x3 DUP2 PUSH1 0x4 DUP2 GT ISZERO PUSH2 0x14DD JUMPI PUSH2 0x14DD PUSH2 0x1AB0 JUMP JUMPDEST EQ ISZERO PUSH2 0x426 JUMPI PUSH1 0x40 MLOAD PUSH3 0x461BCD PUSH1 0xE5 SHL DUP2 MSTORE PUSH1 0x20 PUSH1 0x4 DUP3 ADD MSTORE PUSH1 0x22 PUSH1 0x24 DUP3 ADD MSTORE PUSH32 0x45434453413A20696E76616C6964207369676E6174757265202773272076616C PUSH1 0x44 DUP3 ADD MSTORE PUSH2 0x7565 PUSH1 0xF0 SHL PUSH1 0x64 DUP3 ADD MSTORE PUSH1 0x84 ADD PUSH2 0x414 JUMP JUMPDEST PUSH1 0x60 DUP4 ISZERO PUSH2 0x1545 JUMPI POP DUP2 PUSH2 0x448 JUMP JUMPDEST DUP3 MLOAD ISZERO PUSH2 0x1555 JUMPI DUP3 MLOAD DUP1 DUP5 PUSH1 0x20 ADD REVERT JUMPDEST DUP2 PUSH1 0x40 MLOAD PUSH3 0x461BCD PUSH1 0xE5 SHL DUP2 MSTORE PUSH1 0x4 ADD PUSH2 0x414 SWAP2 SWAP1 PUSH2 0x1660 JUMP JUMPDEST DUP3 DUP1 SLOAD PUSH2 0x157B SWAP1 PUSH2 0x196D JUMP JUMPDEST SWAP1 PUSH1 0x0 MSTORE PUSH1 0x20 PUSH1 0x0 KECCAK256 SWAP1 PUSH1 0x1F ADD PUSH1 0x20 SWAP1 DIV DUP2 ADD SWAP3 DUP3 PUSH2 0x159D JUMPI PUSH1 0x0 DUP6 SSTORE PUSH2 0x15E3 JUMP JUMPDEST DUP3 PUSH1 0x1F LT PUSH2 0x15B6 JUMPI DUP1 MLOAD PUSH1 0xFF NOT AND DUP4 DUP1 ADD OR DUP6 SSTORE PUSH2 0x15E3 JUMP JUMPDEST DUP3 DUP1 ADD PUSH1 0x1 ADD DUP6 SSTORE DUP3 ISZERO PUSH2 0x15E3 JUMPI SWAP2 DUP3 ADD JUMPDEST DUP3 DUP2 GT ISZERO PUSH2 0x15E3 JUMPI DUP3 MLOAD DUP3 SSTORE SWAP2 PUSH1 0x20 ADD SWAP2 SWAP1 PUSH1 0x1 ADD SWAP1 PUSH2 0x15C8 JUMP JUMPDEST POP PUSH2 0x15EF SWAP3 SWAP2 POP PUSH2 0x15F3 JUMP JUMPDEST POP SWAP1 JUMP JUMPDEST JUMPDEST DUP1 DUP3 GT ISZERO PUSH2 0x15EF JUMPI PUSH1 0x0 DUP2 SSTORE PUSH1 0x1 ADD PUSH2 0x15F4 JUMP JUMPDEST PUSH1 0x0 JUMPDEST DUP4 DUP2 LT ISZERO PUSH2 0x1623 JUMPI DUP2 DUP2 ADD MLOAD DUP4 DUP3 ADD MSTORE PUSH1 0x20 ADD PUSH2 0x160B JUMP JUMPDEST DUP4 DUP2 GT ISZERO PUSH2 0xC63 JUMPI POP POP PUSH1 0x0 SWAP2 ADD MSTORE JUMP JUMPDEST PUSH1 0x0 DUP2 MLOAD DUP1 DUP5 MSTORE PUSH2 0x164C DUP2 PUSH1 0x20 DUP7 ADD PUSH1 0x20 DUP7 ADD PUSH2 0x1608 JUMP JUMPDEST PUSH1 0x1F ADD PUSH1 0x1F NOT AND SWAP3 SWAP1 SWAP3 ADD PUSH1 0x20 ADD SWAP3 SWAP2 POP POP JUMP JUMPDEST PUSH1 0x20 DUP2 MSTORE PUSH1 0x0 PUSH2 0x448 PUSH1 0x20 DUP4 ADD DUP5 PUSH2 0x1634 JUMP JUMPDEST DUP1 CALLDATALOAD PUSH1 0x1 PUSH1 0x1 PUSH1 0xA0 SHL SUB DUP2 AND DUP2 EQ PUSH2 0x168A JUMPI PUSH1 0x0 DUP1 REVERT JUMPDEST SWAP2 SWAP1 POP JUMP JUMPDEST PUSH1 0x0 DUP1 PUSH1 0x40 DUP4 DUP6 SUB SLT ISZERO PUSH2 0x16A2 JUMPI PUSH1 0x0 DUP1 REVERT JUMPDEST PUSH2 0x16AB DUP4 PUSH2 0x1673 JUMP JUMPDEST SWAP5 PUSH1 0x20 SWAP4 SWAP1 SWAP4 ADD CALLDATALOAD SWAP4 POP POP POP JUMP JUMPDEST PUSH1 0x0 PUSH1 0x20 DUP3 DUP5 SUB SLT ISZERO PUSH2 0x16CB JUMPI PUSH1 0x0 DUP1 REVERT JUMPDEST PUSH2 0x448 DUP3 PUSH2 0x1673 JUMP JUMPDEST PUSH1 0x0 DUP1 PUSH1 0x0 PUSH1 0x60 DUP5 DUP7 SUB SLT ISZERO PUSH2 0x16E9 JUMPI PUSH1 0x0 DUP1 REVERT JUMPDEST PUSH2 0x16F2 DUP5 PUSH2 0x1673 JUMP JUMPDEST SWAP3 POP PUSH2 0x1700 PUSH1 0x20 DUP6 ADD PUSH2 0x1673 JUMP JUMPDEST SWAP2 POP PUSH1 0x40 DUP5 ADD CALLDATALOAD SWAP1 POP SWAP3 POP SWAP3 POP SWAP3 JUMP JUMPDEST PUSH1 0x0 PUSH1 0x20 DUP3 DUP5 SUB SLT ISZERO PUSH2 0x1722 JUMPI PUSH1 0x0 DUP1 REVERT JUMPDEST POP CALLDATALOAD SWAP2 SWAP1 POP JUMP JUMPDEST PUSH4 0x4E487B71 PUSH1 0xE0 SHL PUSH1 0x0 MSTORE PUSH1 0x41 PUSH1 0x4 MSTORE PUSH1 0x24 PUSH1 0x0 REVERT JUMPDEST PUSH1 0x0 PUSH1 0x20 DUP3 DUP5 SUB SLT ISZERO PUSH2 0x1751 JUMPI PUSH1 0x0 DUP1 REVERT JUMPDEST DUP2 CALLDATALOAD PUSH8 0xFFFFFFFFFFFFFFFF DUP1 DUP3 GT ISZERO PUSH2 0x1769 JUMPI PUSH1 0x0 DUP1 REVERT JUMPDEST DUP2 DUP5 ADD SWAP2 POP DUP5 PUSH1 0x1F DUP4 ADD SLT PUSH2 0x177D JUMPI PUSH1 0x0 DUP1 REVERT JUMPDEST DUP2 CALLDATALOAD DUP2 DUP2 GT ISZERO PUSH2 0x178F JUMPI PUSH2 0x178F PUSH2 0x1729 JUMP JUMPDEST PUSH1 0x40 MLOAD PUSH1 0x1F DUP3 ADD PUSH1 0x1F NOT SWAP1 DUP2 AND PUSH1 0x3F ADD AND DUP2 ADD SWAP1 DUP4 DUP3 GT DUP2 DUP4 LT OR ISZERO PUSH2 0x17B7 JUMPI PUSH2 0x17B7 PUSH2 0x1729 JUMP JUMPDEST DUP2 PUSH1 0x40 MSTORE DUP3 DUP2 MSTORE DUP8 PUSH1 0x20 DUP5 DUP8 ADD ADD GT ISZERO PUSH2 0x17D0 JUMPI PUSH1 0x0 DUP1 REVERT JUMPDEST DUP3 PUSH1 0x20 DUP7 ADD PUSH1 0x20 DUP4 ADD CALLDATACOPY PUSH1 0x0 SWAP3 DUP2 ADD PUSH1 0x20 ADD SWAP3 SWAP1 SWAP3 MSTORE POP SWAP6 SWAP5 POP POP POP POP POP JUMP JUMPDEST PUSH1 0x0 DUP1 PUSH1 0x20 DUP4 DUP6 SUB SLT ISZERO PUSH2 0x1803 JUMPI PUSH1 0x0 DUP1 REVERT JUMPDEST DUP3 CALLDATALOAD PUSH8 0xFFFFFFFFFFFFFFFF DUP1 DUP3 GT ISZERO PUSH2 0x181B JUMPI PUSH1 0x0 DUP1 REVERT JUMPDEST DUP2 DUP6 ADD SWAP2 POP DUP6 PUSH1 0x1F DUP4 ADD SLT PUSH2 0x182F JUMPI PUSH1 0x0 DUP1 REVERT JUMPDEST DUP2 CALLDATALOAD DUP2 DUP2 GT ISZERO PUSH2 0x183E JUMPI PUSH1 0x0 DUP1 REVERT JUMPDEST DUP7 PUSH1 0x20 DUP3 PUSH1 0x5 SHL DUP6 ADD ADD GT ISZERO PUSH2 0x1853 JUMPI PUSH1 0x0 DUP1 REVERT JUMPDEST PUSH1 0x20 SWAP3 SWAP1 SWAP3 ADD SWAP7 SWAP2 SWAP6 POP SWAP1 SWAP4 POP POP POP POP JUMP JUMPDEST PUSH1 0x0 PUSH1 0x20 DUP1 DUP4 ADD DUP2 DUP5 MSTORE DUP1 DUP6 MLOAD DUP1 DUP4 MSTORE PUSH1 0x40 DUP7 ADD SWAP2 POP PUSH1 0x40 DUP2 PUSH1 0x5 SHL DUP8 ADD ADD SWAP3 POP DUP4 DUP8 ADD PUSH1 0x0 JUMPDEST DUP3 DUP2 LT ISZERO PUSH2 0x18BA JUMPI PUSH1 0x3F NOT DUP9 DUP7 SUB ADD DUP5 MSTORE PUSH2 0x18A8 DUP6 DUP4 MLOAD PUSH2 0x1634 JUMP JUMPDEST SWAP5 POP SWAP3 DUP6 ADD SWAP3 SWAP1 DUP6 ADD SWAP1 PUSH1 0x1 ADD PUSH2 0x188C JUMP JUMPDEST POP SWAP3 SWAP8 SWAP7 POP POP POP POP POP POP POP JUMP JUMPDEST PUSH1 0x0 DUP1 PUSH1 0x0 DUP1 PUSH1 0x0 DUP1 PUSH1 0x0 PUSH1 0xE0 DUP9 DUP11 SUB SLT ISZERO PUSH2 0x18E2 JUMPI PUSH1 0x0 DUP1 REVERT JUMPDEST PUSH2 0x18EB DUP9 PUSH2 0x1673 JUMP JUMPDEST SWAP7 POP PUSH2 0x18F9 PUSH1 0x20 DUP10 ADD PUSH2 0x1673 JUMP JUMPDEST SWAP6 POP PUSH1 0x40 DUP9 ADD CALLDATALOAD SWAP5 POP PUSH1 0x60 DUP9 ADD CALLDATALOAD SWAP4 POP PUSH1 0x80 DUP9 ADD CALLDATALOAD PUSH1 0xFF DUP2 AND DUP2 EQ PUSH2 0x191D JUMPI PUSH1 0x0 DUP1 REVERT JUMPDEST SWAP7 SWAP10 SWAP6 SWAP9 POP SWAP4 SWAP7 SWAP3 SWAP6 SWAP5 PUSH1 0xA0 DUP5 ADD CALLDATALOAD SWAP5 POP PUSH1 0xC0 SWAP1 SWAP4 ADD CALLDATALOAD SWAP3 SWAP2 POP POP JUMP JUMPDEST PUSH1 0x0 DUP1 PUSH1 0x40 DUP4 DUP6 SUB SLT ISZERO PUSH2 0x194D JUMPI PUSH1 0x0 DUP1 REVERT JUMPDEST PUSH2 0x1956 DUP4 PUSH2 0x1673 JUMP JUMPDEST SWAP2 POP PUSH2 0x1964 PUSH1 0x20 DUP5 ADD PUSH2 0x1673 JUMP JUMPDEST SWAP1 POP SWAP3 POP SWAP3 SWAP1 POP JUMP JUMPDEST PUSH1 0x1 DUP2 DUP2 SHR SWAP1 DUP3 AND DUP1 PUSH2 0x1981 JUMPI PUSH1 0x7F DUP3 AND SWAP2 POP JUMPDEST PUSH1 0x20 DUP3 LT DUP2 EQ ISZERO PUSH2 0x1219 JUMPI PUSH4 0x4E487B71 PUSH1 0xE0 SHL PUSH1 0x0 MSTORE PUSH1 0x22 PUSH1 0x4 MSTORE PUSH1 0x24 PUSH1 0x0 REVERT JUMPDEST PUSH4 0x4E487B71 PUSH1 0xE0 SHL PUSH1 0x0 MSTORE PUSH1 0x11 PUSH1 0x4 MSTORE PUSH1 0x24 PUSH1 0x0 REVERT JUMPDEST PUSH1 0x0 DUP3 NOT DUP3 GT ISZERO PUSH2 0x19CB JUMPI PUSH2 0x19CB PUSH2 0x19A2 JUMP JUMPDEST POP ADD SWAP1 JUMP JUMPDEST PUSH4 0x4E487B71 PUSH1 0xE0 SHL PUSH1 0x0 MSTORE PUSH1 0x32 PUSH1 0x4 MSTORE PUSH1 0x24 PUSH1 0x0 REVERT JUMPDEST PUSH1 0x0 DUP1 DUP4 CALLDATALOAD PUSH1 0x1E NOT DUP5 CALLDATASIZE SUB ADD DUP2 SLT PUSH2 0x19FD JUMPI PUSH1 0x0 DUP1 REVERT JUMPDEST DUP4 ADD DUP1 CALLDATALOAD SWAP2 POP PUSH8 0xFFFFFFFFFFFFFFFF DUP3 GT ISZERO PUSH2 0x1A18 JUMPI PUSH1 0x0 DUP1 REVERT JUMPDEST PUSH1 0x20 ADD SWAP2 POP CALLDATASIZE DUP2 SWAP1 SUB DUP3 SGT ISZERO PUSH2 0x1A2D JUMPI PUSH1 0x0 DUP1 REVERT JUMPDEST SWAP3 POP SWAP3 SWAP1 POP JUMP JUMPDEST PUSH1 0x0 PUSH1 0x0 NOT DUP3 EQ ISZERO PUSH2 0x1A48 JUMPI PUSH2 0x1A48 PUSH2 0x19A2 JUMP JUMPDEST POP PUSH1 0x1 ADD SWAP1 JUMP JUMPDEST PUSH1 0x0 DUP3 DUP3 LT ISZERO PUSH2 0x1A61 JUMPI PUSH2 0x1A61 PUSH2 0x19A2 JUMP JUMPDEST POP SUB SWAP1 JUMP JUMPDEST PUSH1 0x40 DUP2 MSTORE PUSH1 0x0 PUSH2 0x1A79 PUSH1 0x40 DUP4 ADD DUP6 PUSH2 0x1634 JUMP JUMPDEST DUP3 DUP2 SUB PUSH1 0x20 DUP5 ADD MSTORE PUSH2 0x1A8B DUP2 DUP6 PUSH2 0x1634 JUMP JUMPDEST SWAP6 SWAP5 POP POP POP POP POP JUMP JUMPDEST PUSH1 0x0 DUP3 MLOAD PUSH2 0x1AA6 DUP2 DUP5 PUSH1 0x20 DUP8 ADD PUSH2 0x1608 JUMP JUMPDEST SWAP2 SWAP1 SWAP2 ADD SWAP3 SWAP2 POP POP JUMP JUMPDEST PUSH4 0x4E487B71 PUSH1 0xE0 SHL PUSH1 0x0 MSTORE PUSH1 0x21 PUSH1 0x4 MSTORE PUSH1 0x24 PUSH1 0x0 REVERT INVALID COINBASE PUSH5 0x6472657373 GASPRICE KECCAK256 PUSH13 0x6F772D6C6576656C2064656C65 PUSH8 0x6174652063616C6C KECCAK256 PUSH7 0x61696C6564A264 PUSH10 0x706673582212204953D8 0xB0 0xBD PUSH18 0x80DB310463B779D4EC61C8AEF183E4DB3507 0x5D 0xAD EQ 0x2E DUP7 0x4B 0xA5 PUSH18 0x64736F6C634300080B003300000000000000 "
				},
				"gasEstimates": {
					"creation": {
						"codeDepositCost": "1389400",
						"executionCost": "infinite",
						"totalCost": "infinite"
					},
					"external": {
						"DOMAIN_SEPARATOR()": "infinite",
						"allowance(address,address)": "infinite",
						"approve(address,uint256)": "24648",
						"balanceOf(address)": "2560",
						"burn(uint256)": "53138",
						"contractURI()": "infinite",
						"decimals()": "200",
						"decreaseAllowance(address,uint256)": "26923",
						"increaseAllowance(address,uint256)": "27013",
						"mintTo(address,uint256)": "infinite",
						"multicall(bytes[])": "infinite",
						"name()": "infinite",
						"nonces(address)": "2582",
						"owner()": "2368",
						"permit(address,address,uint256,uint256,uint8,bytes32,bytes32)": "infinite",
						"setContractURI(string)": "infinite",
						"setOwner(address)": "28431",
						"symbol()": "infinite",
						"totalSupply()": "2371",
						"transfer(address,uint256)": "51220",
						"transferFrom(address,address,uint256)": "infinite"
					},
					"internal": {
						"_canMint()": "infinite",
						"_canSetContractURI()": "infinite",
						"_canSetOwner()": "2197"
					}
				},
				"methodIdentifiers": {
					"DOMAIN_SEPARATOR()": "3644e515",
					"allowance(address,address)": "dd62ed3e",
					"approve(address,uint256)": "095ea7b3",
					"balanceOf(address)": "70a08231",
					"burn(uint256)": "42966c68",
					"contractURI()": "e8a3d485",
					"decimals()": "313ce567",
					"decreaseAllowance(address,uint256)": "a457c2d7",
					"increaseAllowance(address,uint256)": "39509351",
					"mintTo(address,uint256)": "449a52f8",
					"multicall(bytes[])": "ac9650d8",
					"name()": "06fdde03",
					"nonces(address)": "7ecebe00",
					"owner()": "8da5cb5b",
					"permit(address,address,uint256,uint256,uint8,bytes32,bytes32)": "d505accf",
					"setContractURI(string)": "938e3d7b",
					"setOwner(address)": "13af4035",
					"symbol()": "95d89b41",
					"totalSupply()": "18160ddd",
					"transfer(address,uint256)": "a9059cbb",
					"transferFrom(address,address,uint256)": "23b872dd"
				}
			},
			"storageLayout": {
				"storage": [
					{
						"astId": 258,
						"contract": "base/ERC20Base.sol:ERC20Base",
						"label": "contractURI",
						"offset": 0,
						"slot": "0",
						"type": "t_string_storage"
					},
					{
						"astId": 374,
						"contract": "base/ERC20Base.sol:ERC20Base",
						"label": "_owner",
						"offset": 0,
						"slot": "1",
						"type": "t_address"
					},
					{
						"astId": 1021,
						"contract": "base/ERC20Base.sol:ERC20Base",
						"label": "_balances",
						"offset": 0,
						"slot": "2",
						"type": "t_mapping(t_address,t_uint256)"
					},
					{
						"astId": 1027,
						"contract": "base/ERC20Base.sol:ERC20Base",
						"label": "_allowances",
						"offset": 0,
						"slot": "3",
						"type": "t_mapping(t_address,t_mapping(t_address,t_uint256))"
					},
					{
						"astId": 1029,
						"contract": "base/ERC20Base.sol:ERC20Base",
						"label": "_totalSupply",
						"offset": 0,
						"slot": "4",
						"type": "t_uint256"
					},
					{
						"astId": 1031,
						"contract": "base/ERC20Base.sol:ERC20Base",
						"label": "_name",
						"offset": 0,
						"slot": "5",
						"type": "t_string_storage"
					},
					{
						"astId": 1033,
						"contract": "base/ERC20Base.sol:ERC20Base",
						"label": "_symbol",
						"offset": 0,
						"slot": "6",
						"type": "t_string_storage"
					},
					{
						"astId": 1614,
						"contract": "base/ERC20Base.sol:ERC20Base",
						"label": "_nonces",
						"offset": 0,
						"slot": "7",
						"type": "t_mapping(t_address,t_struct(Counter)1863_storage)"
					}
				],
				"types": {
					"t_address": {
						"encoding": "inplace",
						"label": "address",
						"numberOfBytes": "20"
					},
					"t_mapping(t_address,t_mapping(t_address,t_uint256))": {
						"encoding": "mapping",
						"key": "t_address",
						"label": "mapping(address => mapping(address => uint256))",
						"numberOfBytes": "32",
						"value": "t_mapping(t_address,t_uint256)"
					},
					"t_mapping(t_address,t_struct(Counter)1863_storage)": {
						"encoding": "mapping",
						"key": "t_address",
						"label": "mapping(address => struct Counters.Counter)",
						"numberOfBytes": "32",
						"value": "t_struct(Counter)1863_storage"
					},
					"t_mapping(t_address,t_uint256)": {
						"encoding": "mapping",
						"key": "t_address",
						"label": "mapping(address => uint256)",
						"numberOfBytes": "32",
						"value": "t_uint256"
					},
					"t_string_storage": {
						"encoding": "bytes",
						"label": "string",
						"numberOfBytes": "32"
					},
					"t_struct(Counter)1863_storage": {
						"encoding": "inplace",
						"label": "struct Counters.Counter",
						"members": [
							{
								"astId": 1862,
								"contract": "base/ERC20Base.sol:ERC20Base",
								"label": "_value",
								"offset": 0,
								"slot": "0",
								"type": "t_uint256"
							}
						],
						"numberOfBytes": "32"
					},
					"t_uint256": {
						"encoding": "inplace",
						"label": "uint256",
						"numberOfBytes": "32"
					}
				}
			},
			"userdoc": {
				"kind": "user",
				"methods": {
					"burn(uint256)": {
						"notice": "Lets an owner a given amount of their tokens."
					},
					"contractURI()": {
						"notice": "Returns the contract metadata URI."
					},
					"mintTo(address,uint256)": {
						"notice": "Lets an authorized address mint tokens to a recipient."
					},
					"multicall(bytes[])": {
						"notice": "Receives and executes a batch of function calls on this contract."
					},
					"owner()": {
						"notice": "Returns the owner of the contract."
					},
					"setContractURI(string)": {
						"notice": "Lets a contract admin set the URI for contract-level metadata."
					},
					"setOwner(address)": {
						"notice": "Lets an authorized wallet set a new owner for the contract."
					}
				},
				"notice": "The `ERC20Base` smart contract implements the ERC20 standard.  It includes the following additions to standard ERC20 logic:      - Ability to mint & burn tokens via the provided `mint` & `burn` functions.      - Ownership of the contract, with the ability to restrict certain functions to        only be called by the contract's owner.      - Multicall capability to perform multiple actions atomically      - EIP 2612 compliance: See {ERC20-permit} method, which can be used to change an account's ERC20 allowance by                             presenting a message signed by the account.",
				"version": 1
			}
		}
	}
}